:020000040800F2
:10000000806B00206D020008D32A0008F328000846
:10001000D12A00082D060008A13D000800000000BC
:10002000000000000000000000000000AD0100081A
:10003000110700080000000009020008C13800088C
:10004000870200088702000887020008870200086C
:10005000870200088702000887020008870200085C
:10006000870200088702000887020008870200084C
:10007000870200088702000887020008870200083C
:10008000310600088702000887020008000000000F
:1000900000000000000000000000000087020008CF
:1000A000870200088702000887020008870200080C
:1000B00087020008870200088939000887020008C3
:1000C00087020008870200088702000887020008EC
:1000D00087020008953D0008870200080000000024
:1000E000870200088702000887020008000000005D
:1000F000000000000000000000000000870200086F
:1001000000000000092B000895390008870200084C
:1001100000000000000000000000000000000000DF
:100120003D0600088702000887020008490600080B
:10013000870200080000000000000000000000002E
:10014000000000000000000000000000870200081E
:1001500087020008550600086106000887020008AB
:10016000870200088702000800000000000000006D
:10017000000000000000000000000000000000007F
:1001800000000000870200080000000000000000DE
:100190008702000887020008DFF80CD000F0FAF8A8
:1001A000004800478D4C0008806B00202C4B1968DC
:1001B0000868B0E8F04F80F30988BFF36F8F4FF005
:1001C000000080F3118870470000000008480068B4
:1001D000006880F308884FF0000080F3148862B64E
:1001E00061B6BFF34F8FBFF36F8F00DF00BF00BF5B
:1001F00008ED00E0DFF80C00016841F470010160D7
:10020000704700BF88ED00E0EFF30980BFF36F8F08
:10021000134B1A681EF0100F08BF20ED108A20E95A
:10022000F04F106009B44FF0500080F31188BFF315
:100230004F8FBFF36F8F05F053FD4FF0000080F339
:10024000118809BC19680868B0E8F04F1EF0100F5B
:1002500008BFB0EC108A80F30988BFF36F8F704736
:1002600048000020EFF305807047000006488047F3
:1002700006480047FEE7FEE7FEE7FEE7FEE7FEE78B
:10028000FEE7FEE7FEE7FEE76D390008990100088A
:100290002DE9F05F0546002092469B4688460646BB
:1002A000814640241BE0284641464746224600F04E
:1002B00061F853465A46C01A914110D31146184668
:1002C000224600F048F82D1A67EB01084F462246F7
:1002D0000120002100F03FF817EB00094E41201EDD
:1002E000A4F10104DFDC484631462A464346BDE816
:1002F000F09F10B5431A934209D28318881803E07F
:1003000010F8011D03F8011D521EF9D210BD40EA7C
:1003100001039B0703D009E008C9121F08C0042A83
:10032000FAD203E011F8013B00F8013B521EF9D26A
:1003300010BDD2B201E000F8012B491EFBD270477C
:100340000022F6E710B513460A4604461946FFF7A1
:10035000F0FF204610BD202A04DB203A00FA02F10B
:10036000002070479140C2F1200320FA03F31943A3
:1003700090407047202A04DB203A21FA02F0002145
:10038000704721FA02F3D040C2F1200291400843A5
:1003900019467047064C074D06E0E06840F001033F
:1003A00094E8070098471034AC42F6D3FFF7F8FE04
:1003B000FC6A00081C6B000810B50146806B026CDB
:1003C00012F0500F05D0026CD20626D500F07AFA52
:1003D00010BD016C41F40071016401688A6812F07B
:1003E000405F17D1027EAAB9CA6A12F4700F02D018
:1003F0008A6852050ED44A6822F020024A60016CD5
:1004000021F480710164016CC90403D4016C41F0D2
:100410000101016400F054FA10BD806BC26CBDE8AC
:1004200010400846104710B5806B40210164416CB4
:1004300041F00401416400F045FA10BD10B5806B35
:1004400000F03FFA10BD0000464910B54A6822F49A
:1004500040324A604A6843681A434A6001684A6801
:1004600022F480724A6001684A68036942EA032202
:100470004A6001684A6822F040724A6001684A682E
:1004800083681A434A6001688A6822F400628A60BD
:1004900001688A68C3681A438A60816A6FF0706273
:1004A000D14201688A6822F070628A6001688A68B5
:1004B0000CD0836A1A438A6001688A6822F040522D
:1004C0008A6001688A68C36A1A4301E022F04052D8
:1004D0008A6001688A6822F002028A6001688A687C
:1004E000037E42EA43028A6090F8201000290168E6
:1004F0004A680FD042F400624A6001684A6822F4F8
:1005000060424A6001684A68174C436A04EB43330F
:100510001A4301E022F400624A600168CA6A22F4C8
:100520007002CA620168CA6A838B104C04EB0353E1
:100530001A43CA6201688A6822F400728A600168FC
:100540008A6890F8303042EA43228A6001688A68FB
:1005500022F480628A6001688A68406942EA8020E9
:10056000886010BD0023014000E0FFFF0000F0FFA5
:10057000704700000146014801F01ABAA0010020AE
:1005800010B5044801F026FA042801D0012010BD5E
:10059000002010BDA001002038B501208DF800001A
:1005A0009DF80000012801D0012038BD064801F067
:1005B0002BFB040006D14FF40061034801F0B0F8B2
:1005C00000B10124204638BDA0010020134610B51B
:1005D0000A4601460024034801F010FC00B1012442
:1005E000204610BDA001002003484FF0FF3201213A
:1005F000406804F073BC000020000020134610B5D2
:100600000A4601460024034801F098FC00B1012489
:10061000204610BDA001002003484FF0FF32022108
:10062000406804F05BBC000020000020FEE70000F2
:10063000014800F08FBA0000C8040020014800F013
:1006400089BA000048030020014800F083BA000086
:10065000A8030020014800F07DBA00000804002033
:10066000014800F077BA00006804002001681823F0
:10067000CAB2103AB2FBF3F2054B6FF30901032A39
:100680009B5CC36500D9091D816508467047000061
:10069000346A000810B5014600208B698A6A4FF061
:1006A000C07453B1B3F5005F15D072B1012A0CD0FC
:1006B000022A0AD0032A09D104E01AB1012A06D07D
:1006C000022A03D1C96AC90100D5012010BDC96A37
:1006D000A142FAD010BD002AF7D0012AF2D0022A96
:1006E000F3D0032AF3D010BD30B50468256825F493
:1006F00080252560046863608368402B036803D00D
:1007000099600068C26030BD9A600068C16030BD09
:1007100070477047002200F001B8000030B50E4B62
:10072000054601205C7A002C14D1587A1C54587A62
:1007300003EB800045605D7A03F108002A54587A83
:10074000421C5A72303008703A2048702F2088704E
:10075000CC70002030BD0000442A002078B5002471
:10076000009490F83C20012A19D0012280F83C2006
:100770000A6807230568092A13D9EE680A3A02EBCA
:10078000420293409E43EE600B788A680A3B03EB7B
:1007900043039A400368DD682A43DA6010E00220D0
:1007A00078BD2E6902EB420293409E432E610B7886
:1007B0008A6803EB43039A4003681D692A431A6160
:1007C0004A681F23072A13D205686E6B521E02EB7C
:1007D000820293409E436E630A8893B20A79521E46
:1007E00002EB820293400268556B2B43536327E070
:1007F00005680D2A12D22E6BD21F02EB82029340A3
:100800009E432E630B790A88DB1F92B203EB8303AE
:100810009A4003681D6B2A431A6311E0EE6A0D3A91
:1008200002EB820293409E43EE620B790A880D3BF5
:1008300092B203EB83039A400368DD6A2A43DA62CB
:100840001B4B0568194A9D420AD10D68122D07D12C
:10085000556825F400055560556845F480055560D8
:1008600005689D421DD1134D0B68AB4201D0112B81
:1008700017D1536823F480035360536843F4000393
:1008800053600968A9420CD10B490C4A0968B1FBB5
:10089000F2F101EB8101490000E0491E00910029BD
:1008A000FBD180F83C40002078BD000000230140CF
:1008B00000200140120000103C00002040420F00C8
:1008C00070477047704770B504004FF0000503D0C3
:1008D000206C002610B107E0012070BD204600F01A
:1008E0001DF8666484F83C60206CC00610D4206C4F
:1008F00020F4885040F0020020642046FFF7A4FD59
:100900006664206C20F0020040F00100206400E0EA
:10091000012584F83C60284670BD000070B586B0A3
:10092000064614216846FFF70BFD1D4930688842D2
:1009300034D11C480025016841F4807101600068D1
:1009400000F48070059017481438016841F00101E7
:1009500001600068694600F001000590B320009036
:100960000320CDE90105104800F078FA104C0F483B
:10097000C4E900050015A560C4E9035040006061AA
:100980008000A0614011C4E907052046656200F0BF
:10099000B1F908B1FFF7BDFEB463A66306B070BD40
:1009A0000020014044380240000002401064024030
:1009B00048030020F8B50E4600210446009190F847
:1009C0003C00012807D0012084F83C00206883689F
:1009D000DB0702D011E00220F8BD836843F0010379
:1009E00083602D482D4B0068B0FBF3F000EB400016
:1009F00000E0401E00900028FBD120688368DB07E0
:100A000048D0236C40F20165AB4343F48073236408
:100A10004068400505D5206C20F4005040F480501B
:100A20002064206CC00404D5606C20F00600606473
:100A300000E0616484F83C10A16B1A48184DC8634B
:100A4000A16B19480864A16B1848C86421686FF04D
:100A5000220008602068416841F0806141602068A0
:100A6000816841F4807181602168134632464C31BF
:100A7000A06B00F0A9F96868C006206802D00C4994
:100A8000884207D1816811F0405F03D1816841F04D
:100A9000804181600020F8BD3C00002040420F00F2
:100AA00000230140B90300083D04000827040008A2
:100AB0000020014030B50223437103689C6844F074
:100AC00001049C60002304E0056851F823402C6079
:100AD0005B1C9342F8D30168096801224271084601
:100AE00030BD10B5040002D0607910B106E00120DD
:100AF00010BD00202071204600F004F80120607134
:100B0000002010BD08B500680649884208D1064893
:100B1000016841F480510160006800F48050009049
:100B200008BD0000003002403038024090F8351017
:100B3000022903D08021416501207047052180F8FA
:100B400035100068016821F0010101600020704744
:100B5000406D70472DE9F84304464FF00009CDF889
:100B6000009063484FF41651A56D0068B0FBF1F793
:100B70002E6894F85C10082000FA01F131420FD081
:100B800021680A6852070BD50A6822F004020A603D
:100B900094F85C108840A860606D40F001006065CA
:100BA00094F85C104FF0010808FA01F0304208D0C8
:100BB00021684969090604D5A860606D40F002000B
:100BC000606594F85C1004208840304208D02168A9
:100BD0000968890704D5A860606D40F0040060656D
:100BE00094F85C1010208840304218D021680968C1
:100BF000090714D5A86020680168490304D5006876
:100C0000000308D5A16C07E00168C90503D4016899
:100C100021F008010160216C09B12046884794F851
:100C20005C1020208840304231D021680968C90614
:100C30002DD5A86094F8350005282068016806D0F5
:100C4000490347D5006800031DD4616C1CE021F006
:100C5000160101602068416921F080014161206C2A
:100C600008B9A06C20B12068016821F0080101607A
:100C700094F85C103F208840A86084F8349084F891
:100C80003580216D1FE0E16B09B120468847606D1A
:100C900000282BD0606DC00714D0052084F83500E3
:100CA0002068016821F0010101600098401C00905B
:100CB000B84203D820680068C007F6D184F83490A1
:100CC00084F83580E16C002910D001B02046BDE8E1
:100CD000F04308470168C905D5D4016821F0100127
:100CE000016084F8349084F83580CCE7BDE8F8835F
:100CF0003C0000202DE9F041044600F085F906464D
:100D00005CB1002584F83450022084F83500206856
:100D1000016821F0010101600DE00120BDE8F081D2
:100D200000F072F9801B052805D92020606503209A
:100D300084F83500F2E720680068C007F0D1226827
:100D4000116820480140D4E901031843D4E903366F
:100D50003343184363691843A3691843E36918438D
:100D6000236A18430843616A042903D1D4E90B13A9
:100D700019430843106020684069666A20F0070143
:100D800030460E43012704280CD1A06A0643E06ACE
:100D900040B12046FFF77EFC20B14020606584F81A
:100DA0003570BAE7206846612046FFF75FFC94F88B
:100DB0005C203F2191408160656584F8357000209A
:100DC000ACE700003F8010F02DE9F0410446866D4D
:100DD00090F83400002501280DD0012084F834005B
:100DE00094F835700020012F07D084F834000225D4
:100DF0002846BDE8F0810220FBE7022784F8357021
:100E000060652046FFF770FC94F85C103F20884036
:100E1000B0602068016841F016010160206C20B1CB
:100E20002068016841F0080101602068016841F014
:100E300001010160DCE7000070B5044600F0E4F851
:100E40000546601C02D004480078044400F0DCF839
:100E5000401BA042FAD370BD300000202DE9F84FAE
:100E600000224FF0010803254FF00F0E0B6808FA1F
:100E700002F42340A34271D14E68012E05D0022E08
:100E800003D0112E01D0122E15D18668570005FA15
:100E900007FC26EA0C06D1F80CC00CFA07FC4CEA59
:100EA000060CC0F808C04668A6430C79C4F30014C9
:100EB000944034434460C668570005FA07FC8C68C8
:100EC00026EA0C06BC403443C4604C68022C01D0B6
:100ED000122C13D1D40800EB8404A346D4F820903C
:100EE00054074FEAD46A0EFA0AF629EA06090E698F
:100EF00006FA0AF646EA0906CBF8206004680E797D
:100F000024EA0C0406F00306BE40264306604C6843
:100F1000E40056D52E4C266846F4804626602468A8
:100F200022F0030604F4804400942A4C3444A4467E
:100F3000D4F808489607370F0EFA07F6B443264E42
:100F4000B04201D1002615E0244EB04201D1012665
:100F500010E0234EB04202D102260BE031E0214ED8
:100F6000B04201D1032605E01F4EB04201D1042654
:100F700000E00726BE402643CCF808681B4E3468C4
:100F80004F689C43FF0300D51C433460174E361D49
:100F900034684F689C43BF0300D51C433460134E34
:100FA000083634684F689C43FF0200D51C43346008
:100FB0000E4E0C3634684F689C43BF0200D51C436C
:100FC0003460521C102AFFF451AFBDE8F88F0000C6
:100FD000443802400030014000000240000402405A
:100FE00000080240000C024000100240003C01409A
:100FF000426931EA020200D10904816170470AB1F5
:10100000816170470904FBE7014880687047000070
:1010100030000020024881680278114481607047E6
:10102000300000200B4810B5016841F400710160E8
:10103000016841F480610160016841F480710160E0
:10104000032000F08DF8002000F006F800F03EF8D4
:10105000002010BD003C024010B5014688B00022BF
:10106000322000F05DF8322000F04CF813480024E4
:10107000016841F008010160006805A900F008005E
:101080000690684600F02AF900F048F90C49400043
:10109000B0FBF1F10C480B4A491E026040F2E73206
:1010A000C0E90324C0E9011401F022F810B10120C5
:1010B00008B010BD044801F055F8F9E74038024087
:1010C00040420F00000C0040E42900200C4882B090
:1010D000016841F480410160006800F480400090A4
:1010E0000748001F016841F080510160006800223C
:1010F00000F0805000900F21901E02B000F010B858
:1011000044380240002809DB00F01F020121914011
:101110004009800000F1E020C0F800117047000095
:10112000F0B40E4B1B680C46C3F30223C3F1070552
:10113000042D00D90425191D072901D2002300E040
:10114000DB1E012606FA05F1491E214099409E400A
:10115000761E16403143F0BC02F023BE0CED00E0D9
:10116000064900F0070208684FF6FF03184040EAFE
:101170000220034A10430860704700000CED00E0B5
:101180000000FA05BFF34F8F05480168054A01F4D6
:10119000E06111430160BFF34F8F00BFFDE7000026
:1011A0000CED00E00400FA052DE9F0470E460500BD
:1011B00065D0DFF81481D8F80000F7B200F00F0016
:1011C000B04207D288F80070D8F8000000F00F0095
:1011D000B04254D128683D4C810712D5400703D551
:1011E000206840F4E05020602878000703D520688C
:1011F00040F4604020602068A96820F0F0000843B7
:1012000020602878C0072DD0304968680839012847
:1012100012D0022813D0032811D0096889070029A9
:101220002DDA216821F0030101432160FFF7ECFE74
:10123000814641F2883A0EE009688903EFE70968C0
:101240008901ECE7FFF7E0FEA0EB0901514502D967
:101250000320BDE8F0872068696800F00C00B0EB5F
:10126000810FEFD1D8F80010404601F00F01B142D4
:1012700007D90770006800F00F00B04201D00120CC
:10128000E7E72878400705D52068E96820F4E050B2
:10129000084320602878000706D52068296920F4D3
:1012A000604040EAC100206000F058F82168084A18
:1012B000C1F30311515CC840064908600648006844
:1012C000FFF7CAFE0020C4E7003C02400838024095
:1012D0003C6A00083C000020340000200F2202601D
:1012E0000C4A136803F003034360136803F0F00330
:1012F0008360136803F4E053C36012684FF4E05353
:1013000003EAD20202610448006800F00F0008609E
:101310007047000008380240003C0240044805497C
:1013200000680968044AC1F38221515CC8407047D3
:101330003C000020083802404C6A00080448054977
:1013400000680968044AC1F34231515CC8407047E3
:101350003C000020083802404C6A0008154810B5CF
:10136000006810F00C02144813D04110042A0FD06A
:10137000082A0ED10F4C241F2268236802F03F0276
:101380005B0207D52068C0F38810A0FB010106E0CE
:10139000084610BD2168C1F38811A1FB000100239C
:1013A000FEF776FF2168C1F30141491C4900B0FBFB
:1013B000F1F010BD083802400024F4002DE9F84F88
:1013C000040076D02078DFF838A3CE4DC00749D08E
:1013D000DAF800105046C1F38101012908D00068F5
:1013E000C0F3810002280AD1281D0068400206D5FA
:1013F0002868800336D560680028E2D032E0606853
:10140000B0F5803F10D0B0F5A02F286810D020F4A0
:1014100080302860286820F4802028606068A0B1AF
:10142000FFF7F2FD06460CE0286840F48030F4E750
:1014300040F480202860F7E7FFF7E6FD801B642872
:1014400073D828688003F7D50CE0FFF7DDFD06466A
:1014500005E000BFFFF7D8FD801B6428F0D828689E
:101460008003F7D42078DFF8A08280074FF00009CE
:101470003ED5DAF80010504611F00C0F09D0006884
:10148000C0F3810002280BD19D48001F0068400274
:1014900006D42868800715D5E068012809D111E035
:1014A000E068B8B10120C8F80000FFF7ADFD0646BE
:1014B00005E020E1FFF7A8FD801B0228C0D82868BE
:1014C0008007F7D52868216920F0F80040EAC100BC
:1014D00028600DE0C8F80090FFF796FD064604E08E
:1014E000FFF792FD801B02281FD828688007F7D4D9
:1014F0002078000722D5824E844861696C3671B12C
:1015000001210160FFF780FD074604E0FFF77CFD45
:10151000C01B022809D830688007F7D50EE0C0F854
:101520000090FFF771FD074605E082E0FFF76CFDD4
:10153000C01B02287DD830688007F7D42078400788
:1015400068D5DFF8BCB100270BF1380BDBF80000E1
:10155000C0000BD4DBF8001041F08051CBF8001034
:10156000DBF80000012700F080500090684E3068E2
:10157000C00510D4306840F480703060FFF744FD3F
:10158000009005E0FFF740FD0099401A022850D86E
:101590003068C005F6D55A4EA068683601280FD0CD
:1015A0000528306810D020F001003060306820F04D
:1015B00004003060A068B8B1FFF726FD00900FE08E
:1015C000306840F00100F4E740F004003060F7E7D5
:1015D000FFF71AFD0099411A41F28830814266D81E
:1015E00030688007F4D50EE0FFF70EFD009007E0AD
:1015F000FFF70AFD0099411A41F28830814256D81E
:1016000030688007F4D42FB1DBF8001021F080514E
:10161000CBF80010A069D0B3DAF800205146C2F32D
:101620008102022A4AD00228484607D0C8F8600042
:1016300000E03CE0FFF7E8FC04463BE04746C8F822
:101640006000FFF7E1FC064605E000BFFFF7DCFCA9
:10165000801B02282BD828688001F7D4D4E9070121
:101660000843A16A2B4A490802EB0141626A41EA38
:101670008211084394F82C1040EA01612048001FB1
:10168000016001203866FFF7BFFC044605E034E046
:10169000FFF7BAFC001B022809D828688001F7D59B
:1016A0002BE000BFFFF7B0FC001B022802D903208B
:1016B000BDE8F88F28688001F4D41EE00128F7D037
:1016C0000868E26900F48001914214D1226A00F0B6
:1016D0003F0191420FD147F6C071626A01409142C9
:1016E00009D1A26A00F44031914204D1E16A00F0CC
:1016F0007060884201D00120DAE70020D8E70000BE
:10170000083802400038024000004742800E47423D
:10171000007000400000FFFF10B5FEF729FF10BD6C
:101720002DE9FE43044603200F4684F83400606C24
:1017300003285AD0B7F5805F57D04FF400660025D4
:101740004FF08068B7421CD10095019500212068B8
:1017500001F0D6F9800121D46946204601F0BEFD92
:1017600098BB0198400332D5B4F8500001042068BA
:1017700001F002FA48BB0221206822E0A06B284356
:1017800027E01FB1A06B40F0006022E000950195BA
:101790000021206801F0B4F9800101D53546EDE75C
:1017A0006946204601F09AFD78B90198C0030ED52C
:1017B000B4F850000104206801F0DEF928B90021D6
:1017C000206801F026FA0028D8D00546D6E745461D
:1017D000D4E7A063A06B012558B121680C48886349
:1017E00084F834500120BDE8FE83A06B40F08050A7
:1017F000EFE7211DD4E905060EC90097CDE90106E2
:10180000206801F087F984F834500020EBE70000ED
:10181000FF05400070470000F0B5426E920F0A705D
:10182000426EC2F383624A70426EC2F301628A70F2
:10183000426E120CCA70B0F86420120A0A7190F855
:1018400064204A71826E120DCA80826EC2F3034216
:101850000A72B0F86820C2F3C0324A72B0F8682049
:10186000C2F380328A72B0F86820C2F34032CA7282
:10187000B0F86820C2F300320A7300264E73426C3F
:101880004FF40075012462B1012A3AD00268474939
:101890009163816B41F08051816380F83440012075
:1018A000F0BDB0F86820C36E9205120D42EA937243
:1018B0000A61C26EC2F3C2620A75C26EC2F30262EC
:1018C0004A75C26EC2F342528A75C26EC2F3824238
:1018D000CA75C26EC2F3C2320A760A69521C4265E8
:1018E0000B7E03F007039B1C9A4042650B7A03F0C2
:1018F0000F0704FA07F383655B0A5A43C0E917250B
:101900000EE090F86820C36E9206920A42EA1342F3
:101910000A610A69521C92024265C0E916520566C4
:1019200030F86C2FC2F3803201F8192F0288C2F30D
:10193000C6124A70027802F07F028A704268D20FA3
:10194000CA704268C2F341720A714268C2F382628D
:101950004A714268C2F383528A714268C2F34052AC
:10196000CA710E724268C2F300424A728288C2F3A0
:10197000C0328A728288C2F38032CA728288C2F30D
:1019800040320A738288C2F300324A738288C2F3FB
:1019900081228A738288C2F30122CA730079C0F35C
:1019A000460008744C740020F0BD0000FF054000A4
:1019B000426C0A60826C4A60C26C8A60026DCA60C6
:1019C000426D0A61826D4A61C26D8A61006EC861B2
:1019D0000020704770B50446B0F85000002501049F
:1019E000206801F020FA18B1A16B0143A16304E063
:1019F0000021206801F084F80546C5F3432070BD3E
:101A0000F8B5056B04460068416B09041BD529072E
:101A100019D5D4E90A56002E14D00027206801F009
:101A200093F805F8010B010A05F8011B010C05F8F4
:101A3000021B000E361F7F1C05F8010C082FEDD38A
:101A4000C4E90A56F8BD416B4FF00006C9054FF0D6
:101A5000010744D5390281632068C16B4CF23A32E8
:101A60009143C1632068C16A21F00101C162280766
:101A70001DD515F0220F09D0206801F005FA28B114
:101A8000A16B0143A1632046FFF7C4FE216840F229
:101A90003A50886384F834702663A80703D0204640
:101AA00000F044FAF8BD204600F044FAF8BD2806DC
:101AB000FCD5A80609D5206801F0E6F928B1A16B8C
:101AC0000143A1632046FFF7A5FEA807EED12068D9
:101AD000C16A21F00801C16284F83470E3E7416B08
:101AE000490424D5290722D5D4E90856002EDDD093
:101AF0005FF0000715F8010B009015F8011B361F69
:101B000040EA0120009015F8021B40EA01400090D5
:101B100015F8011C40EA016000906946206801F058
:101B200026F87F1C082FE5D3C4E90856F8BD416BA1
:101B300040F23A221142F9D0416B890703D5A16BDB
:101B400041F00201A163416B090703D5A16B41F08C
:101B50000801A163416B890603D5A16B41F0200107
:101B6000A163416BC90603D5A16B41F01001A163CC
:101B7000416B890503D5A16B41F00801A16340F2D7
:101B80003A7181632068C16B40F23A329143C1637C
:101B9000206801F079F9A16B0843A063280706D5F6
:101BA00084F8347026632046FFF734FEF8BD28061B
:101BB000FCD515F0300F0CD0E16B11480865E06BD7
:101BC000FEF7B4FF0028F1D0E06BBDE8F84001F06B
:101BD00063BBA8070CD0216C0A480865206CFEF78F
:101BE000A5FF0028E2D0206CBDE8F84001F02BBB37
:101BF000A66384F8347026632046FFF78DFDF8BD98
:101C0000993200084732000870B504000ED094F8ED
:101C10003400002518B92577204600F03BF8032052
:101C200084F83400204600F00BF808B1012070BDA4
:101C3000A5632563012084F83400002070BD0000F6
:101C4000FEB50025044676200095CDE901502946D1
:101C50000B460A46206800F05DFF08B10120FEBD7A
:101C60000B4E46F8A05F206800F066FF0125356046
:101C7000204601F015FC20B9204601F099FB002810
:101C8000EDD084F83450A16B0143A163E6E7000076
:101C9000008025422DE9F04F87B0054614216846A3
:101CA000FEF74EFB4E49286888427DD14D480068BA
:101CB0004C4940F400600860086800F4006005903A
:101CC000484814380068474940F00100143908605A
:101CD000086800F001000590086840F00200086004
:101CE0000868012700F0020005904FF45070009042
:101CF0000220CDE9010703260C24CDE903646946DF
:101D00003948FFF7ABF8F80300900220019000205B
:101D1000CDE90206DFF8D480694604944046FFF717
:101D20009DF8302000900220CDE90107CDE9036441
:101D300069464046FFF792F82E4C2D484FF0006858
:101D4000C4E90008002004F10C014FF480694FF44D
:101D5000805AA06081E80106B803A0612020E061FC
:101D6000002020624FF0040BC4E909B6FE05B7104D
:101D70002046C4E90B67FEF7BDFF08B1FEF7C9FCBA
:101D80002C64A5631A481C4C48304FF48041C4E9C8
:101D900000084020A060C4E905A10020C4E90309AF
:101DA0002021C4F824B000E016E0C4E9071004F1D3
:101DB0002801032081E8C1002046FEF79BFF08B1FF
:101DC000FEF7A7FCEC63002205213120A563FFF795
:101DD000A7F93120FFF796F907B0BDE8F08F0000B2
:101DE000002C014044380240000002400004024040
:101DF00058640240A8030020080400202DE9F047A1
:101E000086B01F460446154639B194F834000128BF
:101E100007D0022006B0BDE8F087A06B40F000605C
:101E200008E00020A063E36DEA199A4204D9A06B90
:101E300040F00070A0636FE0032284F83420226831
:101E40008246D0622268D36B40F22A363343D36392
:101E5000236C324A4FEA4729DA63236C304ADA644A
:101E6000226C4FEA9903106520680A46266C00F13F
:101E700080013046FEF7A8FFDFF8A880012660B198
:101E80002068C16B21F49571C1632168C1F8388065
:101E9000A06B40F08040A06311E023480660606CB6
:101EA000012800D06D024FF40071206800F098FE08
:101EB00040B12268C2F83880A16B0143A16384F865
:101EC000346029E04FF0FF30CDE900099020029006
:101ED00002200596CDE9030AD1466946206800F044
:101EE000F9FD012F06D9822020632946206800F0E1
:101EF0000BFF05E0812020632946206800F01DFFCC
:101F0000002887D02268C2F83880A16B0143A16302
:101F100084F83460C4F8309001207BE70532000873
:101F2000A1310008FF0540008C85254210B5FEF761
:101F30005BFB10BD10B5FEF76FFB10BD2DE9FF4F29
:101F400087B0044608981F46164638B194F8340006
:101F5000012807D002200BB0BDE8F08FA06B40F045
:101F6000006008E00025A563E16DF019884204D9FE
:101F7000A06B40F00070A06361E0032084F834009F
:101F80002068C5622068C16B40F21A2A41EA0A0142
:101F9000C163E16B3248C863E16B3248C864E06BEF
:101FA0000565606C012800D076024FF4007120684E
:101FB00000F016FEDFF8B0904FF0010840B1226843
:101FC000C2F83890A16B0143A16384F8348036E0F5
:101FD0004FF0900B012F06D9A020206331462068D6
:101FE00000F06CFF05E0C4F830B03146206800F026
:101FF0007EFF40B12268C2F83890A16B0143A16313
:1020000084F834801AE019484646C0F800802268F7
:102010007F02BB08E06B80320899FEF7D5FE80B1E5
:102020002068C16B21EA0A01C1632168C1F83890B8
:10203000A06B40F08040A06384F8346025630120E9
:1020400089E74FF0FF30CDE90007CDE902B5CDE9D2
:1020500004566946206800F03DFD00207BE7000043
:102060008B320008A1310008FF0540008C85254215
:102070007047704770B590F83C20012A2CD001249D
:1020800080F83C40022280F83D2003685A689D6831
:1020900022F070060A6832435A60104B02689A4276
:1020A0000ED0B2F1804F0BD00D4B9A4208D00D4BA1
:1020B0009A4205D00C4B9A4202D00C4B9A4204D162
:1020C000496825F080031943916080F83D40002164
:1020D00080F83C10084670BD022070BD0000014031
:1020E0000004004000080040000C00400040014097
:1020F00010B5040003D094F83D0010B107E00120B2
:1021000010BD002084F83C00204600F00DF80220AD
:1021100084F83D00211D206801F042FC012084F874
:102120003D00002010BD000008B500680B49884242
:1021300012D10B48016841F00401016000680022DF
:1021400000F00400009005211E20FEF7E9FFBDE825
:1021500008401E20FEF7D6BF08BD00000008004062
:10216000403802400168CA6842F00102CA60006853
:10217000816801F00701062903D0016841F00101DF
:1021800001600020704770B5044690F83C000128BB
:1021900017D0012584F83C50022084F83D002068C7
:1021A000826822F0770222F47F4282600868502819
:1021B00030D00DDC20284DD005DC98B310283BD161
:1021C00048E0022070BD302844D0402834D139E0A6
:1021D000602828D0702806D0B0F5805F2CD0B0F5EC
:1021E000005F29D10AE0CB68D1E90121206801F024
:1021F00023FC2068816841F0770109E0CB68D1E9D0
:102200000121206801F018FC2068816841F48041B8
:10221000816011E0CA684968206801F01FFC502104
:10222000206807E016E0CA684968206801F027FCCA
:102230006021206801F00AFC84F83D50002084F8F9
:102240003C0070BDCA684968206801F007FC402165
:102250002068EFE7226801461046EBE7704770B54B
:102260000446006801694FF00005C943890715D489
:10227000C168C943890711D4E91E01610120207793
:10228000206880698007204602D0FFF7E7FF04E05E
:1022900000F098F8204600F096F82577206801694C
:1022A000C943490717D4C168C943490713D46FF01C
:1022B00004010161022020772068806910F4407FCA
:1022C000204602D0FFF7CAFF04E000F07BF820466A
:1022D00000F079F8257720680169C943090716D409
:1022E000C168C943090712D46FF0080101610420D5
:1022F00020772068C0698007204602D0FFF7AEFF34
:1023000004E000F05FF8204600F05DF825772068D3
:102310000169C943C90617D4C168C943C90613D4A2
:102320006FF010010161082020772068C06910F467
:10233000407F204602D0FFF791FF04E000F042F812
:10234000204600F040F8257720680169C943C90795
:1023500008D1C168C943C90704D1891E016120465B
:1023600000F032F820680169C943090609D4C16840
:10237000C943090605D46FF0800101612046FFF7CB
:1023800077FE20680169C943490609D4C168C94379
:10239000490605D46FF040010161204600F058F86D
:1023A00020680169C94389060BD4C168C9438906FD
:1023B00007D46FF0200101612046BDE87040FFF7AF
:1023C00058BE70BD7047704770B5044600681C4920
:1023D000884201D1FEF71EFE1A49206888422ED19C
:1023E000194CA089401C81B2A181E089401C80B2B7
:1023F000E081228A521C22820A22B1FBF2F302FB04
:102400001311002511B90121E170A5816421B0FBF0
:10241000F1F201FB120038B9E581A07820B94FF440
:1024200080410A48FEF7E4FD208A44F62061B0FBB3
:10243000F1F201FB1200002801D1A570258270BDC8
:10244000000C004000080040000000200004024092
:102450007047704770B5026804461068D1685369C8
:1024600010F00F0F52D003F0010501F490762E43C7
:102470005FD0C20705D0CA0503D5E26B42F0010266
:10248000E263420705D5DA0703D0E26B42F00202AD
:10249000E263820705D5DA0703D0E26B42F004025B
:1024A000E263020707D501F020022A4303D0E26B62
:1024B00042F00802E263E26B002A33D0800604D5C2
:1024C000880602D5204601F053FB20684069E16B85
:1024D000C0F38010090700D428B3204601F031FB77
:1024E0002068416949061AD5416921F040014161DE
:1024F000606BA0B11B490165606BFEF717FB0028FC
:1025000010D0606B016DBDE870400847830610D5A0
:102510008B060ED52046BDE8704001F029BB204651
:10252000FFF797FF70BD2046FFF793FF0020E063A1
:1025300070BD030606D50B0604D52046BDE87040E5
:1025400001F0F6BB4006F3D54806F1D5D168204628
:1025500021F04001D160202184F8391000F0C8F941
:1025600070BD0000A33A000870B5040004D094F8D0
:102570003900002510B106E0012070BD84F8385004
:10258000204600F023F8242084F839002068C16830
:1025900021F40051C160204601F036FB206801693A
:1025A00021F4904101612068416921F02A014161D3
:1025B0002068C16841F40051C160E563202084F8BF
:1025C000390084F83A00002070BD00002DE9F04F7A
:1025D00087B0064614216846FDF7B2FE5148DFF881
:1025E0004081D6F800C000254E491438022201234C
:1025F00003244D4F4FF007094FF0006A4FF4806BF2
:10260000C4453AD1D1F800C04CF0100CC1F800C05C
:10261000096801F010010591016841F001010160B4
:102620000068694600F0010005904FF404408DE811
:102630001D023846FEF712FC3D4C3C48E4E8020A15
:102640004020A4E82108800044F81459C4E9065049
:10265000256237486562FEF74DFB08B1FEF759F871
:102660003463002205212520A663FEF759FD2520AD
:10267000FEF748FD07B0BDE8F08FDFF8B880C4452D
:1026800030D12849091FD1F800C04CF4003CC1F8F2
:1026900000C0096801F400310591016841F00101B1
:1026A00001600068694600F0010005900C208DE88B
:1026B0001D023846FEF7D2FB204C1F482060C4E9BB
:1026C00001A5C4E9035B80156561C4E90650256274
:1026D00020466562FEF70EFB08B1FEF71AF8746338
:1026E000A663C7E7164DAC45C4D10D6845F020057B
:1026F0000D60096801F020010591016841F00101B8
:1027000001600068694600F0010005904FF4C05078
:102710008DE81D00082004903846FEF79FFBA9E7CE
:10272000001001404438024000000240B8640240FA
:10273000680400200044004088600240C804002073
:1027400000140140F8B5044690F83A0020283CD126
:10275000C1B3BAB394F83800012836D0012084F808
:102760003800A162A2850025E563222084F83A00A2
:10277000636B1748D863636B16481864636B16481D
:10278000D864606B134605650846666B216802468F
:102790003046091DFEF718FB20680168416800916A
:1027A00084F83850C16841F48071C1602068416983
:1027B00041F0010141612068416941F040014161FE
:1027C0000020F8BDFFE70120FBE70220F9E7000049
:1027D000FD3A0008393B0008B33A00082DE9F04102
:1027E00000682F49884258D12E491822A1F13000A3
:1027F000FDF77FFD4FF480512B48FEF7F9FB2B4E80
:102800002848182500277478303824E06319591EA9
:1028100091FBF5F205FB12119B1E01F0FF0C93FBDF
:10282000F5F8611CB1FBF5F205FB183305FB12123C
:1028300010F80480D2B2DBB2B8F1FF0F0AD1825C8B
:10284000FF2A07D1C25CFF2A04D110F80C20804671
:10285000FE2A09D0CCB2AC42D8D37770BDE8F041A3
:1028600018211048FDF76CBD7470012030700D48C0
:1028700018211838FDF764FD0A4B00204146183B2B
:10288000221892FBF5FC05FB1C22D2B28A5C1A547A
:10289000401CA842F4DB3770E0E7BDE8F08100009F
:1028A00000440040D8000020000402400000002046
:1028B000704790F83930202B18D1A9B1A2B190F807
:1028C0003830012B12D001628284C2840021C1639E
:1028D000212280F8392080F838100068C16841F062
:1028E0008001C160002070470120704702207047BE
:1028F0007047FEE77FB500252048009501950295B9
:102900001D49039501604FF48031416001240902A3
:1029100004618160047680F820501949C0E90A15E5
:102920000526C661C56080F830404461FDF7CBFFE5
:10293000CDE90054694611480296FDF70FFF0220C9
:10294000CDE9004069460D48FDF708FF0424032047
:10295000CDE9004069460948FDF700FFCDE9006474
:1029600069460648FDF7FAFE0720CDE900066946EC
:102970000248FDF7F3FE7FBD002001405801002012
:102980000100000F1D4808B5016841F48001016095
:10299000016801F480010091016841F400110160B7
:1029A0000068002200F40010009005211020FEF7BE
:1029B000B7FB1020FEF7A6FB002205213820FEF70A
:1029C000AFFB3820FEF79EFB002205213B20FEF7DF
:1029D000A7FB3B20FEF796FB002205214520FEF7D2
:1029E0009FFB4520FEF78EFB002205214620FEF7C7
:1029F00097FBBDE808404620FEF784BB3038024014
:102A000010B504490448FDF785FE0249491E0870C7
:102A100010BD000029000020106A000870B586B0C3
:102A200014216846FDF78CFC12480024016841F02F
:102A300001010160016801F001010591016841F0A7
:102A40000201016000680C4E00F002004FF4E04506
:102A50000590224629463046FEF7D1FA012000951E
:102A6000CDE90104694630460394FEF7F7F906B054
:102A700070BD0000303802400004024010B586B03E
:102A800000241248009401940294039404940E4983
:102A90000594016040F2E731C0E901146321C0E907
:102AA00003148461FFF724FB4FF4805000906946C3
:102AB0000648FFF768FB2020CDE9040404A9034879
:102AC000FFF7D8FA06B010BD00080040240200202D
:102AD000FEE770470A6842624A688262D1E90223CF
:102AE0001A43D1E904310B43C16A1A4321F0F701BB
:102AF0001143C16200207047006800F00300704776
:102B000008444069704700000148FEF779BF0000A3
:102B1000A001002070B50DF1100C11439CE870006D
:102B20002343194329434268314347F6FF639A43DD
:102B30000A434260002070BD10B5032101600220ED
:102B4000FEF77AF9002010BDD0F8800070470A68BF
:102B50008260D1E901231A43D1E903310B43C168F3
:102B60001A436FF30B011143C160002070470968DD
:102B7000C0F880100020704710B586B0044637209A
:102B8000CDE9001040200290002003904FF48060B7
:102B9000049069462046FFF7DAFF41F28832372178
:102BA000204600F0BDF906B010BD000010B5044687
:102BB0000A4886B001432920CDE900104020029048
:102BC000002003904FF48060049069462046FFF790
:102BD000BEFF204600F05CFA06B010BD0000108079
:102BE00010B586B004461020CDE9001040200290B8
:102BF000002003904FF48060049069462046FFF760
:102C0000A6FF41F288321021204600F089F906B073
:102C100010BD10B586B004460620CDE90010402056
:102C20000290002003904FF4806004906946204693
:102C3000FFF78DFF41F288320621204600F070F93F
:102C400006B010BD30B585B000240546009401944F
:102C50004FF480600294CDE9034069462846FFF7AF
:102C600076FF0B484FF4FA510068B0FBF1F041F2E7
:102C700088314843401E03D24FF0004005B030BDBC
:102C8000696B0906F6D5C520A8632046F6E7000063
:102C90003C00002070B585B004464FF4D57000901C
:102CA00001A908204025002681E86100C0010490A8
:102CB00069462046FFF74BFF12484FF4FA5100686F
:102CC000B0FBF1F041F288314843401E03D24FF08F
:102CD000004005B070BD616B11F0450FF5D00905DE
:102CE000F3D4606B400701D5042003E0606BC0079C
:102CF00002D00120A063ECE7606B400600D5A5631D
:102D00003046E6E73C00002010B586B004461220AD
:102D1000CDE9001040200290002003904FF4806025
:102D2000049069462046FFF712FF41F288321221D3
:102D3000204600F0F5F806B010BD10B586B0044688
:102D40001120CDE9001040200290002003904FF4A4
:102D50008060049069462046FFF7F9FE41F2883210
:102D60001121204600F0DCF806B010BD10B586B089
:102D700004460720CDE90020402002900020039067
:102D80004FF48060049069462046FFF7E0FE41F270
:102D900088320721204600F0C3F806B010BD10B5F8
:102DA00086B0044600210220CDE90010C020CDE904
:102DB00002014FF48060049069462046FFF7C7FE89
:102DC000204600F03DF906B010BD10B586B00446AF
:102DD0000920CDE90010C0200290002003904FF49C
:102DE0008060049069462046FFF7B1FE204600F05F
:102DF00027F906B010BD10B586B004460021332077
:102E0000CDE900104020CDE902010001049069469F
:102E10002046FFF79CFE41F288323321204600F025
:102E20007FF806B010BD10B586B004460D20CDE980
:102E3000001040200290002003904FF48060049026
:102E400069462046FFF783FE41F288320D21204675
:102E500000F066F806B010BD30B585B00C460546EA
:102E600000210320CDE900104020CDE9020100013E
:102E7000049069462846FFF76AFE22460321284649
:102E800000F028F905B030BD10B586B00446002129
:102E90000C20CDE900104020CDE902010001049092
:102EA00069462046FFF753FE034A0C21204600F0F6
:102EB00037F806B010BD000000E1F50510B586B08A
:102EC00004461920CDE90010402002900020039014
:102ED0004FF48060049069462046FFF738FE41F2C7
:102EE00088321921204600F01BF806B010BD10B53D
:102EF00086B004461820CDE9001040200290002042
:102F000003904FF48060049069462046FFF71FFE4F
:102F100041F288321821204600F002F806B010BDB8
:102F2000454B10B51B684FF4FA54B3FBF4F353430D
:102F30005B1E02D24FF0004010BD426B12F0450FF5
:102F4000F6D01205F4D4426B520703D504218163F5
:102F5000084610BD426BD20702D00121816305E013
:102F6000C52282630269D2B28A4201D0012010BD1B
:102F70000021FFF7C5FD3149084201D1002010BDF5
:102F8000002802DA4FF0007010BD410001D540204A
:102F900010BD810001D5802010BDC10002D54FF4C5
:102FA000807010BD010102D54FF4007010BD4101C9
:102FB00002D54FF4806010BDC10102D54FF400600E
:102FC00010BD010202D54FF4805010BD410202D560
:102FD0004FF4005010BD810202D54FF4804010BD67
:102FE000C10202D54FF4004010BD410302D54FF499
:102FF000003010BD810302D54FF4802010BDC10305
:1030000002D54FF4002010BD010402D54FF480100A
:1030100010BD410402D54FF4001010BD810402D54B
:103020004FF4800010BD000702D54FF4000010BD22
:103030004FF4803010BD00003C00002008E0FFFD90
:1030400012494FF4FA520968B1FBF2F141F28832A9
:103050005143491E02D24FF000407047426B12F0BC
:10306000450FF6D01205F4D4416B490703D504216E
:10307000816308467047416BC90703D00121816312
:1030800008467047C5218163002070473C0000203E
:103090000F494FF4FA520968B1FBF2F141F288325C
:1030A0005143491E02D24FF000407047426B12F06C
:1030B000450FF6D01205F4D4416B490703D504211E
:1030C000816308467047C521816300207047000076
:1030D0003C00002030B5204B4FF4FA541B68B3FB82
:1030E000F4F341F2883463435B1E02D24FF0004098
:1030F00030BD446B14F0450FF6D02405F4D4436B77
:103100005B0703D504218163084630BD436BDB07B1
:1031100002D00121816303E00369DBB28B4201D05D
:10312000012030BDC52181630021FFF7E9FC10F4C7
:10313000604F04D0410406D54FF4005030BD000C60
:103140001080002030BD000402D54FF4805030BD07
:103150004FF4803030BD00003C00002010B5064C1C
:1031600001202070FDF70CFA18B9207820F001003A
:103170002070207810BD00002000002070B50546AA
:1031800001F043FE044603E0FDF7FAF9002806D0FB
:1031900001F03BFE001BA842F6D34FF0FF3070BD9C
:1031A00010B5846BFDF7D4FC022828D0206C416D4B
:1031B000E06B406D012901D001281DD12168104824
:1031C00088632068C16B21F49D71C163A06B40F0DE
:1031D0008040A0632046FEF7FDFB062801D00528AD
:1031E00005D12068FFF750FEA16B0843A0630120C2
:1031F00084F83400002020632046FEF70BFB10BD4E
:10320000FF05400010B5846B206B822809D120682F
:10321000FFF73AFE28B1A16B0143A1632046FEF7F8
:10322000F9FA2068C16A21F00801C162216840F200
:103230003A508863012084F834000020206320463F
:10324000FEF774FE10BD10B5846B40F23A50216851
:1032500088632046FEF7BEFB012184F8341000216C
:103260002163062801D0052805D12068FFF70CFE50
:10327000A16B0843A063A06B0028204602D0FEF794
:10328000C9FA10BDFEF748FA10BD806B0068C16B2B
:1032900041F48071C163704710B5846B40F23A50BD
:1032A000216888632046FEF795FB012184F83410DD
:1032B00000212163062801D0052805D12068FFF7E9
:1032C000E3FDA16B0843A063A06B0028204602D059
:1032D000FEF7A0FA10BDFEF71FFA10BD2DE9F04F62
:1032E00089B00D460446FDF78FFE00268346009602
:1032F0000196374608212068FFF772FC002834D178
:10330000B4F8500001042068FFF736FC00282CD1E7
:10331000401E4FF00808CDE9020830204FF00209A6
:10332000CDE904090120CDE9067002A92068FFF764
:10333000D1FB2068FFF75FFD002816D1EA4640F276
:103340002A472068416B394212D1416B890204D56A
:10335000FFF7FAFB4AF82600761CFDF755FEA0EBB6
:103360000B00401CEDD14FF0004009B0BDE8F08FDC
:10337000416B090703D5C0F838800820F5E7416B99
:10338000890703D5C0F838900220EEE7416B890623
:1033900003D5202181630846E7E740F23A51816373
:1033A000019800BA2860009800BA68600020DCE745
:1033B00010B590B004460120ADF838002068FFF742
:1033C0009BFB002854D0606C032842D02068FFF794
:1033D000E6FC00284AD100212068FFF791FB6067D6
:1033E00004212068FFF78CFBA06708212068FFF705
:1033F00087FBE0670C212068FFF782FBC4F88000A0
:10340000606C032825D00EA92068FFF725FD002851
:103410002CD1606C03281CD0BDF838002065010455
:103420002068FFF7D2FC002820D100212068FFF798
:1034300067FB606604212068FFF762FBA066082135
:103440002068FFF75DFBE0660C212068FFF758FB62
:10345000206704212068FFF753FB000DE06403A9F7
:103460002046FEF7D9F930B14FF0805010B010BDB2
:103470004FF08060FAE7B4F850000023020420689F
:10348000FFF774FC0028F1D104F1100007C88DE8A3
:10349000070094E80F00FFF73DFB0020E6E700007F
:1034A0002DE9F84F0026044600963546B0460068E0
:1034B000FFF7C8FB002827D12068FFF7EBFB4FF090
:1034C000805B4FF001094FF6FF7748B1A664206892
:1034D000FFF7B8FB002817D1A06C012802D020E02C
:1034E000C4F8489000212068FFF746FB58B918E05F
:1034F00000212068FFF740FB002805D151462068D5
:10350000FFF754FB10B15846BDE8F88F0021206842
:10351000FFF7F6FA05464FEAD0780098401C009075
:1035200002E0DFF82CA00098B84202D2B8F1000FF8
:10353000DED00098B84202D34FF08070E4E7680014
:1035400002D5C4F8449000E066640020DCE7000087
:10355000000010C17FB50F4C05460120207001F01E
:1035600046FCA0B1FDF718F818B92846FFF7F6FD9C
:103570002070207801280AD0606840B9064B0FCB34
:103580008DE80F000021684601F04BFC6060207858
:1035900004B070BD20000020246A000810B5124855
:1035A00088B014460078C00702D0032008B010BDD0
:1035B000C1B1012905D0022908D003290CD004206B
:1035C000F4E76846FCF7D6FF06980AE06846FCF781
:1035D000D1FF0798208005E06846FCF7CBFF0798ED
:1035E000400A20600020E1E7200000202DE9FE4F86
:1035F00047F23059984617468A4601254846FFF754
:10360000BDFD00283BDB1F4E5FEA8A7003D0CB462E
:103610000024B1462DE0424639465046FCF7D6FF1D
:1036200068BB4A466846716801F00EFCDDE900019E
:10363000102824D1012921D021E039467F1C012204
:103640001148FCF7C3FF060015D15A466846D9F861
:10365000041001F0F9FBDDE90010102908D1012860
:1036600006D1420208495046FCF743FE0AF5007AAB
:10367000641C4445E1D3444501D106B900252846E0
:10368000BDE8FE8F2000002028050020FFF766BD62
:103690002DE9FE4F47F23056984617468A460125D7
:1036A0003046FFF76BFD002848DBDFF898905FEAB3
:1036B0008A7002D00024B3463AE04246394650466A
:1036C000FCF79CFFD0BB32466846D9F8041001F0E5
:1036D000BBFBDDE90010102930D102282ED101F00A
:1036E00094FB841903E000BFFCF74AFF28B301F004
:1036F0008CFBA042F8D321E039467F1C01221248FE
:10370000FCF77CFF060015D15A466846D9F804102C
:1037100001F09AFBDDE90001102808D1022906D149
:10372000420109495046FCF7E4FD0AF5007A641CA1
:103730004445E1D3444501D106B900252846BDE8FA
:10374000FE8F0000200000202805002086B0FFF733
:1037500057F901225049514800F098FE684600F0A0
:10376000E9FD0A224EA1514800F0CEFE504C4FF424
:1037700080550028294620467ED0FDF739FC4FF4BD
:10378000FA6000BF01F02CFB29462046FDF730FC13
:10379000DFF82081484C08F50775FF27A5F50D795E
:1037A0004FF0000A20791E2801D9FDF7EBFC2221F9
:1037B0004248FCF7C5FD2F706F700020424641065D
:1037C0000B0E32F810102B440E0A9E70401CD9705C
:1037D0000528F4DB20780028E4D13649182248393E
:1037E00001F13000FCF785FD324820210C30FCF758
:1037F000A7FD30484E461222B11C0C30FCF779FD73
:10380000707D317D052240EA0120608129492A48E6
:103810000C311830FDF74EF980B220816189884261
:1038200036D126481222B11C0C30FCF762FD21482B
:1038300085F81EA0564685F81FA020212C30FCF7E5
:103840007FFD1C481C22A91C2C30FCF752FD194995
:10385000194807222C311830FDF72CF9E080010AB5
:10386000A977E87785F82070FE2085F82100E078B8
:1038700000B1E670222200E005E01049A1F1C0008D
:10388000FFF717F88EE7FDF7B3FB4FF4FA7079E70F
:103890002079401C207185E729000020280700209E
:1038A000746573742E747874000000006017002033
:1038B0000004024008010020000000202403002032
:1038C00010B5502080F31188BFF34F8FBFF36F8F77
:1038D00002F0FAFE18B104494FF080500860002051
:1038E00080F3118810BD000004ED00E030B593B006
:1038F00030216846FCF724FD14210CA8FCF720FDBC
:1039000018480025016841F080510160006800F00E
:10391000805011901448016841F4404101600068F2
:10392000022400F4404011900120039010200490E4
:10393000009406940820CDE907506420CDE90904DD
:1039400005200B906846FDF739FD0CA90F2081E892
:103950003100E002CDE90F0503210CA8FDF724FC9E
:1039600013B030BD40380240007000400548016887
:1039700041F47001016003494FF000608039086034
:103980007047000088ED00E00148FEF768BC0000C9
:10399000240200200148FEF762BC0000E429002058
:1039A000F0B502681D4B1E4C9F031E4D1E4E9842E3
:1039B00007D0B84205D0A04203D0A84201D0B042FF
:1039C00004D122F0700C4A6842EA0C02984210D0EE
:1039D000B8420ED0A0420CD0A8420AD0B04208D0C3
:1039E000124CA04205D0124CA04202D0114CA04271
:1039F00003D122F44074CA6822434C6922F0800249
:103A0000224302608A68C2620A688262984201D1D7
:103A10000969016301214161F0BD0000000001401E
:103A20000004004000080040000C0040004001403D
:103A3000004401400048014010B5846842EA032276
:103A400024F47F440A432243826010BD826822F03E
:103A500070020A4342F007018160704710B5036AA3
:103A6000046A24F001040462846924F0F00444EA46
:103A7000021423F00A020A438461026210BD10B5E9
:103A8000036A23F0100303628369046A23F470431A
:103A900043EA023224F0A00343EA01118261016289
:103AA00010BD10B5806B0021C185C184FEF7D1FC2B
:103AB00010BD70B5846B2068406994F83910C0F36C
:103AC000C0100025212904D118B1E584204600F05A
:103AD00046F82068406994F83A10C0F38010222913
:103AE00004D118B1E585204600F02BF8E06B40F0DA
:103AF0001000E0632046FEF7ACFC70BD10B5014637
:103B0000806B09680968C90513D40021C185016863
:103B1000CA6822F48072CA6001684A6922F0010210
:103B20004A6101684A6922F040024A61202180F816
:103B30003A10FEF753FE10BD10B5806BFEF7B8FECD
:103B400010BD0168CA6822F49072CA6001684A69AF
:103B500022F001024A61202180F83A107047016882
:103B6000CA6822F0C002CA60202180F8391070476C
:103B700010B590F83A10222901D0022010BD8168BA
:103B8000B1F5805F11D00169002901681FD0496833
:103B900001F07F03816A4A1C82620B70C18D491E4D
:103BA0000904090CC18518D02BE00269816A002A3A
:103BB0000268526805D0D2B20A80816A491C8162CB
:103BC000ECE7C2F308020A80816A891CF7E74A68B9
:103BD000816A4B1C83620A70E0E70168CA6822F0C0
:103BE0002002CA600168CA6822F48072CA60016853
:103BF0004A6922F001024A61202180F83A10FEF75A
:103C0000EDFD002010BD00002DE9F04104460068E4
:103C10000169E26821F44051114301612169A06802
:103C2000E26908436169114308432168CA6849F29F
:103C30000C639A430243CA6020684169A26921F477
:103C4000407111434161E069192764253226B0F5BE
:103C5000004F354A354920684FF0000806D08842A9
:103C600001D0904236D1FDF769FB35E0884201D0A2
:103C7000904202D1FDF762FB01E0FDF74FFB616866
:103C80004A18A0FB070148EB0803FCF701FB0146BB
:103C9000B0FBF5F00201B1FBF5F06FF018035843EB
:103CA00001EB800006EBC000B0FBF5F000F0F8007F
:103CB00002EB4002B1FBF5F0584301EB800006EB4C
:103CC000C000B0FBF5F000F00700216810448860E8
:103CD000BDE8F081FDF722FB61688B0F8A00A0FB35
:103CE0000701FCF7D5FA0146B0FBF5F06FF01802BA
:103CF000504301EB800006EB0010B0FBF5F000F044
:103D0000F002B1FBF5F002EB0012B1FBF5F06FF041
:103D10001803584301EB800006EB0010B0FBF5F0F0
:103D200000F00F00D1E70000001401400010014036
:103D300090F83910212901D0022070478168B1F52F
:103D4000805F016A0BD04A1C0262026809785160E8
:103D5000C18C491E0904090CC1840ED017E00988E2
:103D60000268C1F30801516001690029016A02D0AB
:103D7000491C0162ECE7891CFBE70168CA6822F074
:103D80008002CA600068C16841F04001C160002043
:103D9000704700000148FEF75DBB00006402002090
:103DA000FEE70907090E002804DB00F1E02080F897
:103DB0000014704700F00F0000F1E02080F8141D9F
:103DC000704702E008C8121F08C1002AFAD17047E4
:103DD0007047002001E001C1121F002AFBD170478B
:103DE00010B504460020E070401E6063204600F0DD
:103DF000DEFF08B1042010BD04F2362000F036FFCB
:103E0000A0F52A41553901D0032010BD94F838009F
:103E1000E92805D0EB2814D194F83A00902810D165
:103E200004F16E0000F017FF0749B1EB002F06D038
:103E300004F18A0000F00FFF0449884201D10020FC
:103E400010BD022010BD00000046415446415433CD
:103E5000F0B50022144D134605EB021426685EB13E
:103E60000768BE4209D166688768BE4205D1A4686A
:103E70004669B44204D000E00123521C022AEBD36D
:103E8000022A01D069B904E04BB9022907D01220F7
:103E9000F0BD05EB02108089B0F5807F01D00020D5
:103EA000F0BD1020F0BD0000242A002030B5002114
:103EB000054B0C4603EB01121568854200D11460D6
:103EC000491C0229F6D330BD242A0020C269891E6C
:103ED000921E8A4201D800207047026B408901FB84
:103EE000002070472DE9F04105680F00804606D09C
:103EF00000F0C3FD022809D20120BDE8F0816E69FF
:103F000016B1E869B04207D8012605E0411CF4D09B
:103F1000E9698142F1D83E463446E869641CA04212
:103F200002D80224022E0AD32146404600F0A5FD05
:103F300038B10128E1D0411CDFD0B442EDD10020DE
:103F4000DBE74FF0FF3632462146284601F0DDFA26
:103F500030B957B122463946284601F0D6FA20B189
:103F600001280FD001242046C7E76C61D5E906017E
:103F7000891E884201D8401EA861287940F00100BE
:103F80002871F0E73446EEE72DE9F0410E46243083
:103F90000D6804460B22202100F002FF002001469C
:103FA00008272A5C401C202A12D92F2A0BD05C2A11
:103FB00009D02E2A01D0B94214D30B2F22D02E2A99
:103FC00020D10CE0401C2B5C2F2BFBD05C2BF9D0BC
:103FD00028443060B1B12078E5281FD020E00821C6
:103FE0000B27DEE7802A03D3114B1A4412F8802CEA
:103FF00010A300E05B1C93F800C0BCF1000F04D0DC
:104000009445F7D10620BDE8F081A2F16103192B98
:1040100001D8203AD2B26254491CC2E70520207070
:10402000202A01D8042000E00020E0720020EAE706
:10403000546A0008222A2B2C3A3B3C3D3E3F5B5DF4
:104040007C7F00002DE9F04104460021056800F066
:10405000DFF8002826D12846E16900F0A8FE02001A
:104060001FD1206A017899B1C17A01F03F01A17195
:10407000C17A09070FD404F124010B2610F8013B83
:1040800011F8017BDB1B761E04D0002BF6D002E07A
:10409000042206E02BB10021204600F005F80200C2
:1040A000D9D01046BDE8F0812DE9F04705464769B3
:1040B0000468C0698946203710B1B7F5001F02D3E4
:1040C0000420BDE8F087A189B7FBF1F201FB127172
:1040D00000295FD1401CE861A9694FF0000819B3BD
:1040E000A0896289B7FBF0F0521E104252D12846D7
:1040F00000F0C3FC064601281FD9701C36D0E069C9
:10410000B04241D8B9F1000F12D02846A969FFF793
:10411000E9FE06000FD0012E0FD0701C26D02046DD
:1041200001F0B2FB10BB0AE02089B0EB571F31D879
:10413000C5F81C80C4E70720C3E70220C1E7A289B5
:10414000002104F1380000F02BFE4FF0000831464A
:104150002046FFF7BBFE4FF0010960630DE000BF92
:1041600084F80390204601F08FFB08B10120A8E7F6
:10417000606B08F10108401C606361894145EFD81C
:10418000616BA1EB0800606331462046AE61FFF72A
:104190009DFEE8616F61A089B7FBF0F100FB117033
:1041A00020443830286200208BE770B50446002197
:1041B000066800F02DF80DE03046E16900F0F7FDEB
:1041C00050B9206A0078E52809D040B10121204685
:1041D000FFF76AFF0028EFD0042807D007E0304639
:1041E000E16900F0E4FD050003D00FE0072005467B
:1041F0000CE020220021206A00F0D2FD0B2204F105
:104200002401206A00F0C2FD0120F070284670BD34
:104210002DE9F04104680F460646B1F5001F3CD277
:10422000F8063AD17761B56825B92078032806D316
:10423000E56A25B16089A18900FB01F812E02089B7
:10424000B0EB571F29D9E06A12E0304600F015FCA8
:104250000546401C1FD0022D1FD3E069A8421CD97F
:10426000A7EB080747452946EFD22046FFF72EFE69
:10427000C6E9065088B1A189B7FBF1F10844F061A5
:10428000A089B7FBF0F100FB117020443830306298
:104290000020BDE8F0810120FBE70220F9E70000E3
:1042A000084910B50B5C002253B901220A540A18C0
:1042B00001EB8000127A4068016810468847024688
:1042C000104610BD442A002030B4054C231804EBDE
:1042D00080001B7A406804691846A44630BC6047D9
:1042E000442A002030B4054D2C1805EB8000247AB8
:1042F000406885682046AC4630BC6047442A0020B0
:10430000044A111802EB8000097A406842680846A6
:1043100010470000442A002030B4054D2C1805EB4E
:104320008000247A4068C5682046AC4630BC6047AF
:10433000442A00202DE9F14F8EB0022269460EA8D2
:1043400000F014FA04000098019007D101A80E991A
:1043500000F056FB040002D0042C02D07AE00824BE
:1043600078E0002101A8FFF7BDFD5FEA0008009892
:104370004189828901FB02F104910ED0B8F1010F4D
:104380000DD0B8F1FF3F0CD001F07EFA4FEA0004E7
:1043900000F0E7FB834634B157E00724F8E7022436
:1043A000F6E70124F4E741460098FFF78FFD064643
:1043B0000098002100F138058289284600F0F0FCC1
:1043C0000B222021284600F0EBFC2E242C704FF00D
:1043D000100A85F80BA0594605F1160001F004FA01
:1043E00042462946009801F0EBF905F12000202211
:1043F0002946074600F0CAFC85F821400098039A38
:104400000178032903D1C16A914200D100223946C3
:1044100001F0D6F900984FF00109478987B100985B
:10442000466380F80390761C01F02EFA04000CD14C
:10443000009800218289284600F0B2FC7F1EEED150
:1044400001A8FFF7B2FE04000CD00022414601A8EB
:1044500001F07CF92146009801F03FFA0FB02046A8
:10446000BDE8F08F099C594604F1160001F0BCF933
:1044700042462146009801F0A3F984F80BA0009869
:1044800080F8039001F0BCF90446E3E72DE9F74119
:1044900081B0904602980090684600F064FB0400EA
:1044A00003D50B2004B0BDE8F081164E002756F866
:1044B00024503DB12846FFF7F9FC286900F044F983
:1044C00088B12F70019929B101F8107BE0B200F09A
:1044D0002DF940B1019846F8240010B1B8F1010F50
:1044E00003D00020DEE70220DCE7002201A902A8B9
:1044F00000F03CF904460146019801F0EEF920462F
:10450000D0E70000440000202DE9F74394B00500F7
:104510000BD002F03F063246694615A800F026F996
:1045200004004FF0000804D0F3E0092017B0BDE804
:10453000F0830098049004A8159900F061FA040033
:104540000ED19DF83F00000601D5062408E0700852
:1045500001D0012100E0002104A8FFF779FC044606
:1045600016F01C0F5DD04FF00109C4B1042C10D11E
:1045700000206D4902E0401C022804D201EB001229
:104580001268002AF7D1022807D004A8FFF70DFE11
:10459000044646F008065CB1BBE01224B9E09DF881
:1045A000160010F0110F47D1700701D50824B0E0B4
:1045B000300747D500F0D5FA07460C9839460E303B
:1045C00001F012F90C983946163001F00DF90C98EB
:1045D0002021C1720C99009800F02AFB07460022A6
:1045E0000C99009801F0ECF80C9800211C3001F0B7
:1045F000FBF8009981F8039017B3D1F834900022AA
:10460000394604A801F0A2F8040009D149460098EF
:1046100000F0CDFB04000098A7F1010747610DD021
:1046200077E0ECBB9DF81600C10601D5042470E0CC
:10463000B10703D5C00701D007246AE0300701D5D0
:1046400046F040060098406B68620C98A8627008BB
:1046500001D0012100E0002104A800F0A9FA28619E
:10466000C0B30C99009800F0E3FAA8600C981C30D5
:1046700000F0F1FAC5F82C80E860009929600099F3
:1046800005F130004FF48052C988A9802E7585F855
:104690001580C5F8208000218146C5F8188000E00B
:1046A00037E000F07DFBB00635D5EE689EB3AE6115
:1046B0000098A9684789808947430FE0284600F0A1
:1046C000DCF90146012800D80224481C03D0F61B5F
:1046D00024B105E025E00124F61B01E0BE42EDD83F
:1046E000E961B4B900988289B6FBF2F302FB136268
:1046F0008AB1FFF7EBFBA0B1009901238A89B6FBD1
:10470000F2F202442A6248784946FFF7EBFD10B105
:104710000124C5F800802146009801F0DEF820460B
:1047200004E70224F5E70000242A00201CB500203D
:104730000C46009001900121684600F0FDFB2060CE
:10474000002800D001201CBD10B500F014FC012091
:1047500010BD00F01DBC10B500244FF47A7100F0BC
:104760003FFC00B90124204610BD00002DE9FF41A7
:10477000002790460E460F6000F0F5F9050003D5BE
:104780000B2004B0BDE8F0819A4850F82540BCB138
:10479000204600F070FAA8B13460207808F0FE06D8
:1047A00020B16078FFF7ACFDC1070DD02770E8B2EB
:1047B000B8466070FFF774FDC1070AD00320E0E738
:1047C0000C20DEE70F20DCE70EB1400704D4002008
:1047D000D7E71EB1400701D50A20D2E7607804F17F
:1047E0000C020221FFF770FDF0BBA089A0F500715B
:1047F000B1F5606F3FD8411E08423CD100263146DA
:104800002046FFF7EDFA022822D100254FEA0D07D6
:1048100004EB051090F8FA1100F5FB7019B108309F
:1048200000F019FA00E0002047F825006D1C042D67
:10483000EED3002557F8256036B131462046FFF704
:10484000CFFA022801D203E003206D1C042DF1D31E
:10485000042810D0022878D204F1430000F006FAB0
:10486000A189884271D100E005E004F14E0000F01A
:10487000FDF910B105E0012083E704F15C0000F0D0
:10488000EAF9206294F84850A570012D01D0022D5C
:104890005BD1454394F845006081E8B3411E08426E
:1048A00053D104F1490000F0E1F92081A1894909BF
:1048B000B0FBF1F201FB120070BB04F14B0000F001
:1048C000D5F9070004D104F1580000F0C4F90746F7
:1048D00004F1460000F0CAF9010036D0A08923890E
:1048E0004009B3FBF0F04A19024497422DD3B81A9D
:1048F0006789B0FBF7F078B103274FF6F57C604588
:1049000000D8022740F6F57C604500D801273244E4
:10491000801C3144226300E017E0E061C4E90961D2
:10492000032F14D08BB12944E162022F20D000F074
:10493000010100EB400001EB5000A189401E08443A
:10494000B0FBF1F0216A884214D90D2019E704F177
:10495000620000F08BF90028F7D120890028F4D1FB
:1049600004F1640000F077F9E062E0698000E4E7B8
:104970004000E2E74FF0FF30A061606180202071CD
:10498000032F2CD104F1680000F070F9012826D122
:10499000711C204600F00BFA08BB84F8048004F276
:1049A000362000F063F9A0F52A41553917D104F1FA
:1049B000380000F050F91049884210D104F5077012
:1049C00000F049F90D49884209D104F5087000F05A
:1049D00042F9A06104F5097000F03DF960610549F4
:1049E0002770091F0888401C0880E0802046FFF7D8
:1049F0005DFAECE64400002052526141727241615E
:104A000073B504460568019801E0401C01900178E7
:104A10002F29FAD05C29F8D00021A16001980078F4
:104A2000202806D2802084F82F002046FFF7F0FBD4
:104A30007CBD01A92046FFF7A7FA0028F8D120463F
:104A4000FFF700FB94F82F1028B10428F0D1490794
:104A5000EED405207CBD4907FCD4A079C006F8D56A
:104A6000A9896069B0FBF1F201FB120041192846E7
:104A7000383100F0DDF8A060DBE72DE9F041046893
:104A80000D4602290BD3E069A84208D920784FF0DF
:104A9000FF36012807D0022834D0032849D0012648
:104AA0003046BDE8F081A08905EB5507B7FBF0F073
:104AB000A16A0144204600F07AF90028F0D1A089CB
:104AC000B7FBF0F100FB11717F1CB7FBF0F0214444
:104AD00091F83880A16A0144204600F068F9002866
:104AE000DED1A089B7FBF0F100FB1170204490F8F3
:104AF000381048EA0120E90701D00609D0E7C0F3E1
:104B00000B06CDE7A089A16A4008B5FBF0F001448F
:104B1000204600F04CF90028C2D1A1896800B0FB02
:104B2000F1F201FB12002044383000F09FF80646F5
:104B3000B6E7A089A16A8008B5FBF0F001442046E1
:104B400000F035F90028ABD1A189A800B0FBF1F243
:104B500001FB12002044383000F07DF820F0704650
:104B60009EE70020704710B504464FF0FF302268E2
:104B7000002A13D0114600E0491C0B78212B0ED3DC
:104B80003A2BF9D112F8013B303B0A2B06D28A426C
:104B900004D1002B02D1491C1846216010BD002011
:104BA00010BDEFF30580002800D001207047000001
:104BB000F0B502461D4BD2F80050002003EB001464
:104BC0002668AE4207D166689768BE4203D1A468E2
:104BD0005669B44202D0401C0228EFD3022814D1F7
:104BE000002002E0401C022804D203EB00142468D9
:104BF000002CF7D102280ED003EB00142560956835
:104C000065605269A2600022A281002903EB0011B5
:104C1000898902D019B10020F0BD491C01E04FF490
:104C2000807103EB0012401C9181F0BD242A00200A
:104C300070B506460D4601F11A0000F017F804465B
:104C40003078032805D105F1140000F00FF844EA8C
:104C50000044204670BDC178827842EA0121427842
:104C6000007842EA012140EA01207047417800784B
:104C700040EA0120704710B528B10069FFF76BFDCD
:104C800008B1012010BD002010BD000088B0FCF765
:104C9000C9F9FEF72BFEFDF7C1FEFDF773FEFDF728
:104CA00029FE2F482D494FF4E13500240160C0E969
:104CB00001540C26C460C0E904468461C461FDF758
:104CC00053FC2748274940300160C0E90154C460C3
:104CD000C0E904468461C461FDF746FC23492248CB
:104CE00008600846FBF7FDFE1D482149C438C0E9AD
:104CF00000148460C46003210461C0E90541FDF72C
:104D0000BDFE17481B4980300160C0E90154C460F2
:104D1000C0E904468461C461FDF726FC16491822E7
:104D200001F5E670FDF70EFD13490522303101F162
:104D30005000FBF73FFE0A484038FDF713FA1C22EB
:104D40000E496846FBF7D5FA0021684600F07AF96B
:104D500006491839486100F053F8FEE70010014099
:104D6000640200200044004000300240180000208F
:104D7000002C014000140140D8000020F469000814
:104D800001460020842900D0C81C7047002A05D0A5
:104D900011F8013B00F8013B521EF9D170470000A9
:104DA0005FFA81F100F8011B521EFBD1704770B50C
:104DB0000446406B0D460026A8420FD0204600F066
:104DC00063FD06000AD1607801232A4604F1380108
:104DD000FFF788FA08B1751E01266563304670BD7D
:104DE00010B500B9012000F09DFE002010BD10B5E7
:104DF00001F04EFC012801D0012010BD002010BDA3
:104E000010B500F02FFF002010BD10B5FFF7C9FE50
:104E100018B1BDE8104001F04FBCBDE8104001F0F2
:104E200045BC38B5D0E9011204683AB1C3682BB16A
:104E300000200090204601F01FF838BD2046BDE854
:104E40003840002200F0F4BF2DE9FF410D004FF083
:104E50000006CDE9016507461ED000240396501CCC
:104E60001FD002B11446FFF79CFE69464FF01008B0
:104E7000E8B103AA2846091D01F06EFA012813D0F3
:104E800000960398E8B114494FF080500860BFF3D2
:104E90004F8FBFF36F8F14E0802031462A46009079
:104EA00011E04FF0FF34DEE7CDF80080E9E722465D
:104EB0002846091D01F0B4F9012808D054B140205A
:104EC00000909DE8070087E80700BDE8FF81CDF866
:104ED0000080F6E70020F3E704ED00E037B5054673
:104EE00082B000200090140000D10124FFF759FE89
:104EF0004FF0000388B16A4603A9284601F0E4F8A0
:104F0000012811D1009890B10A494FF080500860F3
:104F1000BFF34F8FBFF36F8F09E0224603A92846E6
:104F200001F022F8012802D0FF2005B030BD00209A
:104F3000FBE7000004ED00E038B543684BB1012900
:104F400009D10320002200901146012000F094FFB7
:104F500038BD012901D0002038BD032200210120E5
:104F600000F066FF040004D000231A46194600F042
:104F7000FBFF204638BD10B50446FFF712FE08B10E
:104F8000822010BD204600F0A1FD002010BD0000D1
:104F900038B5002405460094FFF703FE90B169463A
:104FA000284601F0EFF8012801D0FF2038BD009815
:104FB00088B10A494FF080500860BFF34F8FBFF3AC
:104FC0006F8F08E000231A461946284600F0CCFFF0
:104FD000012800D0FF24204638BD000004ED00E089
:104FE00038B505004FF0000000900FD00024481C99
:104FF0000ED001B10C46FFF7D4FDB8B16A460021CE
:10500000284601F0A9F9012816D104E0802038BD16
:105010004FF0FF34EFE7009880B109494FF080501E
:105020000860BFF34F8FBFF36F8F07E0214628461C
:1050300001F0E0F9012801D0FF2038BD002038BD83
:1050400004ED00E07FB50D4604464169B0F9080063
:1050500081B1A16971B1FFF793FED4E905128DE822
:105060000700D4E900102B46226901F0E6FA03900C
:1050700004B070BDFFF784FE03A9CDE90001208ACA
:105080002B4682B2D4E9001001F0AAFA012801D01F
:105090000020EDE70398EBE72DE9F041184C0F46AF
:1050A000054666692068001D00F023FC38B92068B9
:1050B00090F82C1001208840A1698143A161681CEF
:1050C00007D137B12168BDE8F0410E48091D00F055
:1050D00053BC20683544B5424560216805D2A068BC
:1050E000BDE8F041091D00F02FBC6068091D00F00B
:1050F0002BFC206B854200D22563BDE8F0810000C7
:10510000480000206C2B00202DE9F041054600F0FE
:105110003FFC2E4C2069401C206120682C4F10B1B0
:10512000E06940B32DE025602069012829D10026DF
:1051300006EB860007EB800000F0F8FB761C072EDC
:10514000F6D323488C3000F0F1FB2148A03000F06A
:10515000EDFB1F48B43000F0E9FB1D48C83000F0FB
:10516000E5FB1B48DC3000F0E1FB19488C30606047
:105170001430A06005E02068E96AC06A884200D85F
:105180002560E06A401CE062E96A0120A26988406B
:105190001043A06101EB810007EB8000291D00F0A6
:1051A000EBFB00F015FCE06900280CD02068E96AF0
:1051B000C06A884207D207494FF080500860BFF3A9
:1051C0004F8FBFF36F8FBDE8F081000048000020D3
:1051D000902A002004ED00E030B4026C0B46002A57
:1051E0000BD0C1681144C1604468A14201D3016879
:1051F000C16030BC1846FBF77CB830BC70472DE965
:10520000F041856B174604460026026C82B1C7B197
:10521000E068FBF76EF8E168206C091AE16022682B
:10522000914202D26168081AE060022F16D017E09E
:105230002068A8B9606801F0ABFA064600206060FB
:105240000EE0A068FBF755F8216CA0680844A06048
:105250006168884204D32068A06001E005B16D1E3A
:105260006D1CA5633046BDE8F08110B5044690F88A
:10527000510058B101280CD002280FD0502080F3E3
:105280001188BFF34F8FBFF36F8FFEE7206B00F0E5
:10529000B3FB2046BDE8104000F0AEBB10BD0000DF
:1052A00010484FF47051420706D0C01D0D4920F040
:1052B0000700411AC1F570510B4A00230144C2E9AD
:1052C00000030839103A21F0070111604B600B60B0
:1052D0000B1AC0E9001393604FF000405360D06098
:1052E00070470000802B002094000020144E154CC5
:1052F000A6F1C8074FF08058DFF84C9012E000BFCD
:1053000000F046FBF068C568281D00F0F2FA20693D
:10531000401E2061E068401EE06000F059FB284616
:10532000FFF7A3FFE0680028EAD138680128F9D91F
:10533000C9F80080BFF34F8FBFF36F8FF2E7000013
:10534000582B00204800002004ED00E003460098A0
:1053500029B10260C0E90F31012100F0C1BD006038
:10536000F8E72DE9F0479A46DDE9098481466FF0B8
:105370000303206B03EB82021044089D20F0070614
:10538000700707D0502080F31188BFF34F8FBFF311
:105390006F8FFEE723180A5C83F834200A5C12B191
:1053A000401C1028F6D3002784F84370072D00D343
:1053B0000625E562C4E91157201D00F0C2FA04F188
:1053C000180000F0BEFA2461C5F107006462A06114
:1053D000E76484F8507052464946304600F0A0F920
:1053E0002060B8F1000F01D0C8F80040BDE8F08798
:1053F00030B5114900E011460A688242FBD34B6880
:105400005C18844203D140681844486008464368E9
:105410001C18944209D1084C103C2468A24209D0BF
:1054200052681A4442600A6812680260814200D0E1
:10543000086030BD0460F9E79400002010B5044610
:1054400000F0A6FAA06B28B15FF0000400F0C0FAEB
:10545000204610BD0124F9E706484168096829B1D2
:105460004168C968C9684968016370474FF0FF31F6
:10547000FAE700004800002008484068401C4FF050
:10548000500080F3118804D0BFF34F8FBFF36F8FAC
:10549000FEE7BFF34F8FBFF36F8FFEE79C00002046
:1054A0002DE9F041044600F073FA94F9455004F1F7
:1054B000240609E0606A48B1304601F0FFF908B1FE
:1054C00000F05EFB6D1E6DB2002DF3DC4FF0FF3679
:1054D00084F8456000F07CFA00F05AFA94F94450E0
:1054E00004F1100709E0206948B1384601F0E6F9F7
:1054F00008B100F045FB6D1E6DB2002DF3DC84F8A1
:105500004460BDE8F04100F063BA2DE9F04702269F
:1055100017460D46044602297DD3E069A8427AD990
:1055200020784FF00109012804D0022840D0032838
:105530007AD154E0A18905EB5508B8FBF1F0A16AD6
:1055400001442046FFF733FC06006DD1A189B8FB6A
:10555000F1F201FB12802044383008F10108E9071C
:1055600004D00178FAB262F31F1100E039460170ED
:1055700084F80390A189B8FBF1F0A16A01442046A8
:10558000FFF715FC06004FD1A189B8FBF1F201FB32
:10559000128020443830E90702D0C7F3071105E034
:1055A0000178C7F3032201F0F0011143017039E0E3
:1055B000A089A16A4008B5FBF0F001442046FFF73E
:1055C000F6FB060030D1A1896800B0FBF1F201FBC7
:1055D00012002044B9B2383000F00EF922E0A08960
:1055E000A16A8008B5FBF0F001442046FFF7DFFB1D
:1055F000060019D1A089AD00B5FBF0F100FB1150F8
:1056000020443830FFF727FB67F31B000146A089D1
:10561000B5FBF0F200E007E000FB12502044383008
:1056200000F0E2F884F803903046BDE8F08700000F
:105630002DE9F0410546002700F04AFB314E306865
:1056400008B9FFF72DFEF06805424BD1C5B3083508
:1056500068070ED005F00700C0F108000544680790
:1056600007D0502080F31188BFF34F8FBFF36F8FA7
:10567000FEE72DB37068854234D8224810300146C9
:105680000C6801E020460C466168A94202D22168FC
:105690000029F7D131688C4224D007682168016065
:1056A00060680837411B10290FD96019420708D0DC
:1056B000502080F31188BFF34F8FBFF36F8FFEE749
:1056C00010E041606560FFF793FE61687068401A02
:1056D0007060B268904200D2B060F0680143002070
:1056E000C4E9000101F024F9780707D0502080F3C5
:1056F0001188BFF34F8FBFF36F8FFEE73846BDE8C9
:10570000F0810000840000200449086818B108688E
:10571000826C521C826408687047000048000020B8
:1057200010B5031F4FF080741C601B1F21F0010196
:105730001960191F044B0B6014390A60091F6FF0C0
:10574000020244380A6010BD795400082DE9F04186
:10575000056813460E46074602292DD3E869B04274
:105760002AD93BB14FF0FF3219462846FFF7CDFE4C
:1057700000281FD131463846FFF77FF9040018D0C2
:10578000012C19D0601C19D0002231462846FFF7A1
:10579000BCFE00280ED1D5E90610821E914205D22A
:1057A000491CA961297941F0010129712646B042BD
:1057B000E0D80020BDE8F0810220FBE70120F9E7F6
:1057C00070B50C460646154691B204F11A0000F079
:1057D00013F83078032806D1290C04F11400BDE831
:1057E000704000F009B870BD0170090A4170090AE3
:1057F0008170090AC17070470170090A41707047D1
:1058000070B5044600F040F8050036D12078032832
:105810002CD12079012829D104F13800A289002156
:105820000646FFF7BDFA4AF6552104F23620FFF787
:10583000E3FF13493046FFF7D7FF124904F507701D
:10584000FFF7D2FF04F50870A169FFF7CDFF04F55B
:1058500009706169FFF7C8FF626A0123521C626325
:1058600060783146FEF758FD0020207100226078F4
:105870001146FEF729FD00B10125284670BD000044
:1058800052526141727241612DE9F0410446C07883
:105890000027F8B1656B04F13801607801232A46CE
:1058A0008846FEF739FD08B1012713E00020E070BB
:1058B000A06A216A281A88420CD2A67808E0206AD9
:1058C0000123054460782A464146FEF725FD761EF1
:1058D000022EF4D23846BDE8F081002808D00C2909
:1058E00006D00B2904D00F2902D00069FEF731BF82
:1058F0007047D0E9013201699A60D0E901235A600A
:105900004A68824201D182684A60002202610868C6
:10591000401E086008687047034B036003F15400A1
:1059200008608020106070479027002000F1080177
:105930004FF0FF32C0E90112C16001610021016036
:10594000704700210161704730B50B685A1C02D0C6
:1059500000F1080202E0026904E02246546825686A
:105960009D42FAD953684B6099608A605160086122
:105970000168491C016030BD42684A6093688B60D1
:1059800093685960916008610168491C0160704723
:10599000502080F31188BFF34F8FBFF36F8F0A49F8
:1059A0004868401C486001280CD10848006810F085
:1059B000FF0F07D0502080F31188BFF34F8FBFF344
:1059C0006F8FFEE7704700009C00002004ED00E0B0
:1059D0000849486828B1401E486001D180F3118809
:1059E0007047502080F31188BFF34F8FBFF36F8F44
:1059F000FEE700009C00002070B5002827D0144D61
:105A0000A0F108046168E868014207D1502080F3E2
:105A10001188BFF34F8FBFF36F8FFEE722683AB153
:105A2000502080F31188BFF34F8FBFF36F8FFEE7D5
:105A30008143616000F04CF96068696808446860FF
:105A40002046FFF7D5FCBDE8704000F071BF70BD87
:105A5000840000204FF0E0200021016181610549B0
:105A60004FF47A720968B1FBF2F1491E41610721D6
:105A7000016170473C00002010B5FAF7F3FB1149B3
:105A800010280ED300F1E02090F8F0030A7890423D
:105A900007D2502080F31188BFF34F8FBFF36F8F71
:105AA000FEE709480068896800F4E060884207D989
:105AB000502080F31188BFF34F8FBFF36F8FFEE745
:105AC00010BD00009C0000200CED00E010B50400AB
:105AD0000AD000F013F894F8460000280CD12046B4
