:020000040800F2
:10000000C0A600206D020008232D00082F2800083C
:10001000212D0008750400081D40000800000000A4
:10002000000000000000000000000000AD0100081A
:10003000410500080000000009020008313B0008EB
:10004000870200088702000887020008870200086C
:10005000870200088702000887020008870200085C
:10006000870200088702000887020008870200084C
:10007000870200088702000887020008870200083C
:1000800079040008870200088702000800000000C9
:1000900000000000000000000000000087020008CF
:1000A000870200088702000887020008870200080C
:1000B0008702000887020008F93B00088702000851
:1000C00087020008870200088702000887020008EC
:1000D00087020008054000081140000800000000E9
:1000E000870200088702000887020008000000005D
:1000F000000000000000000000000000870200086F
:1001000000000000592D0008053C00088702000887
:1001100000000000000000000000000000000000DF
:10012000870200088702000887020008850400088B
:10013000870200080000000000000000000000002E
:10014000000000000000000000000000870200081E
:10015000870200089104000887020008870200084F
:10016000870200088702000800000000000000006D
:10017000000000000000000000000000000000007F
:1001800000000000870200080000000000000000DE
:100190008702000887020008DFF80CD000F0FAF8A8
:1001A00000480047E54E0008C0A600202C4B196807
:1001B0000868B0E8F04F80F30988BFF36F8F4FF005
:1001C000000080F3118870470000000008480068B4
:1001D000006880F308884FF0000080F3148862B64E
:1001E00061B6BFF34F8FBFF36F8F00DF00BF00BF5B
:1001F00008ED00E0DFF80C00016841F470010160D7
:10020000704700BF88ED00E0EFF30980BFF36F8F08
:10021000134B1A681EF0100F08BF20ED108A20E95A
:10022000F04F106009B44FF0500080F31188BFF315
:100230004F8FBFF36F8F05F0C3FE4FF0000080F3C8
:10024000118809BC19680868B0E8F04F1EF0100F5B
:1002500008BFB0EC108A80F30988BFF36F8F704736
:1002600060000020EFF305807047000006488047DB
:1002700006480047FEE7FEE7FEE7FEE7FEE7FEE78B
:10028000FEE7FEE7FEE7FEE7DD3B00089901000818
:100290002DE9F05F0546002092469B4688460646BB
:1002A000814640241BE0284641464746224600F04E
:1002B00061F853465A46C01A914110D31146184668
:1002C000224600F048F82D1A67EB01084F462246F7
:1002D0000120002100F03FF817EB00094E41201EDD
:1002E000A4F10104DFDC484631462A464346BDE816
:1002F000F09F10B5431A934209D28318881803E07F
:1003000010F8011D03F8011D521EF9D210BD40EA7C
:1003100001039B0703D009E008C9121F08C0042A83
:10032000FAD203E011F8013B00F8013B521EF9D26A
:1003300010BDD2B201E000F8012B491EFBD270477C
:100340000022F6E710B513460A4604461946FFF7A1
:10035000F0FF204610BD202A04DB203A00FA02F10B
:10036000002070479140C2F1200320FA03F31943A3
:1003700090407047202A04DB203A21FA02F0002145
:10038000704721FA02F3D040C2F1200291400843A5
:1003900019467047064C074D06E0E06840F001033F
:1003A00094E8070098471034AC42F6D3FFF7F8FE04
:1003B000046E0008246E00087047000001460148E2
:1003C00001F0E0BA5C01002010B5044801F0ECFA3D
:1003D000042801D0012010BD002010BD5C010020C8
:1003E00038B501208DF800009DF80000012801D0EB
:1003F000012038BD064801F0F1FB040006D14FF49E
:100400000061034801F076F900B10124204638BDAF
:100410005C010020134610B50A460146002403483B
:1004200001F0D6FC00B10124204610BD5C01002083
:1004300003484FF0FF320121406804F08DBE0000F8
:1004400038000020134610B50A4601460024034830
:1004500001F05EFD00B10124204610BD5C010020CA
:1004600003484FF0FF320221406804F075BE0000DF
:1004700038000020FEE70000014800F0D7B8000077
:1004800004040020014800F0D1B80000440300201B
:10049000014800F0CBB80000A40300200168182335
:1004A000CAB2103AB2FBF3F2054B6FF30901032A0B
:1004B0009B5CC36500D9091D816508467047000033
:1004C000346D000810B5014600208B698A6A4FF030
:1004D000C07453B1B3F5005F15D072B1012A0CD0CE
:1004E000022A0AD0032A09D104E01AB1012A06D04F
:1004F000022A03D1C96AC90100D5012010BDC96A09
:10050000A142FAD010BD002AF7D0012AF2D0022A67
:10051000F3D0032AF3D010BD30B50468256825F464
:1005200080252560046863608368402B036803D0DE
:1005300099600068C26030BD9A600068C16030BDDB
:1005400070477047002200F001B8000030B50E4B34
:10055000054601205C7A002C14D1587A1C54587A34
:1005600003EB800045605D7A03F108002A54587A55
:10057000421C5A72303008703A2048702F20887020
:10058000CC70002030BD00008029002030B502234F
:10059000437103689C6844F001049C60002304E0FC
:1005A000056851F823402C605B1C9342F8D3016826
:1005B000096801224271084630BD10B5040002D01E
:1005C000607910B106E0012010BD002020712046A6
:1005D00000F004F801206071002010BD08B500682B
:1005E0000649884208D10648016841F480510160FB
:1005F000006800F48050009008BD00000030024008
:100600003038024090F83510022903D0802141652E
:1006100001207047052180F835100068016821F03D
:100620000101016000207047406D70472DE9F843DB
:1006300004464FF00009CDF8009063484FF416517E
:10064000A56D0068B0FBF1F72E6894F85C100820E7
:1006500000FA01F131420FD021680A6852070BD528
:100660000A6822F004020A6094F85C108840A860CE
:10067000606D40F00100606594F85C104FF0010877
:1006800008FA01F0304208D021684969090604D50A
:10069000A860606D40F00200606594F85C10042072
:1006A0008840304208D021680968890704D5A860CD
:1006B000606D40F00400606594F85C101020884084
:1006C000304218D021680968090714D5A86020684D
:1006D0000168490304D50068000308D5A16C07E050
:1006E0000168C90503D4016821F008010160216C8B
:1006F00009B12046884794F85C1020208840304299
:1007000031D021680968C9062DD5A86094F8350054
:1007100005282068016806D0490347D50068000312
:100720001DD4616C1CE021F0160101602068416954
:1007300021F080014161206C08B9A06C20B12068D3
:10074000016821F00801016094F85C103F208840A6
:10075000A86084F8349084F83580216D1FE0E16B47
:1007600009B120468847606D00282BD0606DC00716
:1007700014D0052084F835002068016821F00101BB
:1007800001600098401C0090B84203D820680068BF
:10079000C007F6D184F8349084F83580E16C0029E4
:1007A00010D001B02046BDE8F04308470168C905F4
:1007B000D5D4016821F01001016084F8349084F8E8
:1007C0003580CCE7BDE8F883540000202DE9F041E6
:1007D000044600F085F906465CB1002584F83450E3
:1007E000022084F835002068016821F001010160D1
:1007F0000DE00120BDE8F08100F072F9801B0528B2
:1008000005D920206065032084F83500F2E72068D0
:100810000068C007F0D12268116820480140D4E97F
:1008200001031843D4E9033633431843636918437B
:10083000A3691843E3691843236A18430843616AAC
:10084000042903D1D4E90B1319430843106020682D
:100850004069666A20F0070130460E4301270428EC
:100860000CD1A06A0643E06A40B12046FFF72AFE99
:1008700020B14020606584F83570BAE72068466191
:100880002046FFF70BFE94F85C203F2191408160E9
:10089000656584F835700020ACE700003F8010F0FB
:1008A0002DE9F0410446866D90F8340000250128BA
:1008B0000DD0012084F8340094F835700020012F09
:1008C00007D084F8340002252846BDE8F0810220D4
:1008D000FBE7022784F8357060652046FFF71CFEB1
:1008E00094F85C103F208840B0602068016841F0B7
:1008F00016010160206C20B12068016841F00801F8
:1009000001602068016841F001010160DCE700003E
:1009100070B5044600F0E4F80546601C02D00448B7
:100920000078044400F0DCF8401BA042FAD370BD0C
:10093000480000202DE9F84F00224FF00108032560
:100940004FF00F0E0B6808FA02F42340A34271D156
:100950004E68012E05D0022E03D0112E01D0122E8A
:1009600015D18668570005FA07FC26EA0C06D1F86F
:100970000CC00CFA07FC4CEA060CC0F808C046682C
:10098000A6430C79C4F30014944034434460C66811
:10099000570005FA07FC8C6826EA0C06BC40344375
:1009A000C4604C68022C01D0122C13D1D40800EB87
:1009B0008404A346D4F8209054074FEAD46A0EFA70
:1009C0000AF629EA06090E6906FA0AF646EA09064F
:1009D000CBF8206004680E7924EA0C0406F00306C4
:1009E000BE40264306604C68E40056D52E4C26686F
:1009F00046F480462660246822F0030604F480440E
:100A000000942A4C3444A446D4F808489607370F7B
:100A10000EFA07F6B443264EB04201D1002615E087
:100A2000244EB04201D1012610E0234EB04202D143
:100A300002260BE031E0214EB04201D1032605E051
:100A40001F4EB04201D1042600E00726BE402643D7
:100A5000CCF808681B4E34684F689C43FF0300D5F0
:100A60001C433460174E361D34684F689C43BF03E7
:100A700000D51C433460134E083634684F689C43DD
:100A8000FF0200D51C4334600E4E0C3634684F68AC
:100A90009C43BF0200D51C433460521C102AFFF453
:100AA00051AFBDE8F88F00004438024000300140EB
:100AB000000002400004024000080240000C024016
:100AC00000100240003C0140426931EA020200D1BC
:100AD0000904816170470AB1816170470904FBE72D
:100AE00001488068704700004800002070B504008D
:100AF00025D094F83D00002520B984F83C502046CC
:100B000000F03EFA242084F83D002068016821F0BE
:100B1000010101602068016841F400410160206822
:100B2000016821F40041016000F0E2FB4D4A616878
:100B3000914201D84C4900E04C49884201D2012041
:100B400070BD4B492368B0FBF1F15E6826F03F06AB
:100B50000E435E606368934206D94FF4967359431F
:100B60004FF47A73B1FBF3F12368491C1E6A26F037
:100B70003F06314319626168914210D84900401E16
:100B8000B0FBF1F2521CC2F30B02042A01D2042082
:100B900022E0B0FBF1F0401CC0F30B001CE0A268A7
:100BA000F2B301EBC10303EB0116431EB3FBF6F3F3
:100BB0005B1C43F480431B0549D092B301EBC10297
:100BC00002EB0111401EB0FBF1F0401CC0F30B0022
:100BD00040F4804040F400402168CA694CF6FF733D
:100BE0009A431043C861D4E90710014320680268A2
:100BF00022F0C00211430160D4E9030101432068DF
:100C0000826848F2FF339A4311438160D4E90501B9
:100C100008432168CA6822F0FF021043C86001E05F
:100C20000EE016E02068016841F0010101602564D2
:100C3000202084F83D00256384F83E50002070BDDC
:100C400001EB4106431EB3FBF6F35B1CB3E7012047
:100C5000C2E701EB4101401EB0FBF1F0401CC0F3C4
:100C60000B00B7E7A086010080841E0000093D004C
:100C700040420F002DE9F84F1F4690468A46044631
:100C8000DDF82890FFF72CFF054694F83D0020285A
:100C900075D1192301226C492046009501F0CAFE46
:100CA0000028F5D194F83C00012868D0012084F890
:100CB0003C0020680168C90703D1016841F00101C7
:100CC00001602068016821F400610160222084F83D
:100CD0003D00102084F83E0000262664C4F82480DD
:100CE0006785608D20855948E0622B464A4651460B
:100CF000204601F0B5FD002878D1208D544F68B111
:100D0000012814D002282068016816D041F48061BF
:100D10000160206841698069009087E0206841692E
:100D200081690091016841F4007101607EE02068F2
:100D3000016821F480610160F0E721F480610160C5
:100D40002068016841F40061E2E7032848D80128DF
:100D50000AD0022814D04B4600223946204600957E
:100D600001F068FED8BB27E02A464946204601F03C
:100D7000E0FEA0BB20680069616A08704DE061E098
:100D80004B46002239462046009501F053FE30BB09
:100D90002068016841F40071016020680069616A9F
:100DA0000870606A401C6062218D491E2185618D3A
:100DB000491E618521682EE02068016821F4806168
:100DC000016020680069616A0870606A401C6062A6
:100DD000208D401E2085608D401E6085D0E705E097
:100DE0002A464946204601F0A4FE10B10120BDE884
:100DF000F88F20680069616A0870606A401C606250
:100E0000218D491E2185618D491E618521684A69B0
:100E1000D24352070AD409690170606A401C6062BB
:100E2000208D401E2085608D401E6085208D00280D
:100E30008BD1202084F83D0084F83E6084F83C602B
:100E40000020D4E70220D2E7020010000000FFFFDC
:100E5000040001002DE9F84F1F4690468A460446DB
:100E6000DDF82890FFF73CFE054694F83D00202869
:100E70007FD11923012240492046009501F0DAFD77
:100E8000002876D194F83C00012872D0012084F823
:100E90003C0020680168C90703D1016841F00101E5
:100EA00001602068016821F400610160212084F85C
:100EB0003D00102084F83E0000262664C4F82480FB
:100EC0006785608D20852D48E0622B464A46514655
:100ED000204601F03BFD90B920684169806900908F
:100EE00036E02A464946204601F056FE50B1206CB5
:100EF000042804D12068016841F4007101600120D8
:100F0000BDE8F88F606A216800780861606A401C5B
:100F10006062618D491E6185218D491E89B22185DE
:100F200022685369DB435B070BD451B10078106131
:100F3000606A401C6062608D401E6085208D401E8E
:100F400020852A464946204601F04EFD0028CED194
:100F5000208D0028C5D154F83D0B016841F4007183
:100F60000160202004F81E09E67766770020C7E7B5
:100F7000FFE70220C4E70000020010000000FFFFAE
:100F800010B586B0044614216846FFF7D9F9134915
:100F90002068884220D11248016841F002010160B6
:100FA0000068694600F002000590C0200090122001
:100FB000019001200290032003900420049009482E
:100FC000FFF7B8FC06481030016841F400110160D9
:100FD000006800F40010059006B010BD00540040F9
:100FE000303802400004024002488168027811440F
:100FF00081607047480000200B4810B5016841F43B
:1010000000710160016841F480610160016841F490
:1010100080710160032000F08DF8002000F006F8D8
:1010200000F03EF8002010BD003C024010B5014623
:1010300088B00022322000F05DF8322000F04CF839
:1010400013480024016841F008010160006805A907
:1010500000F008000690684600F02AF900F048F910
:101060000C494000B0FBF1F10C480B4A491E0260EC
:1010700040F2E732C0E90324C0E9011401F022F88C
:1010800010B1012008B010BD044801F055F8F9E78F
:101090004038024040420F00000C00402029002050
:1010A0000C4882B0016841F480410160006800F49E
:1010B000804000900748001F016841F080510160A6
:1010C0000068002200F0805000900F21901E02B0B6
:1010D00000F010B844380240002809DB00F01F027D
:1010E000012191404009800000F1E020C0F800118A
:1010F00070470000F0B40E4B1B680C46C3F302238C
:10110000C3F10705042D00D90425191D072901D2B3
:10111000002300E0DB1E012606FA05F1491E2140EE
:1011200099409E40761E16403143F0BC02F077BFD6
:101130000CED00E0064900F0070208684FF6FF03D7
:10114000184040EA0220034A10430860704700003C
:101150000CED00E00000FA05BFF34F8F0548016871
:10116000054A01F4E06111430160BFF34F8F00BFF6
:10117000FDE700000CED00E00400FA052DE9F04762
:101180000E46050065D0DFF81481D8F80000F7B2EC
:1011900000F00F00B04207D288F80070D8F80000C5
:1011A00000F00F00B04254D128683D4C810712D5A1
:1011B000400703D5206840F4E050206028780007FD
:1011C00003D5206840F4604020602068A96820F0C2
:1011D000F000084320602878C0072DD030496868A7
:1011E0000839012812D0022813D0032811D0096829
:1011F000890700292DDA216821F0030101432160CC
:10120000FFF76EFC814641F2883A0EE009688903D7
:10121000EFE709688901ECE7FFF762FCA0EB090141
:10122000514502D90320BDE8F0872068696800F0C5
:101230000C00B0EB810FEFD1D8F80010404601F060
:101240000F01B14207D90770006800F00F00B042EB
:1012500001D00120E7E72878400705D52068E96834
:1012600020F4E050084320602878000706D5206865
:10127000296920F4604040EAC100206000F058F87D
:101280002168084AC1F30311515CC840064908604F
:1012900006480068FFF7CAFE0020C4E7003C024091
:1012A000083802403C6D0008540000204C0000202B
:1012B0000F2202600C4A136803F0030343601368B3
:1012C00003F0F0038360136803F4E053C360126813
:1012D0004FF4E05303EAD20202610448006800F0D0
:1012E0000F0008607047000008380240003C0240D0
:1012F0000448054900680968044AC1F38221515C29
:10130000C840704754000020083802404C6D000867
:101310000448054900680968044AC1F34231515C38
:10132000C840704754000020083802404C6D000847
:10133000154810B5006810F00C02144813D0411085
:10134000042A0FD0082A0ED10F4C241F22682368CC
:1013500002F03F025B0207D52068C0F38810A0FBB3
:10136000010106E0084610BD2168C1F38811A1FB08
:1013700000010023FEF78CFF2168C1F30141491CE5
:101380004900B0FBF1F010BD083802400024F40021
:101390002DE9F84F040076D02078DFF838A3CE4D41
:1013A000C00749D0DAF800105046C1F38101012985
:1013B00008D00068C0F3810002280AD1281D006807
:1013C000400206D52868800336D560680028E2D040
:1013D00032E06068B0F5803F10D0B0F5A02F2868EB
:1013E00010D020F480302860286820F48020286005
:1013F0006068A0B1FFF774FB06460CE0286840F473
:101400008030F4E740F480202860F7E7FFF768FBBE
:10141000801B642873D828688003F7D50CE0FFF799
:101420005FFB064605E000BFFFF75AFB801B642800
:10143000F0D828688003F7D42078DFF8A0828007EE
:101440004FF000093ED5DAF80010504611F00C0FAD
:1014500009D00068C0F3810002280BD19D48001F0D
:101460000068400206D42868800715D5E068012886
:1014700009D111E0E068B8B10120C8F80000FFF719
:101480002FFB064605E020E1FFF72AFB801B022820
:10149000C0D828688007F7D52868216920F0F800AF
:1014A00040EAC10028600DE0C8F80090FFF718FB83
:1014B000064604E0FFF714FB801B02281FD82868AB
:1014C0008007F7D42078000722D5824E84486169CE
:1014D0006C3671B101210160FFF702FB074604E0A1
:1014E000FFF7FEFAC01B022809D830688007F7D53D
:1014F0000EE0C0F80090FFF7F3FA074605E082E03F
:10150000FFF7EEFAC01B02287DD830688007F7D4B9
:101510002078400768D5DFF8BCB100270BF1380B05
:10152000DBF80000C0000BD4DBF8001041F0805164
:10153000CBF80010DBF80000012700F0805000908D
:10154000684E3068C00510D4306840F48070306058
:10155000FFF7C6FA009005E0FFF7C2FA0099401ABB
:10156000022850D83068C005F6D55A4EA0686836B3
:1015700001280FD00528306810D020F0010030601D
:10158000306820F004003060A068B8B1FFF7A8FA16
:1015900000900FE0306840F00100F4E740F00400F4
:1015A0003060F7E7FFF79CFA0099411A41F2883062
:1015B000814266D830688007F4D50EE0FFF790FAD4
:1015C000009007E0FFF78CFA0099411A41F2883049
:1015D000814256D830688007F4D42FB1DBF8001070
:1015E00021F08051CBF80010A069D0B3DAF80020C8
:1015F0005146C2F38102022A4AD00228484607D047
:10160000C8F8600000E03CE0FFF76AFA04463BE0FF
:101610004746C8F86000FFF763FA064605E000BFDA
:10162000FFF75EFA801B02282BD828688001F7D4C8
:10163000D4E907010843A16A2B4A490802EB01419A
:10164000626A41EA8211084394F82C1040EA016171
:101650002048001F016001203866FFF741FA044668
:1016600005E034E0FFF73CFA001B022809D828689F
:101670008001F7D52BE000BFFFF732FA001B0228EC
:1016800002D90320BDE8F88F28688001F4D41EE059
:101690000128F7D00868E26900F48001914214D172
:1016A000226A00F03F0191420FD147F6C071626A91
:1016B0000140914209D1A26A00F44031914204D123
:1016C000E16A00F07060884201D00120DAE7002072
:1016D000D8E70000083802400038024000004742C6
:1016E000800E4742007000400000FFFF10B5FEF77B
:1016F00063FE10BD2DE9FE43044603200F4684F827
:101700003400606C03285AD0B7F5805F57D04FF48F
:10171000006600254FF08068B7421CD10095019506
:101720000021206801F014FB800121D46946204685
:1017300001F0FCFE98BB0198400332D5B4F850008C
:101740000104206801F040FB48BB0221206822E030
:10175000A06B284327E01FB1A06B40F0006022E09F
:10176000009501950021206801F0F2FA800101D571
:101770003546EDE76946204601F0D8FE78B9019874
:10178000C0030ED5B4F850000104206801F01CFB22
:1017900028B90021206801F064FB0028D8D0054654
:1017A000D6E74546D4E7A063A06B012558B1216870
:1017B0000C48886384F834500120BDE8FE83A06B98
:1017C00040F08050EFE7211DD4E905060EC90097CF
:1017D000CDE90106206801F0C5FA84F834500020F4
:1017E000EBE70000FF05400070470000F0B5426ED7
:1017F000920F0A70426EC2F383624A70426EC2F365
:1018000001628A70426E120CCA70B0F86420120A2B
:101810000A7190F864204A71826E120DCA80826E3D
:10182000C2F303420A72B0F86820C2F3C0324A72AF
:10183000B0F86820C2F380328A72B0F86820C2F330
:101840004032CA72B0F86820C2F300320A73002630
:101850004E73426C4FF40075012462B1012A3AD0F4
:10186000026847499163816B41F08051816380F840
:1018700034400120F0BDB0F86820C36E9205120D0F
:1018800042EA93720A61C26EC2F3C2620A75C26E04
:10189000C2F302624A75C26EC2F342528A75C26EC8
:1018A000C2F38242CA75C26EC2F3C2320A760A69B4
:1018B000521C42650B7E03F007039B1C9A40426555
:1018C0000B7A03F00F0704FA07F383655B0A5A43A8
:1018D000C0E917250EE090F86820C36E9206920AC0
:1018E00042EA13420A610A69521C92024265C0E947
:1018F0001652056630F86C2FC2F3803201F8192FAA
:101900000288C2F3C6124A70027802F07F028A701F
:101910004268D20FCA704268C2F341720A714268CB
:10192000C2F382624A714268C2F383528A7142688A
:10193000C2F34052CA710E724268C2F300424A7248
:101940008288C2F3C0328A728288C2F38032CA723D
:101950008288C2F340320A738288C2F300324A732B
:101960008288C2F381228A738288C2F30122CA73F9
:101970000079C0F3460008744C740020F0BD0000EC
:10198000FF054000426C0A60826C4A60C26C8A604B
:10199000026DCA60426D0A61826D4A61C26D8A61E0
:1019A000006EC8610020704770B50446B0F8500062
:1019B00000250104206801F05EFB18B1A16B014312
:1019C000A16304E00021206801F0C2F90546C5F3D7
:1019D000432070BDF8B5056B04460068416B0904EF
:1019E0001BD5290719D5D4E90A56002E14D0002793
:1019F000206801F0D1F905F8010B010A05F8011B77
:101A0000010C05F8021B000E361F7F1C05F8010CA7
:101A1000082FEDD3C4E90A56F8BD416B4FF000061C
:101A2000C9054FF0010744D5390281632068C16BB5
:101A30004CF23A329143C1632068C16A21F001013E
:101A4000C16228071DD515F0220F09D0206801F0CA
:101A500043FB28B1A16B0143A1632046FFF7C4FEFD
:101A6000216840F23A50886384F834702663A807EE
:101A700003D0204600F044FAF8BD204600F044FAB6
:101A8000F8BD2806FCD5A80609D5206801F024FB7E
:101A900028B1A16B0143A1632046FFF7A5FEA8076B
:101AA000EED12068C16A21F00801C16284F8347067
:101AB000E3E7416B490424D5290722D5D4E9085628
:101AC000002EDDD05FF0000715F8010B009015F82F
:101AD000011B361F40EA0120009015F8021B40EA66
:101AE0000140009015F8011C40EA01600090694631
:101AF000206801F064F97F1C082FE5D3C4E908567B
:101B0000F8BD416B40F23A221142F9D0416B89078E
:101B100003D5A16B41F00201A163416B090703D515
:101B2000A16B41F00801A163416B890603D5A16B4C
:101B300041F02001A163416BC90603D5A16B41F0BF
:101B40001001A163416B890503D5A16B41F0080128
:101B5000A16340F23A7181632068C16B40F23A326E
:101B60009143C163206801F0B7FAA16B0843A063F9
:101B7000280706D584F8347026632046FFF734FE24
:101B8000F8BD2806FCD515F0300F0CD0E16B1148DC
:101B90000865E06BFEF736FD0028F1D0E06BBDE88C
:101BA000F84001F0A1BCA8070CD0216C0A480865D8
:101BB000206CFEF727FD0028E2D0206CBDE8F8403D
:101BC00001F069BCA66384F8347026632046FFF7F1
:101BD0008DFDF8BDE93400089734000870B50400A5
:101BE0000ED094F83400002518B92577204600F06F
:101BF0003BF8032084F83400204600F00BF808B1CD
:101C0000012070BDA5632563012084F83400002005
:101C100070BD0000FEB50025044676200095CDE994
:101C2000015029460B460A46206801F09BF808B18E
:101C30000120FEBD0B4E46F8A05F206801F0A4F81D
:101C400001253560204601F053FD20B9204601F002
:101C5000D7FC0028EDD084F83450A16B0143A16378
:101C6000E6E70000008025422DE9F04F87B00546E9
:101C700014216846FEF764FB4E49286888427DD1EE
:101C80004D4800684C4940F400600860086800F462
:101C900000600590484814380068474940F001004A
:101CA00014390860086800F001000590086840F0E9
:101CB000020008600868012700F0020005904FF458
:101CC000507000900220CDE9010703260C24CDE9D5
:101CD000036469463948FEF72DFEF80300900220A0
:101CE00001900020CDE90206DFF8D4806946049413
:101CF0004046FEF71FFE302000900220CDE901078C
:101D0000CDE9036469464046FEF714FE2E4C2D488B
:101D10004FF00068C4E90008002004F10C014FF402
:101D200080694FF4805AA06081E80106B803A06181
:101D30002020E061002020624FF0040BC4E909B6C6
:101D4000FE05B7102046C4E90B67FEF73FFD08B15A
:101D5000FEF7F7FB2C64A5631A481C4C48304FF47F
:101D60008041C4E900084020A060C4E905A100202A
:101D7000C4E903092021C4F824B000E016E0C4E956
:101D8000071004F12801032081E8C1002046FEF776
:101D90001DFD08B1FEF7D5FBEC63002205213120C3
:101DA000A563FFF7A7F93120FFF796F907B0BDE863
:101DB000F08F0000002C0140443802400000024037
:101DC000000402405864024044030020A4030020A1
:101DD0002DE9F04786B01F460446154639B194F800
:101DE0003400012807D0022006B0BDE8F087A06BC0
:101DF00040F0006008E00020A063E36DEA199A4219
:101E000004D9A06B40F00070A0636FE0032284F857
:101E1000342022688246D0622268D36B40F22A3690
:101E20003343D363236C324A4FEA4729DA63236C86
:101E3000304ADA64226C4FEA9903106520680A463A
:101E4000266C00F180013046FEF72AFDDFF8A880FD
:101E5000012660B12068C16B21F49571C1632168CE
:101E6000C1F83880A06B40F08040A06311E02348A7
:101E70000660606C012800D06D024FF4007120688C
:101E800000F0D6FF40B12268C2F83880A16B014350
:101E9000A16384F8346029E04FF0FF30CDE90009F8
:101EA0009020029002200596CDE9030AD1466946AA
:101EB000206800F037FF012F06D9822020632946D1
:101EC000206801F049F805E0812020632946206858
:101ED00001F05BF8002887D02268C2F83880A16B37
:101EE0000143A16384F83460C4F8309001207BE79B
:101EF00055340008F1330008FF0540008C85254269
:101F000010B5FEF795FA10BD10B5FEF7A9FA10BD91
:101F10002DE9FF4F87B0044608981F46164638B192
:101F200094F83400012807D002200BB0BDE8F08FF0
:101F3000A06B40F0006008E00025A563E16DF0199A
:101F4000884204D9A06B40F00070A06361E00320D8
:101F500084F834002068C5622068C16B40F21A2AF8
:101F600041EA0A01C163E16B3248C863E16B324860
:101F7000C864E06B0565606C012800D076024FF400
:101F80000071206800F054FFDFF8B0904FF00108B6
:101F900040B12268C2F83890A16B0143A16384F874
:101FA000348036E04FF0900B012F06D9A02020633B
:101FB0003146206801F0AAF805E0C4F830B0314697
:101FC000206801F0BCF840B12268C2F83890A16BDB
:101FD0000143A16384F834801AE019484646C0F8EA
:101FE000008022687F02BB08E06B80320899FEF710
:101FF00057FC80B12068C16B21EA0A01C1632168E6
:10200000C1F83890A06B40F08040A06384F8346041
:102010002563012089E74FF0FF30CDE90007CDE9C6
:1020200002B5CDE904566946206800F07BFE002029
:102030007BE70000DB340008F1330008FF054000B7
:102040008C8525427047704770B590F83C20012A76
:102050002CD0012480F83C40022280F83D20036807
:102060005A689D6822F070060A6832435A60104B25
:1020700002689A420ED0B2F1804F0BD00D4B9A42BB
:1020800008D00D4B9A4205D00C4B9A4202D00C4B13
:102090009A4204D1496825F080031943916080F881
:1020A0003D40002180F83C10084670BD022070BD04
:1020B000000001400004004000080040000C004007
:1020C0000040014010B5040003D094F83D0010B169
:1020D00007E0012010BD002084F83C00204600F0FD
:1020E0000DF8022084F83D00211D206801F090FDCC
:1020F000012084F83D00002010BD000008B50068F4
:102100000B49884212D10B48016841F0040101607B
:102110000068002200F00400009005211E20FEF758
:10212000E9FFBDE808401E20FEF7D6BF08BD00004D
:1021300000080040403802400168CA6842F00102CD
:10214000CA600068816801F00701062903D00168B0
:1021500041F0010101600020704770B5044690F81D
:102160003C00012817D0012584F83C50022084F857
:102170003D002068826822F0770222F47F4282606C
:102180000868502830D00DDC20284DD005DC98B3ED
:1021900010283BD148E0022070BD302844D04028B0
:1021A00034D139E0602828D0702806D0B0F5805F9F
:1021B0002CD0B0F5005F29D10AE0CB68D1E901212C
:1021C000206801F071FD2068816841F0770109E025
:1021D000CB68D1E90121206801F066FD20688168A3
:1021E00041F48041816011E0CA684968206801F0CB
:1021F0006DFD5021206807E016E0CA684968206834
:1022000001F075FD6021206801F058FD84F83D5013
:10221000002084F83C0070BDCA684968206801F05D
:1022200055FD40212068EFE7226801461046EBE7A4
:10223000704770B50446006801694FF00005C94356
:10224000890715D4C168C943890711D4E91E016102
:1022500001202077206880698007204602D0FFF7A0
:10226000E7FF04E000F098F8204600F096F82577A4
:1022700020680169C943490717D4C168C9434907A0
:1022800013D46FF004010161022020772068806977
:1022900010F4407F204602D0FFF7CAFF04E000F0B0
:1022A0007BF8204600F079F8257720680169C9435A
:1022B000090716D4C168C943090712D46FF0080191
:1022C0000161042020772068C0698007204602D081
:1022D000FFF7AEFF04E000F05FF8204600F05DF885
:1022E000257720680169C943C90617D4C168C94365
:1022F000C90613D46FF0100101610820207720680F
:10230000C06910F4407F204602D0FFF791FF04E03F
:1023100000F042F8204600F040F825772068016977
:10232000C943C90708D1C168C943C90704D1891E77
:102330000161204600F032F820680169C9430906AE
:1023400009D4C168C943090605D46FF08001016151
:102350002046FFF777FE20680169C943490609D482
:10236000C168C943490605D46FF0400101612046A8
:1023700000F052F820680169C94389060BD4C1688E
:10238000C943890607D46FF0200101612046BDE8EA
:102390007040FFF758BE70BD7047704770B5044677
:1023A00000681A49884201D1FEF71EFE18492068CC
:1023B000884229D117480A244189491C89B24181A0
:1023C0008289B1FBF4F5521C93B28381028A04FB2B
:1023D0001515521C92B20282002115B90125C57152
:1023E0004181B3FBF4F504FB15331BB9C3895B1CB6
:1023F000C381818142F21073B2FBF3F403FB142218
:10240000002A01D18171018270BD0000000C0040E2
:1024100000080040000000207047704770B5026857
:1024200004461068D168536910F00F0F52D003F0C2
:10243000010501F490762E435FD0C20705D0CA058E
:1024400003D5E26B42F00102E263420705D5DA07E9
:1024500003D0E26B42F00202E263820705D5DA079D
:1024600003D0E26B42F00402E263020707D501F0F9
:1024700020022A4303D0E26B42F00802E263E26BDF
:10248000002A33D0800604D5880602D5204601F004
:10249000A7FC20684069E16BC0F38010090700D4F5
:1024A00028B3204601F085FC2068416949061AD509
:1024B000416921F040014161606BA0B11B49016598
:1024C000606BFEF79FF8002810D0606B016DBDE8CF
:1024D00070400847830610D58B060ED52046BDE810
:1024E000704001F07DBC2046FFF797FF70BD20468D
:1024F000FFF793FF0020E06370BD030606D50B06CF
:1025000004D52046BDE8704001F04ABD4006F3D531
:102510004806F1D5D168204621F04001D160202144
:1025200084F8391000F082F970BD0000133D0008F6
:1025300070B5040004D094F83900002510B106E00D
:10254000012070BD84F83850204600F023F8242084
:1025500084F839002068C16821F40051C160204628
:1025600001F08AFC2068016921F490410161206832
:10257000416921F02A0141612068C16841F400519C
:10258000C160E563202084F8390084F83A00002017
:1025900070BD00002DE9F04786B0804614216846E2
:1025A000FDF7CEFE50484F4CD8F800304E49143855
:1025B0000225012603274D4A4FF0000C4FF0070972
:1025C0004FF0080AA3422ED10B6843F010030B60B2
:1025D000096801F010010591016841F001010160F5
:1025E000016801F001010591016841F002010160FB
:1025F0000068694600F002000590A8038DE8E1023A
:102600001046FEF797F901ABCDF800A083E8E00291
:1026100069463748FEF78EF9002205212520FEF78E
:1026200069FD25203CE0334CA3423ED12E4964464F
:10263000091F0B6843F400330B60096801F4003193
:102640000591016841F0010101600068694600F0F0
:10265000010005900C208DE8E1021046FEF76AF9B2
:10266000264D254828604FF00060C5E9010440145C
:10267000C5E9034080106C61C5E906402C6228461C
:102680006C62FEF7A3F808B1FDF75BFFC8F83450A1
:10269000002205212620C5F83880FEF72BFD2620D4
:1026A000FEF71AFD06B0BDE8F087154CA342F9D13C
:1026B0000B6843F020030B60096801F020010591CD
:1026C000016841F0010101600068694600F0010005
:1026D00005904FF4C0508DE8E1041046FEF72AF94A
:1026E000E0E70000001001404438024000000240D2
:1026F00000040240004400408860024004040020BE
:1027000000140140F8B5044690F83A0020283CD166
:10271000C1B3BAB394F83800012836D0012084F848
:102720003800A162A2850025E563222084F83A00E2
:10273000636B1748D863636B16481864636B16485D
:10274000D864606B134605650846666B21680246CF
:102750003046091DFEF7A4F8206801684168009121
:1027600084F83850C16841F48071C16020684169C3
:1027700041F0010141612068416941F0400141613E
:102780000020F8BDFFE70120FBE70220F9E7000089
:102790006D3D0008A93D0008233D000810B5006804
:1027A0000E49884219D181140D48FEF78DF90D4864
:1027B0000D4C0178FF2902D14078FF2805D0002078
:1027C0006071BDE81040FEF7C7BC06491A22A1F1AE
:1027D0001A00FDF78EFD0120607110BD004400401D
:1027E000000402402803002000000020704790F8F9
:1027F0003930202B18D1A9B1A2B190F83830012B73
:1028000012D001628284C2840021C163212280F837
:10281000392080F838100068C16841F08001C1603B
:102820000020704701207047022070477047FEE784
:1028300001684A69D24352050FD46FF480624A613D
:10284000002140F8301F202242738173026942F058
:1028500004020261017301207047002070470000EC
:102860002DE9F84F0446C06A1E4693460D4621687E
:102870000A6842F480620A60082807D0012805D05F
:1028800010F5803F02D0206B112804D12068016828
:1028900041F4807101604FF001195B460022494606
:1028A0002046009600F0C6F84FF4007840B120684A
:1028B0000068C00501D5C4F840800320BDE8F88F4A
:1028C0002069DFF884A0B0F5804F0FD00620216882
:1028D00000EAD51747F0F000086133465A460AF17E
:1028E0000601204600F0DAF858BB03E0E8B240F0F9
:1028F00001001CE02168E8B2086133465A4651469F
:10290000204600F0CBF8E0B9206841698169009168
:10291000016841F4807101605B460022494620460F
:10292000009600F087F80028C1D147F0F100216837
:10293000086133465A465146204600F0AFF8002859
:10294000BCD00120BAE7000002000100F8B504463F
:10295000C06A1E460D461746082807D0012805D034
:1029600010F5803F02D0206B122804D12068016846
:1029700041F480710160134600224FF0011120469E
:10298000009600F057F840B120680068C00502D5F5
:102990004FF4007020640320F8BD2069B0F5804F2B
:1029A0000ED00620216800EAD51040F0F000086142
:1029B00033463A460B49204600F070F878B902E0F9
:1029C00005F0FE0000E0E8B22168086105493346E1
:1029D0003A46891F204600F061F80028DCD001202B
:1029E000F8BD00000800010070B516460D4604460B
:1029F0000DE02046FFF71CFF08B1012070BD681CE8
:102A000005D0FEF76DF8801BA84207D835B12068C5
:102A10004069C0434007ECD4002070BD002044F85A
:102A2000300F20216173A073216941F020012161E1
:102A30002073E2E72DE9F0471E4690460D46044616
:102A4000C1F30747DDF8209008E0701C06D0FEF7C0
:102A500047F8A0EB0900B0420FD876B12068012FEB
:102A600018D0806925EA00000004000C14D0002171
:102A70004145EAD00020BDE8F087002044F8300F3F
:102A800020216173A073216941F02001216120732D
:102A90000120F0E74069E5E70121E9E72DE9F0478A
:102AA0009A4691460E46044600254FF02008C1F391
:102AB000074725E020684069C043400514D42068DA
:102AC000016841F40071016021686FF48060486121
:102AD000256384F83D8084F83E50206C40F004006B
:102AE000206484F83C501FE0B9F1FF3F08D0FDF7A7
:102AF000F7FFA0EB0A0149450CD8B9F1000F09D046
:102B00002068012F13D0806926EA00000004000C21
:102B10000BD0CFE744F8305F84F80D80A5732069AF
:102B200040F02000206125730120BDE8F087406956
:102B3000EAE72DE9F041002590460E46044620279D
:102B400017E04069C043C0060CD454F8301B6FF046
:102B50001000486144F810596777A577206A206211
:102B6000257717E0FDF7BCFFA0EB0800B04208D8BE
:102B70003EB120684169C9434906E2D40020BDE85E
:102B8000F08144F8305F6773A573206940F020003E
:102B9000206125730120F2E770B516460D46044604
:102BA0000DE02046FFF744FE08B1012070BD681C0F
:102BB00005D0FDF795FF801BA84207D835B12068E6
:102BC0004069C0430006ECD4002070BD002044F8EA
:102BD000300F20216173A073216941F02001216130
:102BE0002073E2E7154808B5016841F480010160EF
:102BF000016801F480010091016841F40011016055
:102C00000068002200F40010009005211020FEF75B
:102C100071FA1020FEF760FA002205213B20FEF732
:102C200069FA3B20FEF758FA002205214520FEF7FD
:102C300061FABDE808404520FEF74EBA3038024040
:102C400010B504490448FDF77DFC0249491E08708F
:102C500010BD000041000020106D000870B586B066
:102C600014216846FDF76CFB16480024016841F00A
:102C700080010160016801F080010591016841F067
:102C800001010160016801F001010591016841F055
:102C90000201016000680C4E00F002004FF4804514
:102CA0000590002229463046FDF715FF01200095CA
:102CB000CDE90104694630460394FDF73BFE06B0BA
:102CC00070BD0000303802400004024010B586B0EC
:102CD00000241248009401940294039404940E4931
:102CE0000594016040F2E731C0E901146321C0E9B5
:102CF00003148461FFF7E6F94FF4805000906946B1
:102D00000648FFF72AFA2020CDE9040404A9034865
:102D1000FFF79AF906B010BD00080040E00100205E
:102D2000FEE770470A6842624A688262D1E902237C
:102D30001A43D1E904310B43C16A1A4321F0F70168
:102D40001143C16200207047006800F00300704723
:102D500008444069704700000148FEF73BBE000090
:102D60005C01002070B50DF1100C11439CE870005F
:102D70002343194329434268314347F6FF639A438B
:102D80000A434260002070BD10B50321016002209B
:102D9000FDF7BEFD002010BDD0F8800070470A6826
:102DA0008260D1E901231A43D1E903310B43C168A1
:102DB0001A436FF30B011143C1600020704709688B
:102DC000C0F880100020704710B586B00446372048
:102DD000CDE9001040200290002003904FF4806065
:102DE000049069462046FFF7DAFF41F28832372126
:102DF000204600F0BDF906B010BD000010B5044635
:102E00000A4886B001432920CDE9001040200290F5
:102E1000002003904FF48060049069462046FFF73D
:102E2000BEFF204600F05CFA06B010BD0000108026
:102E300010B586B004461020CDE900104020029065
:102E4000002003904FF48060049069462046FFF70D
:102E5000A6FF41F288321021204600F089F906B021
:102E600010BD10B586B004460620CDE90010402004
:102E70000290002003904FF4806004906946204641
:102E8000FFF78DFF41F288320621204600F070F9ED
:102E900006B010BD30B585B00024054600940194FD
:102EA0004FF480600294CDE9034069462846FFF75D
:102EB00076FF0B484FF4FA510068B0FBF1F041F295
:102EC00088314843401E03D24FF0004005B030BD6A
:102ED000696B0906F6D5C520A8632046F6E7000011
:102EE0005400002070B585B004464FF4D5700090B2
:102EF00001A908204025002681E86100C001049056
:102F000069462046FFF74BFF12484FF4FA5100681C
:102F1000B0FBF1F041F288314843401E03D24FF03C
:102F2000004005B070BD616B11F0450FF5D009058B
:102F3000F3D4606B400701D5042003E0606BC00749
:102F400002D00120A063ECE7606B400600D5A563CA
:102F50003046E6E75400002010B586B00446122043
:102F6000CDE9001040200290002003904FF48060D3
:102F7000049069462046FFF712FF41F28832122181
:102F8000204600F0F5F806B010BD10B586B0044636
:102F90001120CDE9001040200290002003904FF452
:102FA0008060049069462046FFF7F9FE41F28832BE
:102FB0001121204600F0DCF806B010BD10B586B037
:102FC00004460720CDE90020402002900020039015
:102FD0004FF48060049069462046FFF7E0FE41F21E
:102FE00088320721204600F0C3F806B010BD10B5A6
:102FF00086B0044600210220CDE90010C020CDE9B2
:1030000002014FF48060049069462046FFF7C7FE36
:10301000204600F03DF906B010BD10B586B004465C
:103020000920CDE90010C0200290002003904FF449
:103030008060049069462046FFF7B1FE204600F00C
:1030400027F906B010BD10B586B004460021332024
:10305000CDE900104020CDE902010001049069464D
:103060002046FFF79CFE41F288323321204600F0D3
:103070007FF806B010BD10B586B004460D20CDE92E
:10308000001040200290002003904FF480600490D4
:1030900069462046FFF783FE41F288320D21204623
:1030A00000F066F806B010BD30B585B00C46054698
:1030B00000210320CDE900104020CDE902010001EC
:1030C000049069462846FFF76AFE224603212846F7
:1030D00000F028F905B030BD10B586B004460021D7
:1030E0000C20CDE900104020CDE902010001049040
:1030F00069462046FFF753FE034A0C21204600F0A4
:1031000037F806B010BD000000E1F50510B586B037
:1031100004461920CDE900104020029000200390C1
:103120004FF48060049069462046FFF738FE41F274
:1031300088321921204600F01BF806B010BD10B5EA
:1031400086B004461820CDE90010402002900020EF
:1031500003904FF48060049069462046FFF71FFEFD
:1031600041F288321821204600F002F806B010BD66
:10317000454B10B51B684FF4FA54B3FBF4F35343BB
:103180005B1E02D24FF0004010BD426B12F0450FA3
:10319000F6D01205F4D4426B520703D504218163A3
:1031A000084610BD426BD20702D00121816305E0C1
:1031B000C52282630269D2B28A4201D0012010BDC9
:1031C0000021FFF7C5FD3149084201D1002010BDA3
:1031D000002802DA4FF0007010BD410001D54020F8
:1031E00010BD810001D5802010BDC10002D54FF473
:1031F000807010BD010102D54FF4007010BD410177
:1032000002D54FF4806010BDC10102D54FF40060BB
:1032100010BD010202D54FF4805010BD410202D50D
:103220004FF4005010BD810202D54FF4804010BD14
:10323000C10202D54FF4004010BD410302D54FF446
:10324000003010BD810302D54FF4802010BDC103B2
:1032500002D54FF4002010BD010402D54FF48010B8
:1032600010BD410402D54FF4001010BD810402D5F9
:103270004FF4800010BD000702D54FF4000010BDD0
:103280004FF4803010BD00005400002008E0FFFD26
:1032900012494FF4FA520968B1FBF2F141F2883257
:1032A0005143491E02D24FF000407047426B12F06A
:1032B000450FF6D01205F4D4416B490703D504211C
:1032C000816308467047416BC90703D001218163C0
:1032D00008467047C52181630020704754000020D4
:1032E0000F494FF4FA520968B1FBF2F141F288320A
:1032F0005143491E02D24FF000407047426B12F01A
:10330000450FF6D01205F4D4416B490703D50421CB
:10331000816308467047C521816300207047000023
:103320005400002030B5204B4FF4FA541B68B3FB17
:10333000F4F341F2883463435B1E02D24FF0004045
:1033400030BD446B14F0450FF6D02405F4D4436B24
:103350005B0703D504218163084630BD436BDB075F
:1033600002D00121816303E00369DBB28B4201D00B
:10337000012030BDC52181630021FFF7E9FC10F475
:10338000604F04D0410406D54FF4005030BD000C0E
:103390001080002030BD000402D54FF4805030BDB5
:1033A0004FF4803030BD00005400002010B5064CB2
:1033B00001202070FDF708F818B9207820F00100EE
:1033C0002070207810BD00003800002070B5054640
:1033D00001F059FE044603E0FCF7F6FF002806D092
:1033E00001F051FE001BA842F6D34FF0FF3070BD34
:1033F00010B5846BFDF718F9022828D0206C416DB8
:10340000E06B406D012901D001281DD121681048D1
:1034100088632068C16B21F49D71C163A06B40F08B
:103420008040A0632046FEF7BFFA062801D0052899
:1034300005D12068FFF750FEA16B0843A06301206F
:1034400084F83400002020632046FEF7CDF910BD3B
:10345000FF05400010B5846B206B822809D12068DD
:10346000FFF73AFE28B1A16B0143A1632046FEF7A6
:10347000BBF92068C16A21F00801C162216840F2ED
:103480003A508863012084F83400002020632046ED
:10349000FEF736FD10BD10B5846B40F23A5021683E
:1034A00088632046FEF780FA012184F83410002159
:1034B0002163062801D0052805D12068FFF70CFEFE
:1034C000A16B0843A063A06B0028204602D0FEF742
:1034D0008BF910BDFEF70AF910BD806B0068C16B57
:1034E00041F48071C163704710B5846B40F23A506B
:1034F000216888632046FEF757FA012184F83410CA
:1035000000212163062801D0052805D12068FFF796
:10351000E3FDA16B0843A063A06B0028204602D006
:10352000FEF762F910BDFEF7E1F810BD2DE9F04F8E
:1035300089B00D460446FDF7D3FA0026834600966F
:103540000196374608212068FFF772FC002834D125
:10355000B4F8500001042068FFF736FC00282CD195
:10356000401E4FF00808CDE9020830204FF0020954
:10357000CDE904090120CDE9067002A92068FFF712
:10358000D1FB2068FFF75FFD002816D1EA4640F224
:103590002A472068416B394212D1416B890204D518
:1035A000FFF7FAFB4AF82600761CFDF799FAA0EB24
:1035B0000B00401CEDD14FF0004009B0BDE8F08F8A
:1035C000416B090703D5C0F838800820F5E7416B47
:1035D000890703D5C0F838900220EEE7416B8906D1
:1035E00003D5202181630846E7E740F23A51816321
:1035F000019800BA2860009800BA68600020DCE7F3
:1036000010B590B004460120ADF838002068FFF7EF
:103610009BFB002854D0606C032842D02068FFF741
:10362000E6FC00284AD100212068FFF791FB606783
:1036300004212068FFF78CFBA06708212068FFF7B2
:1036400087FBE0670C212068FFF782FBC4F880004D
:10365000606C032825D00EA92068FFF725FD0028FF
:103660002CD1606C03281CD0BDF838002065010403
:103670002068FFF7D2FC002820D100212068FFF746
:1036800067FB606604212068FFF762FBA0660821E3
:103690002068FFF75DFBE0660C212068FFF758FB10
:1036A000206704212068FFF753FB000DE06403A9A5
:1036B0002046FEF79BF830B14FF0805010B010BD9F
:1036C0004FF08060FAE7B4F850000023020420684D
:1036D000FFF774FC0028F1D104F1100007C88DE851
:1036E000070094E80F00FFF73DFB0020E6E700002D
:1036F0002DE9F84F0026044600963546B04600688E
:10370000FFF7C8FB002827D12068FFF7EBFB4FF03D
:10371000805B4FF001094FF6FF7748B1A66420683F
:10372000FFF7B8FB002817D1A06C012802D020E0D9
:10373000C4F8489000212068FFF746FB58B918E00C
:1037400000212068FFF740FB002805D15146206882
:10375000FFF754FB10B15846BDE8F88F00212068F0
:10376000FFF7F6FA05464FEAD0780098401C009023
:1037700002E0DFF82CA00098B84202D2B8F1000FA6
:10378000DED00098B84202D34FF08070E4E76800C2
:1037900002D5C4F8449000E066640020DCE7000035
:1037A000000010C17FB50F4C05460120207001F0CC
:1037B0005CFCA0B1FCF714FE18B92846FFF7F6FD33
:1037C0002070207801280AD0606840B9064B0FCBE2
:1037D0008DE80F000021684601F061FC60602078F0
:1037E00004B070BD38000020246D000810B51248E8
:1037F00088B014460078C00702D0032008B010BD7E
:10380000C1B1012905D0022908D003290CD0042018
:10381000F4E76846FCF7D2FD06980AE06846FCF734
:10382000CDFD0798208005E06846FCF7C7FD0798A6
:10383000400A20600020E1E7380000202DE9FE4F1B
:1038400047F23059984617468A4601254846FFF701
:10385000BDFD00283BDB1F4E5FEA8A7003D0CB46DC
:103860000024B1462DE0424639465046FCF7D2FDD1
:1038700068BB4A466846716801F024FCDDE9000136
:10388000102824D1012921D021E039467F1C0122B2
:103890001148FCF7BFFD060015D15A466846D9F815
:1038A000041001F00FFCDDE90010102908D10128F7
:1038B00006D1420208495046FCF71BFD0AF5007A82
:1038C000641C4445E1D3444501D106B9002528468E
:1038D000BDE8FE8F3800002064040020FFF766BDBD
:1038E0002DE9FE4F47F23056984617468A46012585
:1038F0003046FFF76BFD002848DBDFF898905FEA61
:103900008A7002D00024B3463AE042463946504617
:10391000FCF798FDD0BB32466846D9F8041001F098
:10392000D1FBDDE90010102930D102282ED101F0A1
:10393000AAFB841903E000BFFCF746FD28B301F0A1
:10394000A2FBA042F8D321E039467F1C0122124895
:10395000FCF778FD060015D15A466846D9F80410E0
:1039600001F0B0FBDDE90001102808D1022906D1E1
:10397000420109495046FCF7BCFC0AF5007A641C78
:103980004445E1D3444501D106B900252846BDE8A8
:10399000FE8F0000380000206404002088B0FFF78C
:1039A0004FF901225849594800F002FE0A2258A155
:1039B0005A4800F03BFE5A4D4FF4804400282146FF
:1039C00028467CD0FDF780F84FF4FA66304601F0C7
:1039D00045FB21462846FDF777F8304601F03EFBCF
:1039E00021462846FDF770F8304601F037FB2146A6
:1039F0002846FDF769F84B4C4B4D0027E846E07927
:103A00000028FCD0E771607938B347491A222E317B
:103A10006846FCF76EFC677120214448FCF790FC77
:103A200046461422B11C4148FCF763FC9DF8170080
:103A30009DF81610052240EA0120608239483B4972
:103A40003030FCF7A3FD80B2A082618A884257D152
:103A50001422B11C281DFCF74CFC32481C3001F02C
:103A6000B3FF3048283001F0FFFF2E48223001F02C
:103A7000DFFF2C492C4806221C311830FCF739FC9A
:103A800028492948062228311E30FCF732FC2549F6
:103A90002548062222312430FCF72BFCFF262E700D
:103AA0006E70E089010AA970E87020482821203052
:103AB000FCF746FC1D482622A91C203000E01AE035
:103AC000FCF717FC194917480A2220313030FCF75F
:103AD0005DFD2081010A85F82A1085F82B0085F804
:103AE0002C60FE20104985F82D002E22A1F1C00087
:103AF000FEF77DFE83E7FCF7E7FF4FF4FA7665E714
:103B00002079401C20717AE74100002064060020E3
:103B1000746573742E747874000000009C16002085
:103B20000004024000000020E0020020C00000204D
:103B300010B5502080F31188BFF34F8FBFF36F8F04
:103B400002F042FF18B104494FF080500860002095
:103B500080F3118810BD000004ED00E030B593B093
:103B600030216846FCF7ECFB14210CA8FCF7E8FBBD
:103B700018480025016841F080510160006800F09C
:103B8000805011901448016841F440410160006880
:103B9000022400F440401190012003901020049072
:103BA000009406940820CDE907506420CDE909046B
:103BB00005200B906846FDF7EBFB0CA90F2081E870
:103BC0003100E002CDE90F0503210CA8FDF7D6FA7C
:103BD00013B030BD40380240007000400548016815
:103BE00041F47001016003494FF0006080390860C2
:103BF0007047000088ED00E00148FEF71ABB0000A6
:103C0000E00100200148FEF714BB0000202900203D
:103C1000F0B502681D4B1E4C9F031E4D1E4E984270
:103C200007D0B84205D0A04203D0A84201D0B0428C
:103C300004D122F0700C4A6842EA0C02984210D07B
:103C4000B8420ED0A0420CD0A8420AD0B04208D050
:103C5000124CA04205D0124CA04202D0114CA042FE
:103C600003D122F44074CA6822434C6922F08002D6
:103C7000224302608A68C2620A688262984201D165
:103C80000969016301214161F0BD000000000140AC
:103C90000004004000080040000C004000400140CB
:103CA000004401400048014010B5846842EA032204
:103CB00024F47F440A432243826010BD826822F0CC
:103CC00070020A4342F007018160704710B5036A31
:103CD000046A24F001040462846924F0F00444EAD4
:103CE000021423F00A020A438461026210BD10B577
:103CF000036A23F0100303628369046A23F47043A8
:103D000043EA023224F0A00343EA01118261016216
:103D100010BD10B5806B0021C185C184FEF77DFB0D
:103D200010BD70B5846B2068406994F83910C0F3F9
:103D3000C0100025212904D118B1E584204600F0E7
:103D400046F82068406994F83A10C0F380102229A0
:103D500004D118B1E585204600F02BF8E06B40F067
:103D60001000E0632046FEF758FB70BD10B5014619
:103D7000806B09680968C90513D40021C1850168F1
:103D8000CA6822F48072CA6001684A6922F001029E
:103D90004A6101684A6922F040024A61202180F8A4
:103DA0003A10FEF7FBFC10BD10B5806BFEF71EFD50
:103DB00010BD0168CA6822F49072CA6001684A693D
:103DC00022F001024A61202180F83A107047016810
:103DD000CA6822F0C002CA60202180F839107047FA
:103DE00010B590F83A10222901D0022010BD816848
:103DF000B1F5805F11D00169002901681FD04968C1
:103E000001F07F03816A4A1C82620B70C18D491EDA
:103E10000904090CC18518D02BE00269816A002AC7
:103E20000268526805D0D2B20A80816A491C816258
:103E3000ECE7C2F308020A80816A891CF7E74A6846
:103E4000816A4B1C83620A70E0E70168CA6822F04D
:103E50002002CA600168CA6822F48072CA600168E0
:103E60004A6922F001024A61202180F83A10FEF7E7
:103E700095FC002010BD00002DE9F04104460068CB
:103E80000169E26821F44051114301612169A06890
:103E9000E26908436169114308432168CA6849F22D
:103EA0000C639A430243CA6020684169A26921F405
:103EB000407111434161E069192764253226B0F54C
:103EC000004F354A354920684FF0000806D0884237
:103ED00001D0904236D1FDF71BFA35E0884201D07F
:103EE000904202D1FDF714FA01E0FDF701FA616892
:103EF0004A18A0FB070148EB0803FCF7C9F9014683
:103F0000B0FBF5F00201B1FBF5F06FF01803584378
:103F100001EB800006EBC000B0FBF5F000F0F8000C
:103F200002EB4002B1FBF5F0584301EB800006EBD9
:103F3000C000B0FBF5F000F0070021681044886075
:103F4000BDE8F081FDF7D4F961688B0F8A00A0FB12
:103F50000701FCF79DF90146B0FBF5F06FF0180280
:103F6000504301EB800006EB0010B0FBF5F000F0D1
:103F7000F002B1FBF5F002EB0012B1FBF5F06FF0CF
:103F80001803584301EB800006EB0010B0FBF5F07E
:103F900000F00F00D1E700000014014000100140C4
:103FA00090F83910212901D0022070478168B1F5BD
:103FB000805F016A0BD04A1C026202680978516076
:103FC000C18C491E0904090CC1840ED017E0098870
:103FD0000268C1F30801516001690029016A02D039
:103FE000491C0162ECE7891CFBE70168CA6822F002
:103FF0008002CA600068C16841F04001C1600020D1
:10400000704700000148FEF709BA000020020020B6
:104010000148FEF703BA000060020020FEE709072E
:10402000090E002804DB00F1E02080F8001470473E
:1040300000F00F0000F1E02080F8141D704702E04E
:1040400008C8121F08C1002AFAD170477047002023
:1040500001E001C1121F002AFBD1704710B50446D0
:104060000020E070401E6063204600F0DEFF08B1D3
:10407000042010BD04F2362000F024FFA0F52A41F0
:10408000553901D0032010BD94F83800E92805D037
:10409000EB2814D194F83A00902810D104F16E0066
:1040A00000F005FF0749B1EB002F06D004F18A00AC
:1040B00000F0FDFE0449884201D1002010BD02201D
:1040C00010BD00000046415446415433F0B5002273
:1040D000144D134605EB021426685EB10768BE4214
:1040E00009D166688768BE4205D1A4684669B442B2
:1040F00004D000E00123521C022AEBD3022A01D093
:1041000069B904E04BB9022907D01220F0BD05EBD4
:1041100002108089B0F5807F01D00020F0BD102012
:10412000F0BD00006029002030B50021054B0C4691
:1041300003EB01121568854200D11460491C022965
:10414000F6D330BD60290020C269891E921E8A42C2
:1041500001D800207047026B408901FB00207047A6
:104160002DE9F04105680F00804606D000F017FDEC
:10417000022809D20120BDE8F0816E6916B1E86914
:10418000B04207D8012605E0411CF4D0E96981421C
:10419000F1D83E463446E869641CA04202D80224A5
:1041A000022E0AD32146404600F0F9FC38B101281E
:1041B000E1D0411CDFD0B442EDD10020DBE74FF06D
:1041C000FF3632462146284601F0DDFA30B957B1B4
:1041D00022463946284601F0D6FA20B101280FD0F0
:1041E00001242046C7E76C61D5E90601891E884293
:1041F00001D8401EA861287940F001002871F0E73D
:104200003446EEE72DE9F0410E4624300D680446B1
:104210000B22202100F002FF0020014608272A5C23
:10422000401C202A12D92F2A0BD05C2A09D02E2A12
:1042300001D0B94214D30B2F22D02E2A20D10CE06A
:10424000401C2B5C2F2BFBD05C2BF9D0284430601A
:10425000B1B12078E5281FD020E008210B27DEE748
:10426000802A03D3114B1A4412F8802C10A300E0CB
:104270005B1C93F800C0BCF1000F04D09445F7D14B
:104280000620BDE8F081A2F16103192B01D8203A84
:10429000D2B26254491CC2E705202070202A01D8FE
:1042A000042000E00020E0720020EAE7546D0008DE
:1042B000222A2B2C3A3B3C3D3E3F5B5D7C7F00003D
:1042C0002DE9F04104460021056800F0DFF80028E0
:1042D00026D12846E16900F0A8FE02001FD1206A1D
:1042E000017899B1C17A01F03F01A171C17A090742
:1042F0000FD404F124010B2610F8013B11F8017BC7
:10430000DB1B761E04D0002BF6D002E0042206E070
:104310002BB10021204600F005F80200D9D010464C
:10432000BDE8F0812DE9F047054647690468C0699A
:104330008946203710B1B7F5001F02D30420BDE82D
:10434000F087A189B7FBF1F201FB127100295FD15F
:10435000401CE861A9694FF0000819B3A08962897F
:10436000B7FBF0F0521E104252D1284600F017FC65
:10437000064601281FD9701C36D0E069B04241D8EA
:10438000B9F1000F12D02846A969FFF7E9FE06002F
:104390000FD0012E0FD0701C26D0204601F0E4FB78
:1043A00010BB0AE02089B0EB571F31D8C5F81C803C
:1043B000C4E70720C3E70220C1E7A289002104F176
:1043C000380000F02BFE4FF0000831462046FFF782
:1043D000BBFE4FF0010960630DE000BF84F803905D
:1043E000204601F0C1FB08B10120A8E7606B08F18D
:1043F0000108401C606361894145EFD8616BA1EB06
:104400000800606331462046AE61FFF79DFEE8611B
:104410006F61A089B7FBF0F100FB117020443830C8
:10442000286200208BE770B504460021066800F082
:104430002DF80DE03046E16900F0F7FD50B9206A33
:104440000078E52809D040B101212046FFF76AFF36
:104450000028EFD0042807D007E03046E16900F0DB
:10446000E4FD050003D00FE0072005460CE0202204
:104470000021206A00F0D2FD0B2204F12401206A01
:1044800000F0C2FD0120F070284670BD2DE9F0411A
:1044900004680F460646B1F5001F3CD2F8063AD133
:1044A0007761B56825B92078032806D3E56A25B178
:1044B0006089A18900FB01F812E02089B0EB571F49
:1044C00029D9E06A12E0304600F069FB0546401C3D
:1044D0001FD0022D1FD3E069A8421CD9A7EB080703
:1044E00047452946EFD22046FFF72EFEC6E9065083
:1044F00088B1A189B7FBF1F10844F061A089B7FB4D
:10450000F0F100FB11702044383030620020BDE82B
:10451000F0810120FBE70220F9E70000084910B50F
:104520000B5C002253B901220A540A1801EB8000E7
:10453000127A40680168104688470246104610BD4E
:104540008029002030B4054C231804EB80001B7A2E
:10455000406804691846A44630BC604780290020A2
:1045600030B4054D2C1805EB8000247A406885682E
:104570002046AC4630BC604780290020044A111810
:1045800002EB8000097A4068426808461047000044
:104590008029002030B4054D2C1805EB8000247ACA
:1045A0004068C5682046AC4630BC60478029002082
:1045B0002DE9F74181B0904602980090684600F0DE
:1045C00064FB040003D50B2004B0BDE8F081164E57
:1045D000002756F824503DB12846FFF7A5FD28696D
:1045E00000F044F988B12F70019929B101F8107BCE
:1045F000E0B200F02DF940B1019846F8240010B166
:10460000B8F1010F03D00020DEE70220DCE7002232
:1046100001A902A800F03CF904460146019801F006
:10462000CCFA2046D0E700005C0000202DE9F743DB
:1046300094B005000BD002F03F063246694615A83B
:1046400000F026F904004FF0000804D0F3E0092040
:1046500017B0BDE8F0830098049004A8159900F005
:1046600061FA04000ED19DF83F00000601D5062432
:1046700008E0700801D0012100E0002104A8FFF744
:1046800025FD044616F01C0F5DD04FF00109C4B1A2
:10469000042C10D100206D4902E0401C022804D2F5
:1046A00001EB00121268002AF7D1022807D004A8F3
:1046B000FFF7B9FE044646F008065CB1BBE01224E1
:1046C000B9E09DF8160010F0110F47D1700701D521
:1046D0000824B0E0300747D500F0D5FA07460C981B
:1046E00039460E3001F034FA0C983946163001F094
:1046F0002FFA0C982021C1720C99009800F0C4FB8D
:10470000074600220C99009801F00EFA0C9800213F
:104710001C3001F01DFA009981F8039017B3D1F80D
:1047200034900022394604A801F0C4F9040009D1EC
:104730004946009800F079FC04000098A7F10107B1
:1047400047610DD077E0ECBB9DF81600C10601D59E
:10475000042470E0B10703D5C00701D007246AE044
:10476000300701D546F040060098406B68620C980F
:10477000A862700801D0012100E0002104A800F027
:10478000A9FA2861C0B30C99009800F07DFBA860DD
:104790000C981C3000F08BFBC5F82C80E860009969
:1047A0002960009905F130004FF48052C988A98032
:1047B0002E7585F81580C5F8208000218146C5F842
:1047C000188000E037E000F029FCB00635D5EE682F
:1047D0009EB3AE610098A9684789808947430FE07E
:1047E000284600F0DCF90146012800D80224481CC4
:1047F00003D0F61B24B105E025E00124F61B01E0FF
:10480000BE42EDD8E961B4B900988289B6FBF2F3F3
:1048100002FB13628AB1FFF797FCA0B10099012354
:104820008A89B6FBF2F202442A6248784946FFF7C9
:1048300097FE10B10124C5F800802146009801F0D0
:10484000BCF9204604E70224F5E7000060290020B7
:104850001CB500200C46009001900121684600F034
:10486000A9FC2060002800D001201CBD10B500F07C
:10487000C0FC012010BD00F0C9BC10B500244FF4ED
:104880007A7100F0EBFC00B90124204610BD000055
:104890002DE9FF41002790460E460F6000F0F5F924
:1048A000050003D50B2004B0BDE8F0819A4850F80C
:1048B0002540BCB1204600F00AFBA8B13460207846
:1048C00008F0FE0620B16078FFF758FEC1070DD052
:1048D0002770E8B2B8466070FFF720FEC1070AD023
:1048E0000320E0E70C20DEE70F20DCE70EB14007F5
:1048F00004D40020D7E71EB1400701D50A20D2E733
:10490000607804F10C020221FFF71CFEF0BBA089C5
:10491000A0F50071B1F5606F3FD8411E08423CD14F
:10492000002631462046FFF799FB022822D10025B8
:104930004FEA0D0704EB051090F8FA1100F5FB7033
:1049400019B1083000F0B3FA00E0002047F8250064
:104950006D1C042DEED3002557F8256036B1314685
:104960002046FFF77BFB022801D203E003206D1CE9
:10497000042DF1D3042810D0022878D204F143008A
:1049800000F0A0FAA189884271D100E005E004F1AD
:104990004E0000F097FA10B105E0012083E704F122
:1049A0005C0000F084FA206294F84850A570012D54
:1049B00001D0022D5BD1454394F845006081E8B3F6
:1049C000411E084253D104F1490000F07BFA2081D6
:1049D000A1894909B0FBF1F201FB120070BB04F19F
:1049E0004B0000F06FFA070004D104F1580000F00A
:1049F0005EFA074604F1460000F064FA010036D082
:104A0000A08923894009B3FBF0F04A190244974278
:104A10002DD3B81A6789B0FBF7F078B103274FF6AA
:104A2000F57C604500D8022740F6F57C604500D84B
:104A300001273244801C3144226300E017E0E0612A
:104A4000C4E90961032F14D08BB12944E162022F1C
:104A500020D000F0010100EB400001EB5000A189E3
:104A6000401E0844B0FBF1F0216A884214D90D20A1
:104A700019E704F1620000F025FA0028F7D1208937
:104A80000028F4D104F1640000F011FAE062E0695A
:104A90008000E4E74000E2E74FF0FF30A061606192
:104AA00080202071032F2CD104F1680000F00AFA55
:104AB000012826D1711C204600F0B7FA08BB84F803
:104AC000048004F2362000F0FDF9A0F52A415539A2
:104AD00017D104F1380000F0EAF91049884210D1EA
:104AE00004F5077000F0E3F90D49884209D104F597
:104AF000087000F0DCF9A06104F5097000F0D7F946
:104B0000606105492770091F0888401C0880E08003
:104B10002046FFF709FBECE65C00002052526141A1
:104B20007272416173B504460568019801E0401C4A
:104B3000019001782F29FAD05C29F8D00021A160DA
:104B400001980078202806D2802084F82F00204683
:104B5000FFF79CFC7CBD01A92046FFF753FB002812
:104B6000F8D12046FFF7ACFB94F82F1028B10428A9
:104B7000F0D14907EED405207CBD4907FCD4A079CB
:104B8000C006F8D5A9896069B0FBF1F201FB1200FB
:104B900041192846383100F077F9A060DBE72DE9AC
:104BA000F04104680D4602290BD3E069A84208D9F8
:104BB00020784FF0FF36012807D0022834D0032890
:104BC00049D001263046BDE8F081A08905EB5507A4
:104BD000B7FBF0F0A16A0144204600F026FA002855
:104BE000F0D1A089B7FBF0F100FB11717F1CB7FB7E
:104BF000F0F0214491F83880A16A0144204600F089
:104C000014FA0028DED1A089B7FBF0F100FB117087
:104C1000204490F8381048EA0120E90701D006093D
:104C2000D0E7C0F30B06CDE7A089A16A4008B5FB29
:104C3000F0F00144204600F0F8F90028C2D1A18923
:104C40006800B0FBF1F201FB12002044383000F0A4
:104C500039F90646B6E7A089A16A8008B5FBF0F0ED
:104C60000144204600F0E1F90028ABD1A189A80059
:104C7000B0FBF1F201FB12002044383000F017F9CC
:104C800020F070469EE70020704710B504464FF0B4
:104C9000FF302268002A13D0114600E0491C0B782F
:104CA000212B0ED33A2BF9D112F8013B303B0A2BC2
:104CB00006D28A4204D1002B02D1491C1846216039
:104CC00010BD002010BDEFF30580002800D00120AA
:104CD00070470000F0B502461D4BD2F8005000208E
:104CE00003EB00142668AE4207D166689768BE429F
:104CF00003D1A4685669B44202D0401C0228EFD305
:104D0000022814D1002002E0401C022804D203EB48
:104D100000142468002CF7D102280ED003EB0014F5
:104D20002560956865605269A2600022A281002911
:104D300003EB0011898902D019B10020F0BD491C94
:104D400001E04FF4807103EB0012401C9181F0BD33
:104D50006029002010B500220A21182001F05EF918
:104D60006420FBF7D5FD0F220A21182001F056F927
:104D70006420FBF7CDFD00220A21182001F04EF936
:104D80006420FBF7C5FD0748C178807841EA001030
:104D9000C2B20A21182001F041F9BDE81040642098
:104DA000FBF7B6BD0000002010B500226B21D22019
:104DB00001F034F96420FBF7ABFD01226B21D22016
:104DC00001F02CF96420FBF7A3FD03221A21D22065
:104DD00001F024F96420FBF79BFD04221921D22065
:104DE00001F01CF96420FBF793FD1B21D22000F099
:104DF00007FE04466420FBF78BFD24F01A00214CCB
:104E0000617840EAC100C2B21B21D22001F006F94C
:104E10006420FBF77DFD1C21D22000F0F1FD2178FC
:104E200020F0180040EAC100C4B26420FBF770FD16
:104E300022461C21D22001F0F1F86420FBF768FD26
:104E40001D21D22000F0DCFD20F00F0040F0030215
:104E50001D21D22001F0E2F86420FBF759FD222247
:104E60003721D22001F0DAF86420FBF751FD01224E
:104E70003821D22001F0D2F8BDE810406420FBF7C1
:104E800047BD00000000002070B506460D4601F148
:104E90001A0000F017F804463078032805D105F110
:104EA000140000F00FF844EA0044204670BDC178B9
:104EB000827842EA01214278007842EA012140EA00
:104EC000012070474178007840EA0120704710B512
:104ED00028B10069FFF7D1FC08B1012010BD002006
:104EE00010BD000088B0FCF787F8FEF737FEFDF72D
:104EF000B5FEFDF777FE364834494FF4E13500241E
:104F00000160C0E901540C26C460C0E90446846114
:104F1000C461FDF70DFB2E482E4940300160C0E909
:104F20000154C460C0E904468461C461FDF700FB1C
:104F300027482949C438C0E900148460C4600321AB
:104F40000461C0E90541FDF7C1FE214823498030D5
:104F50000160C0E90154C460C0E904468461C461D1
:104F6000FDF7E6FA1F491E4808600846FBF725FBD7
:104F70001E481D4901601E49C0E901144FF48041DB
:104F8000C0E9034144618461C4610462FBF7AEFD82
:104F900018491A22A1F1C800FDF7B4FB0C484038AB
:104FA000FDF7CAF8FFF700FFFFF7D4FE1C221249F5
:104FB0006846FBF79EF90021684600F081F909492F
:104FC0003039886100F05AF8FEE700000010014017
:104FD0002002002000440040002C01400014014049
:104FE0000030024030000020005400400801002042
:104FF00040420F0028030020F46C00080146002006
:10500000842900D0C81C7047002A05D011F8013B44
:1050100000F8013B521EF9D1704700005FFA81F1A0
:1050200000F8011B521EFBD1704770B50446406B5F
:105030000D460026A8420FD0204600F095FD060040
:105040000AD1607801232A4604F13801FFF788FA73
:1050500008B1751E01266563304670BD10B500B9F4
:10506000012000F0CFFE002010BD10B501F090FC33
:10507000012801D0012010BD002010BD10B500F0A6
:1050800061FF002010BD10B5FFF71DFE18B1BDE88F
:10509000104001F091BCBDE8104001F087BC38B56C
:1050A000D0E9011204683AB1C3682BB10020009026
:1050B000204601F061F838BD2046BDE838400022A6
:1050C00001F036B82DE9FF410D004FF00006CDE9A3
:1050D000016507461ED000240396501C1FD002B164
:1050E0001446FFF7F0FD69464FF01008E8B103AA37
:1050F0002846091D01F0B0FA012813D00096039844
:10510000E8B114494FF080500860BFF34F8FBFF3F0
:105110006F8F14E0802031462A46009011E04FF056
:10512000FF34DEE7CDF80080E9E722462846091D76
:1051300001F0F6F9012808D054B1402000909DE814
:10514000070087E80700BDE8FF81CDF80080F6E79B
:105150000020F3E704ED00E037B5054682B00020FB
:105160000090140000D10124FFF7ADFD4FF00003C3
:1051700088B16A4603A9284601F026F9012811D111
:10518000009890B10A494FF080500860BFF34F8FEC
:10519000BFF36F8F09E0224603A9284601F064F8A7
:1051A000012802D0FF2005B030BD0020FBE7000041
:1051B00004ED00E038B543684BB1012909D1032063
:1051C000002200901146012000F0D6FF38BD0129D1
:1051D00001D0002038BD03220021012000F0A8FFEB
:1051E000040004D000231A46194601F03DF8204679
:1051F00038BD10B50446FFF766FD08B1822010BD2A
:10520000204600F0D3FD002010BD000038B500247A
:1052100005460094FFF757FD90B16946284601F016
:1052200031F9012801D0FF2038BD009888B10A4922
:105230004FF080500860BFF34F8FBFF36F8F08E0CF
:1052400000231A461946284601F00EF8012800D01E
:10525000FF24204638BD000004ED00E038B505000D
:105260004FF0000000900FD00024481C0ED001B178
:105270000C46FFF728FDB8B16A460021284601F028
:10528000EBF9012816D104E0802038BD4FF0FF343F
:10529000EFE7009880B109494FF080500860BFF3F4
:1052A0004F8FBFF36F8F07E02146284601F022FAA7
:1052B000012801D0FF2038BD002038BD04ED00E0FA
:1052C0007FB50D4604464169B0F9080081B1A16976
:1052D00071B1FFF793FED4E905128DE80700D4E918
:1052E00000102B46226901F028FB039004B070BD2A
:1052F000FFF784FE03A9CDE90001208A2B4682B284
:10530000D4E9001001F0ECFA012801D00020EDE70B
:105310000398EBE72DE9F041184C0F460546666906
:105320002068001D00F055FC38B9206890F82C105A
:1053300001208840A1698143A161681C07D137B170
:105340002168BDE8F0410E48091D00F085BC2068C9
:105350003544B5424560216805D2A068BDE8F041FA
:10536000091D00F061BC6068091D00F05DFC206B48
:10537000854200D22563BDE8F08100006000002076
:10538000A82A00202DE9F041054600F071FC2E4CC2
:105390002069401C206120682C4F10B1E06940B3A7
:1053A0002DE025602069012829D1002606EB860022
:1053B00007EB800000F02AFC761C072EF6D323486A
:1053C0008C3000F023FC2148A03000F01FFC1F4867
:1053D000B43000F01BFC1D48C83000F017FC1B481F
:1053E000DC3000F013FC19488C3060601430A06091
:1053F00005E02068E96AC06A884200D82560E06A52
:10540000401CE062E96A0120A26988401043A06163
:1054100001EB810007EB8000291D00F01DFC00F06E
:1054200047FCE06900280CD02068E96AC06A88421D
:1054300007D207494FF080500860BFF34F8FBFF38A
:105440006F8FBDE8F081000060000020CC290020B3
:1054500004ED00E030B4026C0B46002A0BD0C168AA
:105460001144C1604468A14201D30168C16030BCED
:105470001846FAF73EBF30BC70472DE9F041856B06
:10548000174604460026026C82B1C7B1E068FAF7FD
:1054900030FFE168206C091AE1602268914202D273
:1054A0006168081AE060022F16D017E02068A8B9DA
:1054B000606801F0EDFA0646002060600EE0A0682A
:1054C000FAF717FF216CA0680844A0606168884261
:1054D00004D32068A06001E005B16D1E6D1CA563BA
:1054E0003046BDE8F08110B5044690F8510058B13F
:1054F00001280CD002280FD0502080F31188BFF370
:105500004F8FBFF36F8FFEE7206B00F0E5FB204667
:10551000BDE8104000F0E0BB10BD000010484FF4A3
:105520007051420706D0C01D0D4920F00700411AF6
:10553000C1F570510B4A00230144C2E90003083948
:10554000103A21F0070111604B600B600B1AC0E9A3
:10555000001393604FF000405360D060704700002C
:10556000BC2A0020AC000020144E154CA6F1C80740
:105570004FF08058DFF84C9012E000BF00F078FB4D
:10558000F068C568281D00F024FB2069401E2061DA
:10559000E068401EE06000F08BFB2846FFF7A3FFA9
:1055A000E0680028EAD138680128F9D9C9F80080F4
:1055B000BFF34F8FBFF36F8FF2E70000942A0020F4
:1055C0006000002004ED00E00346009829B102606D
:1055D000C0E90F31012100F003BE0060F8E72DE9BA
:1055E000F0479A46DDE9098481466FF00303206B9A
:1055F00003EB82021044089D20F00706700707D0D5
:10560000502080F31188BFF34F8FBFF36F8FFEE7F9
:1056100023180A5C83F834200A5C12B1401C10285D
:10562000F6D3002784F84370072D00D30625E562E2
:10563000C4E91157201D00F0F4FA04F1180000F03D
:10564000F0FA2461C5F107006462A061E76484F8A0
:10565000507052464946304600F0A0F92060B8F13B
:10566000000F01D0C8F80040BDE8F08730B51149FF
:1056700000E011460A688242FBD34B685C18844202
:1056800003D1406818444860084643681C18944297
:1056900009D1084C103C2468A24209D052681A442F
:1056A00042600A6812680260814200D0086030BD22
:1056B0000460F9E7AC00002010B5044600F0D8FA09
:1056C000A06B28B15FF0000400F0F2FA204610BD94
:1056D0000124F9E706484168096829B14168C968A9
:1056E000C9684968016370474FF0FF31FAE700006D
:1056F0006000002008484068401C4FF0500080F3D4
:10570000118804D0BFF34F8FBFF36F8FFEE7BFF355
:105710004F8FBFF36F8FFEE7B40000202DE9F041FB
:10572000044600F0A5FA94F9455004F1240609E076
:10573000606A48B1304601F041FA08B100F090FBD0
:105740006D1E6DB2002DF3DC4FF0FF3684F845601E
:1057500000F0AEFA00F08CFA94F9445004F110070E
:1057600009E0206948B1384601F028FA08B100F094
:1057700077FB6D1E6DB2002DF3DC84F84460BDE84C
:10578000F04100F095BA2DE9F047022617460D4684
:10579000044602297DD3E069A8427AD920784FF0E7
:1057A0000109012804D0022840D003287AD154E00E
:1057B000A18905EB5508B8FBF1F0A16A0144204628
:1057C000FFF733FC06006DD1A189B8FBF1F201FBB4
:1057D00012802044383008F10108E90704D001782C
:1057E000FAB262F31F1100E03946017084F80390A9
:1057F000A189B8FBF1F0A16A01442046FFF715FC2E
:1058000006004FD1A189B8FBF1F201FB12802044C0
:105810003830E90702D0C7F3071105E00178C7F374
:10582000032201F0F0011143017039E0A089A16A5F
:105830004008B5FBF0F001442046FFF7F6FB0600F8
:1058400030D1A1896800B0FBF1F201FB12002044C5
:10585000B9B2383000F084F922E0A089A16A80084A
:10586000B5FBF0F001442046FFF7DFFB060019D13D
:10587000A089AD00B5FBF0F100FB11502044383099
:10588000FFF715FB67F31B000146A089B5FBF0F29B
:1058900000E007E000FB12502044383000F058F9D7
:1058A00084F803903046BDE8F08700002DE9F04110
:1058B0000546002700F07CFB314E306808B9FFF741
:1058C0002DFEF06805424BD1C5B3083568070ED0F0
:1058D00005F00700C0F108000544680707D0502014
:1058E00080F31188BFF34F8FBFF36F8FFEE72DB3A7
:1058F0007068854234D82248103001460C6801E0B7
:1059000020460C466168A94202D221680029F7D1DD
:1059100031688C4224D007682168016060680837CC
:10592000411B10290FD96019420708D0502080F37D
:105930001188BFF34F8FBFF36F8FFEE710E0416018
:105940006560FFF793FE61687068401A7060B26826
:10595000904200D2B060F06801430020C4E9000129
:1059600001F066F9780707D0502080F31188BFF363
:105970004F8FBFF36F8FFEE73846BDE8F081000020
:105980009C0000200449086818B10868826C521C09
:1059900082640868704700006000002010B5031F93
:1059A0004FF080741C601B1F21F001011960191F4A
:1059B000044B0B6014390A60091F6FF0020244386F
:1059C0000A6010BDF55600087FB505463B208DF8EE
:1059D0000C000A24012303AAD22108480094FBF7F3
:1059E00039FA062301AAD22104480094FBF742F9B0
:1059F00001982860BDF80800A8807FBD080100203C
:105A00003EB504468DF808100A250146012302AA76
:105A100006480095FBF71EFA012301AA2146034818
:105A20000095FBF727F99DF804003EBD0801002012
:105A30007FB5054643208DF80C000A24012303AAF4
:105A4000D22108480094FBF705FA062301AAD221C7
:105A500004480094FBF70EF901982860BDF808008F
:105A6000A8807FBD080100207FB5044602211820D0
:105A7000FFF7C6FFC0071AD003208DF80C000A25D7
:105A8000012303AA18210A480095FBF7E3F907232D
:105A900001AA182106480095FBF7ECF89DF80A00CA
:105AA000000704D401982060BDF80800A0807FBDE5
:105AB000080100202DE9F041056813460E4607460F
:105AC00002292DD3E869B0422AD93BB14FF0FF3209
:105AD00019462846FFF757FE00281FD131463846A1
