:020000040800F2
:10000000388600206D020008FF2E00080B2A000829
:10001000FD2E0008A5040008A14100080000000012
:10002000000000000000000000000000AD0100081A
:10003000710500080000000009020008B53C000836
:10004000870200088702000887020008870200086C
:10005000870200088702000887020008870200085C
:10006000870200088702000887020008870200084C
:10007000870200088702000887020008870200083C
:10008000A904000887020008870200080000000099
:1000900000000000000000000000000087020008CF
:1000A000870200088702000887020008870200080C
:1000B00087020008870200087D3D000887020008CB
:1000C00087020008870200088702000887020008EC
:1000D00087020008894100089541000800000000DF
:1000E000870200088702000887020008000000005D
:1000F000000000000000000000000000870200086F
:1001000000000000352F0008893D00088702000824
:1001100000000000000000000000000000000000DF
:10012000870200088702000887020008B50400085B
:10013000870200080000000000000000000000002E
:10014000000000000000000000000000870200081E
:1001500087020008C104000887020008870200081F
:10016000870200088702000800000000000000006D
:10017000000000000000000000000000000000007F
:1001800000000000870200080000000000000000DE
:100190008702000887020008DFF80CD000F012F98F
:1001A0000048004721430008388600202C4B19687E
:1001B0000868B0E8F04F80F30988BFF36F8F4FF005
:1001C000000080F3118870470000000008480068B4
:1001D000006880F308884FF0000080F3148862B64E
:1001E00061B6BFF34F8FBFF36F8F00DF00BF00BF5B
:1001F00008ED00E0DFF80C00016841F470010160D7
:10020000704700BF88ED00E0EFF30980BFF36F8F08
:10021000134B1A681EF0100F08BF20ED108A20E95A
:10022000F04F106009B44FF0500080F31188BFF315
:100230004F8FBFF36F8F04F05FFE4FF0000080F32D
:10024000118809BC19680868B0E8F04F1EF0100F5B
:1002500008BFB0EC108A80F30988BFF36F8F704736
:100260005C000020EFF305807047000006488047DF
:1002700006480047FEE7FEE7FEE7FEE7FEE7FEE78B
:10028000FEE7FEE7FEE7FEE7613D00089901000892
:100290002DE9F05F0546002092469B4688460646BB
:1002A000814640241BE0284641464746224600F04E
:1002B00079F853465A46C01A914110D31146184650
:1002C000224600F060F82D1A67EB01084F462246DF
:1002D0000120002100F057F817EB00094E41201EC5
:1002E000A4F10104DFDC484631462A464346BDE816
:1002F000F09F10B5431A934209D28318881803E07F
:1003000010F8011D03F8011D521EF9D210BD40EA7C
:1003100001039B0703D009E008C9121F08C0042A83
:10032000FAD203E011F8013B00F8013B521EF9D26A
:1003300010BDD2B201E000F8012B491EFBD270477C
:100340000022F6E710B513460A4604461946FFF7A1
:10035000F0FF204610BD421E12F8013F002BFBD1DA
:1003600011F8013B02F8013B002BF9D1704710B5A1
:10037000044604E00B7800F8013B03B1491C521E0F
:10038000F8D2204610BD202A04DB203A00FA02F100
:10039000002070479140C2F1200320FA03F3194373
:1003A00090407047202A04DB203A21FA02F0002115
:1003B000704721FA02F3D040C2F120029140084375
:1003C00019467047064C074D06E0E06840F001030F
:1003D00094E8070098471034AC42F6D3FFF7E0FEEC
:1003E000F0590008105A0008704700000146014803
:1003F00001F016BB6401002010B5044801F022FB97
:10040000042801D0012010BD002010BD640100208F
:1004100038B501208DF800009DF80000012801D0BA
:10042000012038BD064801F027FC040006D14FF436
:100430000061034801F0ACF900B10124204638BD49
:1004400064010020134610B50A4601460024034803
:1004500001F00CFD00B10124204610BD6401002014
:1004600003484FF0FF320121406804F069B80000F2
:100470003C000020134610B50A46014600240348FC
:1004800001F094FD00B10124204610BD640100205C
:1004900003484FF0FF320221406804F051B80000D9
:1004A0003C000020FEE70000014800F01FB90000FA
:1004B000E8020020014800F019B90000E403002020
:1004C000014800F013B9000044040020016818231B
:1004D000CAB2103AB2FBF3F2054B6FF30901032ADB
:1004E0009B5CC36500D9091D816508467047000003
:1004F000C459000810B5014600208B698A6A4FF084
:10050000C07453B1B3F5005F15D072B1012A0CD09D
:10051000022A0AD0032A09D104E01AB1012A06D01E
:10052000022A03D1C96AC90100D5012010BDC96AD8
:10053000A142FAD010BD002AF7D0012AF2D0022A37
:10054000F3D0032AF3D010BD30B50468256825F434
:1005500080252560046863608368402B036803D0AE
:1005600099600068C26030BD9A600068C16030BDAB
:1005700070477047002200F001B8000030B50E4B04
:10058000054601205C7A002C14D1587A1C54587A04
:1005900003EB800045605D7A03F108002A54587A25
:1005A000421C5A72303008703A2048702F208870F0
:1005B000CC70002030BD00003809002030B5022387
:1005C000437103689C6844F001049C60002304E0CC
:1005D000056851F823402C605B1C9342F8D30168F6
:1005E000096801224271084630BD10B5040002D0EE
:1005F000607910B106E0012010BD00202071204676
:1006000000F004F801206071002010BD08B50068FA
:100610000649884208D10648016841F480510160CA
:10062000006800F48050009008BD000000300240D7
:10063000303802402DE9F0410446876D00F0B0FAF1
:10064000064694F835000025022806D08020606513
:1006500084F834500120BDE8F0812068016821F061
:10066000160101602068416921F080014161206C20
:1006700008B9A06C20B12068016821F00801016070
:100680002068016821F0010101600BE000F088FAA8
:10069000801B052806D92020606504F8345F0320FC
:1006A0006070D8E720680068C007EFD194F85C104C
:1006B0003F208840B86004F8345F0120607000205B
:1006C000C9E790F83510022903D080214165012047
:1006D0007047052180F835100068016821F001019C
:1006E000016000207047406D704700002DE9F8431D
:1006F00004464FF00009CDF8009063484FF41651BE
:10070000A56D0068B0FBF1F72E6894F85C10082026
:1007100000FA01F131420FD021680A6852070BD567
:100720000A6822F004020A6094F85C108840A8600D
:10073000606D40F00100606594F85C104FF00108B6
:1007400008FA01F0304208D021684969090604D549
:10075000A860606D40F00200606594F85C100420B1
:100760008840304208D021680968890704D5A8600C
:10077000606D40F00400606594F85C1010208840C3
:10078000304218D021680968090714D5A86020688C
:100790000168490304D50068000308D5A16C07E08F
:1007A0000168C90503D4016821F008010160216CCA
:1007B00009B12046884794F85C10202088403042D8
:1007C00031D021680968C9062DD5A86094F8350094
:1007D00005282068016806D0490347D50068000352
:1007E0001DD4616C1CE021F0160101602068416994
:1007F00021F080014161206C08B9A06C20B1206813
:10080000016821F00801016094F85C103F208840E5
:10081000A86084F8349084F83580216D1FE0E16B86
:1008200009B120468847606D00282BD0606DC00755
:1008300014D0052084F835002068016821F00101FA
:1008400001600098401C0090B84203D820680068FE
:10085000C007F6D184F8349084F83580E16C002923
:1008600010D001B02046BDE8F04308470168C90533
:10087000D5D4016821F01001016084F8349084F827
:100880003580CCE7BDE8F883580000202DE9F04121
:10089000044600F085F906465CB1002584F8345022
:1008A000022084F835002068016821F00101016010
:1008B0000DE00120BDE8F08100F072F9801B0528F1
:1008C00005D920206065032084F83500F2E7206810
:1008D0000068C007F0D12268116820480140D4E9BF
:1008E00001031843D4E903363343184363691843BB
:1008F000A3691843E3691843236A18430843616AEC
:10090000042903D1D4E90B1319430843106020686C
:100910004069666A20F0070130460E43012704282B
:100920000CD1A06A0643E06A40B12046FFF7E2FD21
:1009300020B14020606584F83570BAE720684661D0
:100940002046FFF7C3FD94F85C203F219140816071
:10095000656584F835700020ACE700003F8010F03A
:100960002DE9F0410446866D90F8340000250128F9
:100970000DD0012084F8340094F835700020012F48
:1009800007D084F8340002252846BDE8F081022013
:10099000FBE7022784F8357060652046FFF7D4FD39
:1009A00094F85C103F208840B0602068016841F0F6
:1009B00016010160206C20B12068016841F0080137
:1009C00001602068016841F001010160DCE700007E
:1009D00070B5044600F0E4F80546601C02D00448F7
:1009E0000078044400F0DCF8401BA042FAD370BD4C
:1009F0004C0000202DE9F84F00224FF0010803259C
:100A00004FF00F0E0B6808FA02F42340A34271D195
:100A10004E68012E05D0022E03D0112E01D0122EC9
:100A200015D18668570005FA07FC26EA0C06D1F8AE
:100A30000CC00CFA07FC4CEA060CC0F808C046686B
:100A4000A6430C79C4F30014944034434460C66850
:100A5000570005FA07FC8C6826EA0C06BC403443B4
:100A6000C4604C68022C01D0122C13D1D40800EBC6
:100A70008404A346D4F8209054074FEAD46A0EFAAF
:100A80000AF629EA06090E6906FA0AF646EA09068E
:100A9000CBF8206004680E7924EA0C0406F0030603
:100AA000BE40264306604C68E40056D52E4C2668AE
:100AB00046F480462660246822F0030604F480444D
:100AC00000942A4C3444A446D4F808489607370FBB
:100AD0000EFA07F6B443264EB04201D1002615E0C7
:100AE000244EB04201D1012610E0234EB04202D183
:100AF00002260BE031E0214EB04201D1032605E091
:100B00001F4EB04201D1042600E00726BE40264316
:100B1000CCF808681B4E34684F689C43FF0300D52F
:100B20001C433460174E361D34684F689C43BF0326
:100B300000D51C433460134E083634684F689C431C
:100B4000FF0200D51C4334600E4E0C3634684F68EB
:100B50009C43BF0200D51C433460521C102AFFF492
:100B600051AFBDE8F88F000044380240003001402A
:100B7000000002400004024000080240000C024055
:100B800000100240003C0140426931EA020200D1FB
:100B90000904816170470AB1816170470904FBE76C
:100BA00001488068704700004C00002070B50400C8
:100BB00025D094F83D00002520B984F83C5020460B
:100BC00000F03EFA242084F83D002068016821F0FE
:100BD000010101602068016841F400410160206862
:100BE000016821F40041016000F0D0FB4D4A6168CA
:100BF000914201D84C4900E04C49884201D2012081
:100C000070BD4B492368B0FBF1F15E6826F03F06EA
:100C10000E435E606368934206D94FF4967359435E
:100C20004FF47A73B1FBF3F12368491C1E6A26F076
:100C30003F06314319626168914210D84900401E55
:100C4000B0FBF1F2521CC2F30B02042A01D20420C1
:100C500022E0B0FBF1F0401CC0F30B001CE0A268E6
:100C6000F2B301EBC10303EB0116431EB3FBF6F332
:100C70005B1C43F480431B0549D092B301EBC102D6
:100C800002EB0111401EB0FBF1F0401CC0F30B0061
:100C900040F4804040F400402168CA694CF6FF737C
:100CA0009A431043C861D4E90710014320680268E1
:100CB00022F0C00211430160D4E90301014320681E
:100CC000826848F2FF339A4311438160D4E90501F9
:100CD00008432168CA6822F0FF021043C86001E09F
:100CE0000EE016E02068016841F001010160256412
:100CF000202084F83D00256384F83E50002070BD1C
:100D000001EB4106431EB3FBF6F35B1CB3E7012086
:100D1000C2E701EB4101401EB0FBF1F0401CC0F303
:100D20000B00B7E7A086010080841E0000093D008B
:100D300040420F002DE9F84F1F4690468A46044670
:100D4000DDF82890FFF72CFF054694F83D00202899
:100D500075D1192301226C492046009501F058FFF6
:100D60000028F5D194F83C00012868D0012084F8CF
:100D70003C0020680168C90703D1016841F0010106
:100D800001602068016821F400610160222084F87C
:100D90003D00102084F83E0000262664C4F824801C
:100DA0006785608D20855948E0622B464A4651464A
:100DB000204601F043FE002878D1208D544F68B1C1
:100DC000012814D002282068016816D041F48061FF
:100DD0000160206841698069009087E0206841696E
:100DE00081690091016841F4007101607EE0206832
:100DF000016821F480610160F0E721F48061016005
:100E00002068016841F40061E2E7032848D801281E
:100E10000AD0022814D04B460022394620460095BD
:100E200001F0F6FED8BB27E02A464946204601F0ED
:100E30006EFFA0BB20680069616A08704DE061E048
:100E40004B46002239462046009501F0E1FE30BBBA
:100E50002068016841F40071016020680069616ADE
:100E60000870606A401C6062218D491E2185618D79
:100E7000491E618521682EE02068016821F48061A7
:100E8000016020680069616A0870606A401C6062E5
:100E9000208D401E2085608D401E6085D0E705E0D6
:100EA0002A464946204601F032FF10B10120BDE834
:100EB000F88F20680069616A0870606A401C60628F
:100EC000218D491E2185618D491E618521684A69F0
:100ED000D24352070AD409690170606A401C6062FB
:100EE000208D401E2085608D401E6085208D00284D
:100EF0008BD1202084F83D0084F83E6084F83C606B
:100F00000020D4E70220D2E7020010000000FFFF1B
:100F1000040001002DE9F84F1F4690468A4604461A
:100F2000DDF82890FFF73CFE054694F83D002028A8
:100F30007FD11923012240492046009501F068FE27
:100F4000002876D194F83C00012872D0012084F862
:100F50003C0020680168C90703D1016841F0010124
:100F600001602068016821F400610160212084F89B
:100F70003D00102084F83E0000262664C4F824803A
:100F80006785608D20852D48E0622B464A46514694
:100F9000204601F0C9FD90B9206841698069009040
:100FA00036E02A464946204601F0E4FE50B1206C66
:100FB000042804D12068016841F400710160012017
:100FC000BDE8F88F606A216800780861606A401C9B
:100FD0006062618D491E6185218D491E89B221851E
:100FE00022685369DB435B070BD451B10078106171
:100FF000606A401C6062608D401E6085208D401ECE
:1010000020852A464946204601F0DCFD0028CED145
:10101000208D0028C5D154F83D0B016841F40071C2
:101020000160202004F81E09E67766770020C7E7F4
:10103000FFE70220C4E70000020010000000FFFFED
:1010400010B586B0044614216846FFF779F91349B4
:101050002068884220D11248016841F002010160F5
:101060000068694600F002000590C0200090122040
:10107000019001200290032003900420049009486D
:10108000FFF7B8FC06481030016841F40011016018
:10109000006800F40010059006B010BD0054004038
:1010A000303802400004024002488168027811444E
:1010B000816070474C0000200B4810B5016841F476
:1010C00000710160016841F480610160016841F4D0
:1010D00080710160032000F08DF8002000F006F818
:1010E00000F03EF8002010BD003C024010B5014663
:1010F00088B00022322000F05DF8322000F04CF879
:1011000013480024016841F008010160006805A946
:1011100000F008000690684600F018F900F036F973
:101120000C494000B0FBF1F10C480B4A491E02602B
:1011300040F2E732C0E90324C0E9011401F010F8DD
:1011400010B1012008B010BD044801F043F8F9E7E0
:101150004038024040420F00000C0040F8080020D8
:101160000C4882B0016841F480410160006800F4DD
:10117000804000900748001F016841F080510160E5
:101180000068002200F0805000900F21901E02B0F5
:1011900000F010B844380240002809DB00F01F02BC
:1011A000012191404009800000F1E020C0F80011C9
:1011B00070470000F0B40E4B1B680C46C3F30223CB
:1011C000C3F10705042D00D90425191D072901D2F3
:1011D000002300E0DB1E012606FA05F1491E21402E
:1011E00099409E40761E16403143F0BC02F0D9BFB4
:1011F0000CED00E0064900F0070208684FF6FF0317
:10120000184040EA0220034A10430860704700007B
:101210000CED00E00000FA052DE9F0470E46050050
:1012200065D0DFF81481D8F80000F7B200F00F00A5
:10123000B04207D288F80070D8F8000000F00F0024
:10124000B04254D128683D4C810712D5400703D5E0
:10125000206840F4E05020602878000703D520681B
:1012600040F4604020602068A96820F0F000084346
:1012700020602878C0072DD03049686808390128D7
:1012800012D0022813D0032811D009688907002939
:101290002DDA216821F0030101432160FFF780FC72
:1012A000814641F2883A0EE009688903EFE7096850
:1012B0008901ECE7FFF774FCA0EB0901514502D965
:1012C0000320BDE8F0872068696800F00C00B0EBEF
:1012D000810FEFD1D8F80010404601F00F01B14264
:1012E00007D90770006800F00F00B04201D001205C
:1012F000E7E72878400705D52068E96820F4E05042
:10130000084320602878000706D52068296920F462
:10131000604040EAC100206000F058F82168084AA7
:10132000C1F30311515CC8400649086006480068D3
:10133000FFF7DCFE0020C4E7003C02400838024012
:10134000CC59000858000020500000200F220260F5
:101350000C4A136803F003034360136803F0F003BF
:101360008360136803F4E053C36012684FF4E053E2
:1013700003EAD20202610448006800F00F0008602E
:101380007047000008380240003C0240044805490C
:1013900000680968044AC1F38221515CC840704763
:1013A0005800002008380240DC590008044805496C
:1013B00000680968044AC1F34231515CC840704773
:1013C0005800002008380240DC590008154810B5C4
:1013D000006810F00C02144813D04110042A0FD0FA
:1013E000082A0ED10F4C241F2268236802F03F0206
:1013F0005B0207D52068C0F38810A0FB010106E05E
:10140000084610BD2168C1F38811A1FB000100232B
:10141000FEF73EFF2168C1F30141491C4900B0FBC2
:10142000F1F010BD083802400024F4002DE9F84F17
:10143000040076D02078DFF838A3CE4DC00749D01D
:10144000DAF800105046C1F38101012908D0006884
:10145000C0F3810002280AD1281D0068400206D589
:101460002868800336D560680028E2D032E06068E2
:10147000B0F5803F10D0B0F5A02F286810D020F430
:1014800080302860286820F4802028606068A0B13F
:10149000FFF786FB06460CE0286840F48030F4E74E
:1014A00040F480202860F7E7FFF77AFB801B642870
:1014B00073D828688003F7D50CE0FFF771FB064668
:1014C00005E000BFFFF76CFB801B6428F0D828689C
:1014D0008003F7D42078DFF8A08280074FF000095E
:1014E0003ED5DAF80010504611F00C0F09D0006814
:1014F000C0F3810002280BD19D48001F0068400204
:1015000006D42868800715D5E068012809D111E0C4
:10151000E068B8B10120C8F80000FFF741FB0646BB
:1015200005E020E1FFF73CFB801B0228C0D82868BB
:101530008007F7D52868216920F0F80040EAC1004B
:1015400028600DE0C8F80090FFF72AFB064604E08B
:10155000FFF726FB801B02281FD828688007F7D4D6
:101560002078000722D5824E844861696C3671B1BB
:1015700001210160FFF714FB074604E0FFF710FBB1
:10158000C01B022809D830688007F7D50EE0C0F8E4
:101590000090FFF705FB074605E082E0FFF700FB40
:1015A000C01B02287DD830688007F7D42078400718
:1015B00068D5DFF8BCB100270BF1380BDBF8000071
:1015C000C0000BD4DBF8001041F08051CBF80010C4
:1015D000DBF80000012700F080500090684E306872
:1015E000C00510D4306840F480703060FFF7D8FA3E
:1015F000009005E0FFF7D4FA0099401A022850D86D
:101600003068C005F6D55A4EA068683601280FD05C
:101610000528306810D020F001003060306820F0DC
:1016200004003060A068B8B1FFF7BAFA00900FE08C
:10163000306840F00100F4E740F004003060F7E764
:10164000FFF7AEFA0099411A41F28830814266D81C
:1016500030688007F4D50EE0FFF7A2FA009007E0AB
:10166000FFF79EFA0099411A41F28830814256D81C
:1016700030688007F4D42FB1DBF8001021F08051DE
:10168000CBF80010A069D0B3DAF800205146C2F3BD
:101690008102022A4AD00228484607D0C8F86000D2
:1016A00000E03CE0FFF77CFA04463BE04746C8F820
:1016B0006000FFF775FA064605E000BFFFF770FA15
:1016C000801B02282BD828688001F7D4D4E90701B1
:1016D0000843A16A2B4A490802EB0141626A41EAC8
:1016E0008211084394F82C1040EA01612048001F41
:1016F000016001203866FFF753FA044605E034E044
:10170000FFF74EFA001B022809D828688001F7D598
:101710002BE000BFFFF744FA001B022802D9032088
:10172000BDE8F88F28688001F4D41EE00128F7D0C6
:101730000868E26900F48001914214D1226A00F045
:101740003F0191420FD147F6C071626A0140914258
:1017500009D1A26A00F44031914204D1E16A00F05B
:101760007060884201D00120DAE70020D8E700004D
:10177000083802400038024000004742800E4742CD
:10178000007000400000FFFF10B5FEF72DFE10BDF9
:101790002DE9FE43044603200F4684F83400606CB4
:1017A00003285AD0B7F5805F57D04FF40066002564
:1017B0004FF08068B7421CD1009501950021206848
:1017C00001F0B4FB800121D46946204601F09CFF62
:1017D00098BB0198400332D5B4F85000010420684A
:1017E00001F0E0FB48BB0221206822E0A06B284307
:1017F00027E01FB1A06B40F0006022E0009501954A
:101800000021206801F092FB800101D53546EDE70B
:101810006946204601F078FF78B90198C0030ED5DB
:10182000B4F850000104206801F0BCFB28B9002185
:10183000206801F004FC0028D8D00546D6E74546CC
:10184000D4E7A063A06B012558B121680C488863D8
:1018500084F834500120BDE8FE83A06B40F0805036
:10186000EFE7211DD4E905060EC90097CDE9010671
:10187000206801F065FB84F834500020EBE700009D
:10188000FF05400070470000F0B5426E920F0A70ED
:10189000426EC2F383624A70426EC2F301628A7082
:1018A000426E120CCA70B0F86420120A0A7190F8E5
:1018B00064204A71826E120DCA80826EC2F30342A6
:1018C0000A72B0F86820C2F3C0324A72B0F86820D9
:1018D000C2F380328A72B0F86820C2F34032CA7212
:1018E000B0F86820C2F300320A7300264E73426CCF
:1018F0004FF40075012462B1012A3AD002684749C9
:101900009163816B41F08051816380F83440012004
:10191000F0BDB0F86820C36E9205120D42EA9372D2
:101920000A61C26EC2F3C2620A75C26EC2F302627B
:101930004A75C26EC2F342528A75C26EC2F38242C7
:10194000CA75C26EC2F3C2320A760A69521C426577
:101950000B7E03F007039B1C9A4042650B7A03F051
:101960000F0704FA07F383655B0A5A43C0E917259A
:101970000EE090F86820C36E9206920A42EA134283
:101980000A610A69521C92024265C0E91652056654
:1019900030F86C2FC2F3803201F8192F0288C2F39D
:1019A000C6124A70027802F07F028A704268D20F33
:1019B000CA704268C2F341720A714268C2F382621D
:1019C0004A714268C2F383528A714268C2F340523C
:1019D000CA710E724268C2F300424A728288C2F330
:1019E000C0328A728288C2F38032CA728288C2F39D
:1019F00040320A738288C2F300324A738288C2F38B
:101A000081228A738288C2F30122CA730079C0F3EB
:101A1000460008744C740020F0BD0000FF05400033
:101A2000426C0A60826C4A60C26C8A60026DCA6055
:101A3000426D0A61826D4A61C26D8A61006EC86141
:101A40000020704770B50446B0F85000002501042E
:101A5000206801F0FEFB18B1A16B0143A16304E013
:101A60000021206801F062FA0546C5F3432070BDED
:101A7000F8B5056B04460068416B09041BD52907BE
:101A800019D5D4E90A56002E14D00027206801F099
:101A900071FA05F8010B010A05F8011B010C05F8A4
:101AA000021B000E361F7F1C05F8010C082FEDD31A
:101AB000C4E90A56F8BD416B4FF00006C9054FF066
:101AC000010744D5390281632068C16B4CF23A3278
:101AD0009143C1632068C16A21F00101C1622807F6
:101AE0001DD515F0220F09D0206801F0E3FB28B1C5
:101AF000A16B0143A1632046FFF7C4FE216840F2B9
:101B00003A50886384F834702663A80703D02046CF
:101B100000F044FAF8BD204600F044FAF8BD28066B
:101B2000FCD5A80609D5206801F0C4FB28B1A16B3B
:101B30000143A1632046FFF7A5FEA807EED1206868
:101B4000C16A21F00801C16284F83470E3E7416B97
:101B5000490424D5290722D5D4E90856002EDDD022
:101B60005FF0000715F8010B009015F8011B361FF8
:101B700040EA0120009015F8021B40EA0140009065
:101B800015F8011C40EA016000906946206801F0E8
:101B900004FA7F1C082FE5D3C4E90856F8BD416B51
:101BA00040F23A221142F9D0416B890703D5A16B6B
:101BB00041F00201A163416B090703D5A16B41F01C
:101BC0000801A163416B890603D5A16B41F0200197
:101BD000A163416BC90603D5A16B41F01001A1635C
:101BE000416B890503D5A16B41F00801A16340F267
:101BF0003A7181632068C16B40F23A329143C1630C
:101C0000206801F057FBA16B0843A063280706D5A5
:101C100084F8347026632046FFF734FEF8BD2806AA
:101C2000FCD515F0300F0CD0E16B11480865E06B66
:101C3000FEF747FD0028F1D0E06BBDE8F84001F069
:101C400041BDA8070CD0216C0A480865206CFEF73E
:101C500038FD0028E2D0206CBDE8F84001F009BD55
:101C6000A66384F8347026632046FFF78DFDF8BD27
:101C7000C53600087336000870B504000ED094F81D
:101C80003400002518B92577204600F03BF80320E2
:101C900084F83400204600F00BF808B1012070BD34
:101CA000A5632563012084F83400002070BD000086
:101CB000FEB50025044676200095CDE90150294661
:101CC0000B460A46206801F03BF908B10120FEBD31
:101CD0000B4E46F8A05F206801F044F901253560FD
:101CE000204601F0F3FD20B9204601F077FD0028E1
:101CF000EDD084F83450A16B0143A163E6E7000006
:101D0000008025422DE9F04F87B005461421684632
:101D1000FEF716FB4E49286888427DD14D48006881
:101D20004C4940F400600860086800F400600590C9
:101D3000484814380068474940F0010014390860E9
:101D4000086800F001000590086840F00200086093
:101D50000868012700F0020005904FF450700090D1
:101D60000220CDE9010703260C24CDE9036469466E
:101D70003948FEF73FFEF803009002200190002052
:101D8000CDE90206DFF8D480694604944046FEF7A8
:101D900031FE302000900220CDE90107CDE9036437
:101DA00069464046FEF726FE2E4C2D484FF000684F
:101DB000C4E90008002004F10C014FF480694FF4DD
:101DC000805AA06081E80106B803A0612020E0618C
:101DD000002020624FF0040BC4E909B6FE05B710DD
:101DE0002046C4E90B67FEF751FD08B1FEF7C1FBC1
:101DF0002C64A5631A481C4C48304FF48041C4E958
:101E000000084020A060C4E905A10020C4E903093E
:101E10002021C4F824B000E016E0C4E9071004F162
:101E20002801032081E8C1002046FEF72FFD08B1FC
:101E3000FEF79FFBEC63002205213120A563FFF72D
:101E4000B9F93120FFF7A8F907B0BDE8F08F00001D
:101E5000002C0140443802400000024000040240CF
:101E600058640240E4030020440400202DE9F047B8
:101E700086B01F460446154639B194F8340001284F
:101E800007D0022006B0BDE8F087A06B40F00060EC
:101E900008E00020A063E36DEA199A4204D9A06B20
:101EA00040F00070A0636FE0032284F834202268C1
:101EB0008246D0622268D36B40F22A363343D36322
:101EC000236C324A4FEA4729DA63236C304ADA64DA
:101ED000226C4FEA9903106520680A46266C00F1CF
:101EE00080013046FEF73CFDDFF8A880012660B196
:101EF0002068C16B21F49571C1632168C1F83880F5
:101F0000A06B40F08040A06311E023480660606C45
:101F1000012800D06D024FF40071206801F076F8BE
:101F200040B12268C2F83880A16B0143A16384F8F4
:101F3000346029E04FF0FF30CDE900099020029095
:101F400002200596CDE9030AD1466946206800F0D3
:101F5000D7FF012F06D9822020632946206801F08F
:101F6000E9F805E0812020632946206801F0FBF8AC
:101F7000002887D02268C2F83880A16B0143A16392
:101F800084F83460C4F8309001207BE731360008D3
:101F9000CD350008FF0540008C85254210B5FEF7C1
:101FA0005FFA10BD10B5FEF773FA10BD2DE9FF4FB3
:101FB00087B0044608981F46164638B194F8340096
:101FC000012807D002200BB0BDE8F08FA06B40F0D5
:101FD000006008E00025A563E16DF019884204D98E
:101FE000A06B40F00070A06361E0032084F834002F
:101FF0002068C5622068C16B40F21A2A41EA0A01D2
:10200000C163E16B3248C863E16B3248C864E06B7E
:102010000565606C012800D076024FF400712068DD
:1020200000F0F4FFDFF8B0904FF0010840B12268F3
:10203000C2F83890A16B0143A16384F8348036E084
:102040004FF0900B012F06D9A02020633146206865
:1020500001F04AF905E0C4F830B03146206801F0DB
:102060005CF940B12268C2F83890A16B0143A163CA
:1020700084F834801AE019484646C0F80080226887
:102080007F02BB08E06B80320899FEF769FC80B1E3
:102090002068C16B21EA0A01C1632168C1F8389048
:1020A000A06B40F08040A06384F834602563012079
:1020B00089E74FF0FF30CDE90007CDE902B5CDE962
:1020C00004566946206800F01BFF00207BE70000F3
:1020D000B7360008CD350008FF0540008C85254245
:1020E0007047704770B590F83C20012A2CD001242D
:1020F00080F83C40022280F83D2003685A689D68C1
:1021000022F070060A6832435A60104B02689A4205
:102110000ED0B2F1804F0BD00D4B9A4208D00D4B30
:102120009A4205D00C4B9A4202D00C4B9A4204D1F1
:10213000496825F080031943916080F83D400021F3
:1021400080F83C10084670BD022070BD00000140C0
:102150000004004000080040000C00400040014026
:1021600010B5040003D094F83D0010B107E0012041
:1021700010BD002084F83C00204600F00DF802203D
:1021800084F83D00211D206801F004FE012084F840
:102190003D00002010BD000008B500680B498842D2
:1021A00012D10B48016841F004010160006800226F
:1021B00000F00400009005211E20FEF7FBFFBDE8A3
:1021C00008401E20FEF7E8BF08BD000000080040E0
:1021D000403802400168CA6842F00102CA600068E3
:1021E000816801F00701062903D0016841F001016F
:1021F00001600020704770B5044690F83C0001284B
:1022000017D0012584F83C50022084F83D00206856
:10221000826822F0770222F47F42826008685028A8
:1022200030D00DDC20284DD005DC98B310283BD1F0
:1022300048E0022070BD302844D0402834D139E035
:10224000602828D0702806D0B0F5805F2CD0B0F57B
:10225000005F29D10AE0CB68D1E90121206801F0B3
:10226000E5FD2068816841F0770109E0CB68D1E99C
:102270000121206801F0DAFD2068816841F4804185
:10228000816011E0CA684968206801F0E1FD5021D1
:10229000206807E016E0CA684968206801F0E9FD97
:1022A0006021206801F0CCFD84F83D50002084F8C6
:1022B0003C0070BDCA684968206801F0C9FD402132
:1022C0002068EFE7226801461046EBE7704770B5DB
:1022D0000446006801694FF00005C943890715D419
:1022E000C168C943890711D4E91E01610120207723
:1022F000206880698007204602D0FFF7E7FF04E0EE
:1023000000F098F8204600F096F8257720680169DB
:10231000C943490717D4C168C943490713D46FF0AB
:1023200004010161022020772068806910F4407F59
:10233000204602D0FFF7CAFF04E000F07BF82046F9
:1023400000F079F8257720680169C943090716D498
:10235000C168C943090712D46FF008010161042064
:1023600020772068C0698007204602D0FFF7AEFFC3
:1023700004E000F05FF8204600F05DF82577206863
:102380000169C943C90617D4C168C943C90613D432
:102390006FF010010161082020772068C06910F4F7
:1023A000407F204602D0FFF791FF04E000F042F8A2
:1023B000204600F040F8257720680169C943C90725
:1023C00008D1C168C943C90704D1891E01612046EB
:1023D00000F032F820680169C943090609D4C168D0
:1023E000C943090605D46FF0800101612046FFF75B
:1023F00077FE20680169C943490609D4C168C94309
:10240000490605D46FF040010161204600F05AF8FA
:1024100020680169C94389060BD4C168C94389068C
:1024200007D46FF0200101612046BDE87040FFF73E
:1024300058BE70BD7047704770B5044600681D49AE
:10244000884201D1FEF730FE1B492068884230D116
:102450001A4C0A22A089401C83B2A381E089B3FBF5
:10246000F2F5401C81B2E181608A02FB1533401C09
:1024700080B26082002513B90123E371A581B1FB0D
:10248000F2F302FB131119B9218A491C2182E5815B
:102490006421B0FBF1F201FB1200002809D1A57103
:1024A000207A28B906492622A1F5A07000F080F90B
:1024B000658270BD000C0040000800400000002054
:1024C000A80300207047704770B502680446106882
:1024D000D168536910F00F0F52D003F0010501F4D9
:1024E00090762E435FD0C20705D0CA0503D5E26BB4
:1024F00042F00102E263420705D5DA0703D0E26B3E
:1025000042F00202E263820705D5DA0703D0E26BEC
:1025100042F00402E263020707D501F020022A43D9
:1025200003D0E26B42F00802E263E26B002A33D090
:10253000800604D5880602D5204601F013FD2068E8
:102540004069E16BC0F38010090700D428B320462E
:1025500001F0F1FC2068416949061AD5416921F072
:1025600040014161606BA0B11B490165606BFEF7E2
:10257000A8F8002810D0606B016DBDE870400847D6
:10258000830610D58B060ED52046BDE8704001F0BD
:10259000E9BC2046FFF797FF70BD2046FFF793FF89
:1025A0000020E06370BD030606D50B0604D5204667
:1025B000BDE8704001F0B6BD4006F3D54806F1D540
:1025C000D168204621F04001D160202184F83910E3
:1025D00000F01AFA70BD0000973E000870B50400C4
:1025E00004D094F83900002510B106E0012070BD38
:1025F00084F83850204600F023F8242084F839006D
:102600002068C16821F40051C160204601F0F6FC49
:102610002068016921F4904101612068416921F03D
:102620002A0141612068C16841F40051C160E5633D
:10263000202084F8390084F83A00002070BD0000A2
:102640002DE9F04786B0804614216846FDF778FEF4
:1026500050484F4CD8F800304E4914380225012616
:1026600003274D4A4FF0000C4FF007094FF0080ABE
:10267000A3422ED10B6843F010030B60096801F0F0
:1026800010010591016841F001010160016801F04C
:1026900001010591016841F002010160006869468D
:1026A00000F002000590A8038DE8E1021046FEF755
:1026B000A1F901ABCDF800A083E8E00269463748F4
:1026C000FEF798F9002205212520FEF773FD25204D
:1026D0003CE0334CA3423ED12E496446091F0B68AF
:1026E00043F400330B60096801F40031059101687F
:1026F00041F0010101600068694600F001000590A9
:102700000C208DE8E1021046FEF774F9264D2548AD
:1027100028604FF00060C5E901044014C5E903409A
:1027200080106C61C5E906402C6228466C62FEF799
:10273000ADF808B1FDF71DFFC8F83450002205219F
:102740002620C5F83880FEF735FD2620FEF724FD4B
:1027500006B0BDE8F087154CA342F9D10B6843F0F1
:1027600020030B60096801F020010591016841F028
:10277000010101600068694600F0010005904FF416
:10278000C0508DE8E1041046FEF734F9E0E70000A0
:1027900000100140443802400000024000040240A2
:1027A0000044004088600240E8020020001401401C
:1027B000F8B5044690F83A0020283CD1C1B3BAB32A
:1027C00094F83800012836D0012084F83800A1623E
:1027D000A2850025E563222084F83A00636B174840
:1027E000D863636B16481864636B1648D864606BD3
:1027F000134605650846666B216802463046091D8A
:10280000FEF7AEF8206801684168009184F83850FE
:10281000C16841F48071C1602068416941F00101E3
:1028200041612068416941F0400141610020F8BDEB
:10283000FFE70120FBE70220F9E70000F13E000876
:102840002D3F0008A73E000890F83A30202B22D1F7
:10285000F9B1F2B190F83830012B1CD08162828539
:10286000C2850021C163222280F83A2080F8381006
:102870000168CA6842F48072CA6001684A6942F01D
:1028800001024A610068C16841F02001C160002076
:10289000704701207047022070470000F0B50646DF
:1028A00000684149002487B088420FD13F48404D1D
:1028B0000178FF2902D14078FF281AD03B486C717B
:1028C000C038FDF7B7FEA88A401CA8823949306895
:1028D000884244D13549092300202631C218521EAE
:1028E00092FBF3F503FB15220D5CD2B22A2D0AD020
:1028F0000CE0012068712D4928722622A1F12600E2
:10290000FDF7F7FCDFE78A5C3B2A08D0401CC0B229
:102910009842E3D39DF80C002A280FD012E0002241
:1029200003AE8518B5FBF3F703FB1755EDB24D5D0C
:10293000B554521CD2B29A42F3D3EBE79DF814007F
:102940003B280ED01948143040F8124F44600472EE
:10295000164909222631A1F5D370FFF775FF07B09C
:10296000F0BD9DF80D00732807D06528F0D14FF415
:1029700080411148FEF708F9EAE710A2891CD2E964
:102980000002CDE90002094806222F30FDF7EFFCD6
:10299000064869462F30FDF7DEFC092203A90948E5
:1029A00000F013F8D4E7000000440040A803002022
:1029B0000000002000100140000402402E747874D2
:1029C0000000000068020020704790F83930202B8A
:1029D00018D1A9B1A2B190F83830012B12D0016200
:1029E0008284C2840021C163212280F8392080F8CA
:1029F00038100068C16841F08001C1600020704754
:102A000001207047022070477047FEE701684A695D
:102A1000D24352050FD46FF480624A61002140F81E
:102A2000301F202242738173026942F00402026166
:102A30000173012070470020704700002DE9F84F16
:102A40000446C06A1E4693460D4621680A6842F451
:102A500080620A60082807D0012805D010F5803F61
:102A600002D0206B112804D12068016841F48071E4
:102A700001604FF001195B4600224946204600964E
:102A800000F0C6F84FF4007840B120680068C00537
:102A900001D5C4F840800320BDE8F88F2069DFF835
:102AA00084A0B0F5804F0FD00620216800EAD5172A
:102AB00047F0F000086133465A460AF10601204605
:102AC00000F0DAF858BB03E0E8B240F001001CE087
:102AD0002168E8B2086133465A465146204600F064
:102AE000CBF8E0B92068416981690091016841F43F
:102AF000807101605B46002249462046009600F046
:102B000087F80028C1D147F0F100216808613346F9
:102B10005A465146204600F0AFF80028BCD00120AC
:102B2000BAE7000002000100F8B50446C06A1E467C
:102B30000D461746082807D0012805D010F5803F1C
:102B400002D0206B122804D12068016841F4807102
:102B50000160134600224FF001112046009600F05C
:102B600057F840B120680068C00502D54FF40070E6
:102B700020640320F8BD2069B0F5804F0ED00620F8
:102B8000216800EAD51040F0F000086133463A466B
:102B90000B49204600F070F878B902E005F0FE001D
:102BA00000E0E8B221680861054933463A46891FCA
:102BB000204600F061F80028DCD00120F8BD0000BC
:102BC0000800010070B516460D4604460DE020468B
:102BD000FFF71CFF08B1012070BD681C05D0FDF790
:102BE000DFFF801BA84207D835B120684069C04389
:102BF0004007ECD4002070BD002044F8300F2021A5
:102C00006173A073216941F0200121612073E2E723
:102C10002DE9F0471E4690460D460446C1F307478E
:102C2000DDF8209008E0701C06D0FDF7B9FFA0EB9E
:102C30000900B0420FD876B12068012F18D0806902
:102C400025EA00000004000C14D000214145EAD020
:102C50000020BDE8F087002044F8300F2021617388
:102C6000A073216941F02001216120730120F0E768
:102C70004069E5E70121E9E72DE9F0479A469146E9
:102C80000E46044600254FF02008C1F3074725E013
:102C900020684069C043400514D42068016841F4AD
:102CA0000071016021686FF480604861256384F8D9
:102CB0003D8084F83E50206C40F00400206484F88D
:102CC0003C501FE0B9F1FF3F08D0FDF769FFA0EBD2
:102CD0000A0149450CD8B9F1000F09D02068012F2D
:102CE00013D0806926EA00000004000C0BD0CFE767
:102CF00044F8305F84F80D80A573206940F020000F
:102D0000206125730120BDE8F0874069EAE72DE9DD
:102D1000F041002590460E460446202717E0406902
:102D2000C043C0060CD454F8301B6FF0100048614B
:102D300044F810596777A577206A2062257717E055
:102D4000FDF72EFFA0EB0800B04208D83EB1206886
:102D50004169C9434906E2D40020BDE8F08144F846
:102D6000305F6773A573206940F0200020612573F0
:102D70000120F2E770B516460D4604460DE02046E8
:102D8000FFF744FE08B1012070BD681C05D0FDF7B7
:102D900007FF801BA84207D835B120684069C043AF
:102DA0000006ECD4002070BD002044F8300F202134
:102DB0006173A073216941F0200121612073E2E772
:102DC000154808B5016841F480010160016801F40B
:102DD00080010091016841F4001101600068002247
:102DE00000F40010009005211020FEF7E3F91020F8
:102DF000FEF7D2F9002205213B20FEF7DBF93B204C
:102E0000FEF7CAF9002205214520FEF7D3F9BDE8F7
:102E100008404520FEF7C0B93038024010B50449DB
:102E20000448FDF7A7FB0249491E087010BD0000C9
:102E300045000020A059000870B586B014216846EE
:102E4000FDF77EFA16480024016841F08001016018
:102E5000016801F080010591016841F00101016004
:102E6000016801F001010591016841F00201016072
:102E700000680C4E00F002004FF4804505900022DF
:102E800029463046FDF787FE01200095CDE9010473
:102E9000694630460394FDF7ADFD06B070BD0000F5
:102EA000303802400004024010B586B000241248B9
:102EB000009401940294039404940E4905940160D3
:102EC00041F28731C0E901140921C0E9031484618A
:102ED000FFF746F94FF48050009069460648FFF727
:102EE0008AF9049404A904480594FFF7FBF806B096
:102EF00010BD000000080040E8010020FEE7704718
:102F00000A6842624A688262D1E902231A43D1E91F
:102F100004310B43C16A1A4321F0F7011143C16226
:102F200000207047006800F00300704708444069C3
:102F3000704700000148FEF79BBD000064010020BF
:102F400070B50DF1100C11439CE870002343194338
:102F500029434268314347F6FF639A430A4342607C
:102F6000002070BD10B5032101600220FDF730FD87
:102F7000002010BDD0F8800070470A688260D1E957
:102F800001231A43D1E903310B43C1681A436FF39C
:102F90000B011143C160002070470968C0F8801020
:102FA0000020704710B586B004463720CDE90010E8
:102FB00040200290002003904FF480600490694606
:102FC0002046FFF7DAFF41F288323721204600F031
:102FD000BDF906B010BD000010B504460A4886B021
:102FE00001432920CDE900104020029000200390E9
:102FF0004FF48060049069462046FFF7BEFF2046EC
:1030000000F05CFA06B010BD0000108010B586B06C
:1030100004461020CDE900104020029000200390CB
:103020004FF48060049069462046FFF7A6FF41F206
:1030300088321021204600F089F906B010BD10B585
:1030400086B004460620CDE9001040200290002002
:1030500003904FF48060049069462046FFF78DFF8F
:1030600041F288320621204600F070F906B010BD0A
:1030700030B585B000240546009401944FF480607B
:103080000294CDE9034069462846FFF776FF0B48D6
:103090004FF4FA510068B0FBF1F041F28831484337
:1030A000401E03D24FF0004005B030BD696B0906E9
:1030B000F6D5C520A8632046F6E70000580000209A
:1030C00070B585B004464FF4D570009001A9082072
:1030D0004025002681E86100C00104906946204631
:1030E000FFF74BFF12484FF4FA510068B0FBF1F0C4
:1030F00041F288314843401E03D24FF0004005B0F2
:1031000070BD616B11F0450FF5D00905F3D4606B0C
:10311000400701D5042003E0606BC00702D0012006
:10312000A063ECE7606B400600D5A5633046E6E798
:103130005800002010B586B004461220CDE90010DA
:1031400040200290002003904FF480600490694674
:103150002046FFF712FF41F288321221204600F08C
:10316000F5F806B010BD10B586B004461120CDE9C3
:10317000001040200290002003904FF480600490E3
:1031800069462046FFF7F9FE41F2883211212046B8
:1031900000F0DCF806B010BD10B586B0044607207C
:1031A000CDE9002040200290002003904FF4806081
:1031B000049069462046FFF7E0FE41F2883207217D
:1031C000204600F0C3F806B010BD10B586B0044626
:1031D00000210220CDE90010C020CDE902014FF40A
:1031E0008060049069462046FFF7C7FE204600F045
:1031F0003DF906B010BD10B586B004460920CDE9F2
:103200000010C0200290002003904FF480600490D2
:1032100069462046FFF7B1FE204600F027F906B0C8
:1032200010BD10B586B0044600213320CDE9001052
:103230004020CDE902010001049069462046FFF7D5
:103240009CFE41F288323321204600F07FF806B020
:1032500010BD10B586B004460D20CDE90010402009
:103260000290002003904FF480600490694620464D
:10327000FFF783FE41F288320D21204600F066F808
:1032800006B010BD30B585B00C46054600210320C0
:10329000CDE900104020CDE902010001049069460B
:1032A0002846FFF76AFE22460321284600F028F947
:1032B00005B030BD10B586B0044600210C20CDE924
:1032C00000104020CDE9020100010490694620462B
:1032D000FFF753FE034A0C21204600F037F806B0F2
:1032E00010BD000000E1F50510B586B004461920B8
:1032F000CDE9001040200290002003904FF4806040
:10330000049069462046FFF738FE41F288321921C1
:10331000204600F01BF806B010BD10B586B004467C
:103320001820CDE9001040200290002003904FF4B7
:103330008060049069462046FFF71FFE41F2883204
:103340001821204600F002F806B010BD454B10B51C
:103350001B684FF4FA54B3FBF4F353435B1E02D2E1
:103360004FF0004010BD426B12F0450FF6D0120531
:10337000F4D4426B520703D504218163084610BD83
:10338000426BD20702D00121816305E0C52282632E
:103390000269D2B28A4201D0012010BD0021FFF79C
:1033A000C5FD3149084201D1002010BD002802DAD4
:1033B0004FF0007010BD410001D5402010BD8100CC
:1033C00001D5802010BDC10002D54FF4807010BD22
:1033D000010102D54FF4007010BD410102D54FF438
:1033E000806010BDC10102D54FF4006010BD010224
:1033F00002D54FF4805010BD410202D54FF4005069
:1034000010BD810202D54FF4804010BDC10202D52B
:103410004FF4004010BD410302D54FF4003010BD01
:10342000810302D54FF4802010BDC10302D54FF4B3
:10343000002010BD010402D54FF4801010BD4104DE
:1034400002D54FF4001010BD810402D54FF4800066
:1034500010BD000702D54FF4000010BD4FF48030BE
:1034600010BD00005800002008E0FFFD12494FF495
:10347000FA520968B1FBF2F141F288325143491E18
:1034800002D24FF000407047426B12F0450FF6D069
:103490001205F4D4416B490703D504218163084622
:1034A0007047416BC90703D001218163084670470B
:1034B000C521816300207047580000200F494FF458
:1034C000FA520968B1FBF2F141F288325143491EC8
:1034D00002D24FF000407047426B12F0450FF6D019
:1034E0001205F4D4416B490703D5042181630846D2
:1034F0007047C521816300207047000058000020FC
:1035000030B5204B4FF4FA541B68B3FBF4F341F28F
:10351000883463435B1E02D24FF0004030BD446BE1
:1035200014F0450FF6D02405F4D4436B5B0703D5A4
:1035300004218163084630BD436BDB0702D00121C3
:10354000816303E00369DBB28B4201D0012030BD0F
:10355000C52181630021FFF7E9FC10F4604F04D01E
:10356000410406D54FF4005030BD000C10800020FF
:1035700030BD000402D54FF4805030BD4FF4803090
:1035800030BD00005800002010B5064C012020700E
:10359000FCF732FF18B9207820F001002070207865
:1035A00010BD00003C00002070B5054600F05EFF35
:1035B000044603E0FCF720FF002806D000F056FF89
:1035C000001BA842F6D34FF0FF3070BD10B5846BDE
:1035D000FDF789F8022828D0206C416DE06B406D22
:1035E000012901D001281DD1216810488863206875
:1035F000C16B21F49D71C163A06B40F08040A0635A
:103600002046FEF71FFA062801D0052805D12068BC
:10361000FFF750FEA16B0843A063012084F834003B
:10362000002020632046FEF72DF910BDFF05400065
:1036300010B5846B206B822809D12068FFF73AFE11
:1036400028B1A16B0143A1632046FEF71BF9206856
:10365000C16A21F00801C162216840F23A508863D2
:10366000012084F83400002020632046FEF796FCF9
:1036700010BD10B5846B40F23A5021688863204633
:10368000FEF7E0F9012184F83410002121630628B7
:1036900001D0052805D12068FFF70CFEA16B084377
:1036A000A063A06B0028204602D0FEF7EBF810BD07
:1036B000FEF76AF810BD806B0068C16B41F4807141
:1036C000C163704710B5846B40F23A50216888633B
:1036D0002046FEF7B7F9012184F834100021216358
:1036E000062801D0052805D12068FFF7E3FDA16B6E
:1036F0000843A063A06B0028204602D0FEF7C2F862
:1037000010BDFEF741F810BD2DE9F04F89B00D4610
:103710000446FDF745FA0026834600960196374693
:1037200008212068FFF772FC002834D1B4F850005B
:1037300001042068FFF736FC00282CD1401E4FF012
:103740000808CDE9020830204FF00209CDE904094C
:103750000120CDE9067002A92068FFF7D1FB20689F
:10376000FFF75FFD002816D1EA4640F22A4720689D
:10377000416B394212D1416B890204D5FFF7FAFB44
:103780004AF82600761CFDF70BFAA0EB0B00401C54
:10379000EDD14FF0004009B0BDE8F08F416B090753
:1037A00003D5C0F838800820F5E7416B890703D5B9
:1037B000C0F838900220EEE7416B890603D520213E
:1037C00081630846E7E740F23A518163019800BA05
:1037D0002860009800BA68600020DCE710B590B05F
:1037E00004460120ADF838002068FFF79BFB002855
:1037F00054D0606C032842D02068FFF7E6FC002814
:103800004AD100212068FFF791FB606704212068FE
:10381000FFF78CFBA06708212068FFF787FBE067B4
:103820000C212068FFF782FBC4F88000606C03283D
:1038300025D00EA92068FFF725FD00282CD1606C4B
:1038400003281CD0BDF83800206501042068FFF76C
:10385000D2FC002820D100212068FFF767FB6066BA
:1038600004212068FFF762FBA06608212068FFF7AB
:103870005DFBE0660C212068FFF758FB2067042100
:103880002068FFF753FB000DE06403A92046FDF715
:10389000FBFF30B14FF0805010B010BD4FF0806092
:1038A000FAE7B4F85000002302042068FFF774FC24
:1038B0000028F1D104F1100007C88DE8070094E852
:1038C0000F00FFF73DFB0020E6E700002DE9F84F71
:1038D0000026044600963546B0460068FFF7C8FB50
:1038E000002827D12068FFF7EBFB4FF0805B4FF0FB
:1038F00001094FF6FF7748B1A6642068FFF7B8FBCF
:10390000002817D1A06C012802D020E0C4F848900C
:1039100000212068FFF746FB58B918E00021206815
:10392000FFF740FB002805D151462068FFF754FB04
:1039300010B15846BDE8F88F00212068FFF7F6FA6D
:1039400005464FEAD0780098401C009002E0DFF86E
:103950002CA00098B84202D2B8F1000FDED0009837
:10396000B84202D34FF08070E4E7680002D5C4F893
:10397000449000E066640020DCE70000000010C115
:103980007FB50F4C05460120207000F061FDA0B10D
:10399000FCF73EFD18B92846FFF7F6FD20702078A9
:1039A00001280AD0606840B9064B0FCB8DE80F00A4
:1039B0000021684600F066FD6060207804B070BDAC
:1039C0003C000020B459000810B5124888B01446D5
:1039D0000078C00702D0032008B010BDC1B1012992
:1039E00005D0022908D003290CD00420F4E768464A
:1039F000FCF7FCFC06980AE06846FCF7F7FC079821
:103A0000208005E06846FCF7F1FC0798400A20603A
:103A10000020E1E73C0000202DE9FE4F47F230593D
:103A2000984617468A4601254846FFF7BDFD0028FF
:103A30003BDB1F4E5FEA8A7003D0CB460024B146C1
:103A40002DE0424639465046FCF7FCFC68BB4A462E
:103A50006846716800F02AFDDDE90001102824D1D4
:103A6000012921D021E039467F1C01221148FCF7B1
:103A7000E9FC060015D15A466846D9F8041000F052
:103A800015FDDDE90010102908D1012806D14202F8
:103A900008495046FCF72DFC0AF5007A641C4445A1
:103AA000E1D3444501D106B900252846BDE8FE8F83
:103AB0003C000020A4040020FFF766BD2DE9FE4F66
:103AC00047F23056984617468A4601253046FFF79A
:103AD0006BFD002848DBDFF898905FEA8A7002D01F
:103AE0000024B3463AE0424639465046FCF7C2FC51
:103AF000D0BB32466846D9F8041000F0D7FCDDE9A7
:103B00000010102930D102282ED100F0AFFC84190A
:103B100003E000BFFCF770FC28B300F0A7FCA04254
:103B2000F8D321E039467F1C01221248FCF7A2FCA1
:103B3000060015D15A466846D9F8041000F0B6FCC4
:103B4000DDE90001102808D1022906D14201094906
:103B50005046FCF7CEFB0AF5007A641C4445E1D3DD
:103B6000444501D106B900252846BDE8FE8F000076
:103B70003C000020A40400208AB0FFF74FF9002782
:103B8000494C4A4DE846FF26E0790028FCD0E77111
:103B90002E706E70208A010AA970E870607940B3B7
:103BA000424926223A316846FCF7A3FB677120217F
:103BB0003F48FCF7C5FB202208F102013C48FCF716
:103BC00098FB9DF823009DF82210082240EA01206E
:103BD000E082354836493430FCF7F0FC80B220836F
:103BE000E18A884256D1202208F10201281DFCF703
:103BF00080FB2D48203000F0B7FF2B482C3001F01F
:103C000003F82948263000F0E3FF27492748062219
:103C100020312430FCF76DFB2349244806222C3147
:103C20002A30FCF766FB2049204806222631303036
:103C3000FCF75FFB1E4834212030FCF781FB1C4958
:103C400000202031820605EB1262D2F80230527950
:103C50001BBA23F0FF03134341F82030401C0D280A
:103C6000F0DB134910480D2220313430FCF7A6FC5C
:103C70006081010A85F8361085F8370085F83860CC
:103C8000FE200A4985F839003A22A1F59070FEF726
:103C90009CFE79E7054826213A30FCF751FB207954
:103CA000401C207170E70000000000204803002045
:103CB000BC00002010B5502080F31188BFF34F8F57
:103CC000BFF36F8F01F012FD18B104494FF080501F
:103CD0000860002080F3118810BD000004ED00E0B2
:103CE00030B593B030216846FCF72AFB14210CA8AC
:103CF000FCF726FB18480025016841F0805101605F
:103D0000006800F0805011901448016841F440416F
:103D100001600068022400F44040119001200090EE
:103D2000000401908001CDE906400820089064203D
:103D3000CDE9090405200B906846FDF777FB0CA937
:103D40000F2081E83100E002CDE90F0501210CA828
:103D5000FDF762FA13B030BD4038024000700040F9
:103D60000548016841F47001016003494FF00060AB
:103D7000803908607047000088ED00E00148FEF7D8
:103D8000A6BA0000E80100200148FEF7A0BA000032
:103D9000F8080020F0B502681D4B1E4C9F031E4D15
:103DA0001E4E984207D0B84205D0A04203D0A84288
:103DB00001D0B04204D122F0700C4A6842EA0C02F1
:103DC000984210D0B8420ED0A0420CD0A8420AD0DF
:103DD000B04208D0124CA04205D0124CA04202D0F2
:103DE000114CA04203D122F44074CA6822434C69AA
:103DF00022F08002224302608A68C2620A688262FC
:103E0000984201D10969016301214161F0BD0000BF
:103E1000000001400004004000080040000C004089
:103E200000400140004401400048014010B5846852
:103E300042EA032224F47F440A432243826010BDF5
:103E4000826822F070020A4342F0070181607047E5
:103E500010B5036A046A24F001040462846924F042
:103E6000F00444EA021423F00A020A438461026265
:103E700010BD10B5036A23F0100303628369046A5E
:103E800023F4704343EA023224F0A00343EA011111
:103E90008261016210BD10B5806B0021C185C184B3
:103EA000FEF711FB10BD70B5846B2068406994F873
:103EB0003910C0F3C0100025212904D118B1E584C0
:103EC000204600F046F82068406994F83A10C0F3A4
:103ED0008010222904D118B1E585204600F02BF886
:103EE000E06B40F01000E0632046FEF7ECFA70BD96
:103EF00010B50146806B09680968C90513D4002113
:103F0000C1850168CA6822F48072CA6001684A6982
:103F100022F001024A6101684A6922F040024A61C6
:103F2000202180F83A10FEF7B9FC10BD10B5806B67
:103F3000FEF74AFD10BD0168CA6822F49072CA609B
:103F400001684A6922F001024A61202180F83A1092
:103F500070470168CA6822F0C002CA60202180F858
:103F60003910704710B590F83A10222901D002207C
:103F700010BD8168B1F5805F11D001690029016829
:103F80001FD0496801F07F03816A4A1C82620B706E
:103F9000C18D491E0904090CC18518D02BE00269A6
:103FA000816A002A0268526805D0D2B20A80816A0A
:103FB000491C8162ECE7C2F308020A80816A891C0D
:103FC000F7E74A68816A4B1C83620A70E0E7016880
:103FD000CA6822F02002CA600168CA6822F48072AE
:103FE000CA6001684A6922F001024A61202180F812
:103FF0003A10FEF753FC002010BD00002DE9F041FF
:10400000044600680169E26821F4405111430161EE
:104010002169A068E2690843616911430843216886
:10402000CA6849F20C639A430243CA602068416936
:10403000A26921F4407111434161E06919276425A7
:104040003226B0F5004F354A354920684FF0000858
:1040500006D0884201D0904236D1FDF7A7F935E06D
:10406000884201D0904202D1FDF7A0F901E0FDF7AE
:104070008DF961684A18A0FB070148EB0803FCF7BB
:1040800007F90146B0FBF5F00201B1FBF5F06FF066
:104090001803584301EB800006EBC000B0FBF5F0BD
:1040A00000F0F80002EB4002B1FBF5F0584301EBE1
:1040B000800006EBC000B0FBF5F000F007002168BF
:1040C00010448860BDE8F081FDF760F961688B0FEE
:1040D0008A00A0FB0701FCF7DBF80146B0FBF5F016
:1040E0006FF01802504301EB800006EB0010B0FBAC
:1040F000F5F000F0F002B1FBF5F002EB0012B1FBBD
:10410000F5F06FF01803584301EB800006EB001048
:10411000B0FBF5F000F00F00D1E700000014014003
:104120000010014090F83910212901D00220704779
:104130008168B1F5805F016A0BD04A1C0262026897
:1041400009785160C18C491E0904090CC1840ED044
:1041500017E009880268C1F308015160016900296C
:10416000016A02D0491C0162ECE7891CFBE7016887
:10417000CA6822F08002CA600068C16841F040014C
:10418000C1600020704700000148FEF79DB90000A3
:10419000280200200148FEF797B9000068020020BD
:1041A000FEE70907090E002804DB00F1E02080F893
:1041B0000014704700F00F0000F1E02080F8141D9B
:1041C000704702E008C8121F08C1002AFAD17047E0
:1041D0007047002001E001C1121F002AFBD1704787
:1041E000EFF30580002800D00120704710B50022B1
:1041F0000A21182000F0AEFE6420FCF7E9FB0F2234
:104200000A21182000F0A6FE6420FCF7E1FB002242
:104210000A21182000F09EFE6420FCF7D9FB074815
:10422000C178807841EA0010C2B20A21182000F05B
:1042300091FEBDE810406420FCF7CABB00000020DE
:1042400010B500226B21D22000F084FE6420FCF720
:10425000BFFB01226B21D22000F07CFE6420FCF722
:10426000B7FB03221A21D22000F074FE6420FCF771
:10427000AFFB04221921D22000F06CFE6420FCF771
:10428000A7FB1B21D22000F08BFC04466420FCF726
:104290009FFB24F01A00214C617840EAC100C2B2B1
:1042A0001B21D22000F056FE6420FCF791FB1C215C
:1042B000D22000F075FC217820F0180040EAC100FF
:1042C000C4B26420FCF784FB22461C21D22000F0FB
:1042D00041FE6420FCF77CFB1D21D22000F060FC35
:1042E00020F00F0040F003021D21D22000F032FE2A
:1042F0006420FCF76DFB22223721D22000F02AFE39
:104300006420FCF765FB01223821D22000F022FE58
:10431000BDE810406420FCF75BBB000000000020FB
:1043200088B0FCF7C9FEFFF7DBFCFEF785FDFEF762
:1043300047FD394837494FF4E13500240160C0E9B1
:1043400001540C26C460C0E904468461C461FEF7D0
:1043500045F93148314940300160C0E90154C46039
:10436000C0E904468461C461FEF738F92A482C4943
:10437000C438C0E900148460C46003210461C0E94A
:104380000541FEF791FD2448264980300160C0E9CF
:104390000154C460C0E904468461C461FEF71EF99B
:1043A0002249214808600846FCF71FF921482049A6
:1043B00001602149C0E901144FF48041C0E9034183
:1043C00044618461C4610462FCF7F0FB1B4926224E
:1043D000A1F5A070FEF7ECF91849092226310E4824
:1043E000FEF732FA0C484038FDF7F4FEFFF728FFDD
:1043F000FFF7FCFE1C2212496846FBF77AFF0021FA
:10440000684600F0CBF809493439C86100F029F852
:10441000FEE7000000100140280200200044004098
:10442000002C014000140140003002403400002004
:104430000054004010010020A0860100A8030020C5
:104440008459000801460020842900D0C81C704708
:1044500010B501F02FF9012801D0012010BD002076
:1044600010BD10B500F00AFD002010BD10B5FFF71B
:10447000B7FE18B1BDE8104001F030B9BDE81040FA
:1044800001F026B938B5D0E9011204683AB1C36821
:104490002BB100200090204600F00AFE38BD2046D7
:1044A000BDE83840002200F0DFBD00002DE9FF41EB
:1044B0000D004FF00006CDE9016507461ED000242F
:1044C0000396501C1FD002B11446FFF789FE6946BF
:1044D0004FF01008E8B103AA2846091D01F00AF8B8
:1044E000012813D000960398E8B114494FF080508A
:1044F0000860BFF34F8FBFF36F8F14E08020314609
:104500002A46009011E04FF0FF34DEE7CDF800803E
:10451000E9E722462846091D00F050FF012808D08F
:1045200054B1402000909DE8070087E80700BDE8EF
:10453000FF81CDF80080F6E70020F3E704ED00E00E
:1045400037B5054682B000200090140000D1012448
:10455000FFF746FE4FF0000388B16A4603A92846DC
:1045600000F0CEFE012811D1009890B10A494FF019
:1045700080500860BFF34F8FBFF36F8F09E0224672
:1045800003A9284600F00CFE012802D0FF2005B048
:1045900030BD0020FBE7000004ED00E07FB50D46D4
:1045A00004464169B0F9080081B1A16971B1FFF712
:1045B00049FFD4E905128DE80700D4E900102B4625
:1045C000226901F04CF8039004B070BDFFF73AFF88
:1045D00003A9CDE90001208A2B4682B2D4E900105C
:1045E00001F010F8012801D00020EDE70398EBE777
:1045F0002DE9F041184C0F46054666692068001DFC
:1046000000F028FB38B9206890F82C100120884071
:10461000A1698143A161681C07D137B12168BDE858
:10462000F0410E48091D00F059BB20683544B542E1
:104630004560216805D2A068BDE8F041091D00F081
:1046400035BB6068091D00F031FB206B854200D24C
:104650002563BDE8F08100005C000020200A0020F6
:104660002DE9F041054600F045FB2E4C2069401C29
:10467000206120682C4F10B1E06940B32DE0256027
:104680002069012829D1002606EB860007EB80006F
:1046900000F0FEFA761C072EF6D323488C3000F08B
:1046A000F7FA2148A03000F0F3FA1F48B43000F0C8
:1046B000EFFA1D48C83000F0EBFA1B48DC3000F080
:1046C000E7FA19488C3060601430A06005E020687B
:1046D000E96AC06A884200D82560E06A401CE0624E
:1046E000E96A0120A26988401043A06101EB8100C2
:1046F00007EB8000291D00F0F1FA00F01BFBE069D8
:1047000000280CD02068E96AC06A884207D20749AD
:104710004FF080500860BFF34F8FBFF36F8FBDE83D
:10472000F08100005C0000204409002004ED00E05E
:1047300030B4026C0B46002A0BD0C1681144C16032
:104740004468A14201D30168C16030BC1846FBF740
:10475000D0BD30BC70472DE9F041856B174604464B
:104760000026026C82B1C7B1E068FBF7C2FDE168C8
:10477000206C091AE1602268914202D26168081A2D
:10478000E060022F16D017E02068A8B9606801F039
:1047900011F80646002060600EE0A068FBF7A9FD56
:1047A000216CA0680844A0606168884204D3206836
:1047B000A06001E005B16D1E6D1CA5633046BDE82B
:1047C000F08110B5044690F8510058B101280CD082
:1047D00002280FD0502080F31188BFF34F8FBFF312
:1047E0006F8FFEE7206B00F0B9FA2046BDE810405D
:1047F00000F0B4BA10BD000010484FF470514207E9
:1048000006D0C01D0D4920F00700411AC1F57051B6
:104810000B4A00230144C2E900030839103A21F091
:10482000070111604B600B600B1AC0E90013936025
:104830004FF000405360D06070470000340A002001
:10484000A8000020144E154CA6F1C8074FF0805860
:10485000DFF84C9012E000BF00F04CFAF068C56839
:10486000281D00F0F7F92069401E2061E068401E15
:10487000E06000F05FFA2846FFF7A3FFE068002839
:10488000EAD138680128F9D9C9F80080BFF34F8F01
:10489000BFF36F8FF2E700000C0A00205C000020DD
:1048A00004ED00E00346009829B10260C0E90F3131
:1048B000012100F031BC0060F8E72DE9F0479A468D
:1048C000DDE9098481466FF00303206B03EB82026C
:1048D0001044089D20F00706700707D0502080F391
:1048E0001188BFF34F8FBFF36F8FFEE723180A5C69
:1048F00083F834200A5C12B1401C1028F6D300273C
:1049000084F84370072D00D30625E562C4E91157EA
:10491000201D00F0C8F904F1180000F0C4F924616A
:10492000C5F107006462A061E76484F850705246E4
:104930004946304600F002F92060B8F1000F01D07E
:10494000C8F80040BDE8F08730B5114900E01146D5
:104950000A688242FBD34B685C18844203D14068EA
:1049600018444860084643681C18944209D1084C12
:10497000103C2468A24209D052681A4442600A6876
:1049800012680260814200D0086030BD0460F9E71F
:10499000A800002010B5044600F0ACF9A06B28B1C7
:1049A0005FF0000400F0C6F9204610BD0124F9E7CD
:1049B00006484168096829B14168C968C9684968F9
:1049C000016370474FF0FF31FAE700005C00002000
:1049D00008484068401C4FF0500080F3118804D014
:1049E000BFF34F8FBFF36F8FFEE7BFF34F8FBFF360
:1049F0006F8FFEE7B00000202DE9F041044600F083
:104A000079F994F9455004F1240609E0606A48B147
:104A1000304600F01BFF08B100F012FA6D1E6DB2B7
:104A2000002DF3DC4FF0FF3684F8456000F082F98A
:104A300000F060F994F9445004F1100709E020698E
:104A400048B1384600F002FF08B100F0F9F96D1ED8
:104A50006DB2002DF3DC84F84460BDE8F04100F055
:104A600069B900002DE9F0410546002700F03CFA45
:104A7000314E306808B9FFF7BFFEF06805424BD1F0
:104A8000C5B3083568070ED005F00700C0F108006F
:104A90000544680707D0502080F31188BFF34F8F7B
:104AA000BFF36F8FFEE72DB37068854234D822487C
:104AB000103001460C6801E020460C466168A942AE
:104AC00002D221680029F7D131688C4224D00768CE
:104AD0002168016060680837411B10290FD96019EF
:104AE000420708D0502080F31188BFF34F8FBFF3E7
:104AF0006F8FFEE710E041606560FFF725FF61689A
:104B00007068401A7060B268904200D2B060F0687D
:104B100001430020C4E9000100F0D2FE780707D06D
:104B2000502080F31188BFF34F8FBFF36F8FFEE7E4
:104B30003846BDE8F08100009800002010B5031F42
:104B40004FF080741C601B1F21F001011960191FB8
:104B5000044B0B6014390A60091F6FF002024438DD
:104B60000A6010BDD14900087FB505463B208DF88D
:104B70000C000A24012303AAD22108480094FCF760
:104B8000C9F9062301AAD22104480094FCF7D2F8FF
:104B900001982860BDF80800A8807FBD10010020A2
:104BA0003EB504468DF808100A250146012302AAE5
:104BB00006480095FCF7AEF9012301AA21460348F7
:104BC0000095FCF7B7F89DF804003EBD10010020E9
:104BD0007FB5054643208DF80C000A24012303AA63
:104BE000D22108480094FCF795F9062301AAD221A6
:104BF00004480094FCF79EF801982860BDF808006E
:104C0000A8807FBD100100207FB504460221182036
:104C1000FFF7C6FFC0071AD003208DF80C000A2545
:104C2000012303AA18210A480095FCF773F907230A
:104C300001AA182106480095FCF77CF89DF80A00A7
:104C4000000704D401982060BDF80800A0807FBD53
:104C500010010020D0E9013201699A60D0E90123F6
:104C60005A604A68824201D182684A600022026129
:104C70000868401E0860086870470000034B036026
:104C800003F154000860802010607047A4060020E3
:104C900000F108014FF0FF32C0E90112C16001616B
:104CA00000210160704700210161704730B50B6839
:104CB0005A1C02D000F1080202E0026904E0224618
:104CC000546825689D42FAD953684B6099608A60A0
:104CD000516008610168491C016030BD42684A604A
:104CE00093688B6093685960916008610168491C02
:104CF00001607047502080F31188BFF34F8FBFF3DE
:104D00006F8F0A494868401C486001280CD1084848
:104D1000006810F0FF0F07D0502080F31188BFF318
:104D20004F8FBFF36F8FFEE770470000B000002089
:104D300004ED00E00849486828B1401E486001D1F0
:104D400080F311887047502080F31188BFF34F8F94
:104D5000BFF36F8FFEE70000B000002070B50028A1
:104D600027D0144DA0F108046168E868014207D11A
:104D7000502080F31188BFF34F8FBFF36F8FFEE792
:104D800022683AB1502080F31188BFF34F8FBFF3F0
:104D90006F8FFEE78143616000F0A6F86068696884
:104DA000084468602046FFF7CFFDBDE8704000F082
:104DB00087BD70BD980000204FF0E0200021016108
:104DC000816105494FF47A720968B1FBF2F1491E1D
:104DD00041610721016170475800002010B5FBF7C1
:104DE00041FA114910280ED300F1E02090F8F003A9
:104DF0000A78904207D2502080F31188BFF34F8F7A
:104E0000BFF36F8FFEE709480068896800F4E0602F
:104E1000884207D9502080F31188BFF34F8FBFF32A
:104E20006F8FFEE710BD0000B00000200CED00E029
:104E300002498A6A02604969416070475C0000204B
:104E400001490120486270475C00002010B50C4603
:104E500050B1094909681831FFF728FF2046BDE81D
:104E600010400121FFF7C4BB502080F31188BFF32D
:104E70004F8FBFF36F8FFEE75C00002010B586B048
:104E80000024039405AA04A903A80494FFF7F6FEDE
:104E9000DDE903010094CDE9011000230EA11048C3
:104EA000059A00F0DCFB0F490028486311D0502020
:104EB00080F31188BFF34F8FBFF36F8F4FF0FF3038
:104EC00008630120C8614C6106B0BDE8104000F0E5
:104ED00051B806B010BD000049444C450000000028
:104EE000454800085C0000200248816B491C816332
:104EF000704700005C0000201448816B11B1012153
:104F000041627047002141628169B1FA81F1C1F1CA
:104F10001F0101EB81020E4951F822306BB101EB08
:104F2000820101F108034A6852684A609A4201D13D
:104F300052684A60D16801607047502080F3118840
:104F4000BFF34F8FBFF36F8FFEE700005C000020C0
:104F5000440900201CB502238DF804100A21009199
:104F60008DF80520014601AA0148FBF7D3FF1CBDBF
:104F7000100100201CB537480168374A914207D11B
:104F8000502080F31188BFF34F8FBFF36F8FFEE780
:104F900000683149491E884207D1502080F31188AA
:104FA000BFF34F8FBFF36F8FFEE72C490878019056
:104FB000FF20087008788DF800009DF800009DF82B
:104FC000002000F0F000904207D0502080F31188BC
:104FD000BFF34F8FBFF36F8FFEE79DF80000204BAC
:104FE00000F0500018700720986005E09DF8002040
:104FF00052008DF80020401E9DF800201206F5D4C6
:105000009860032807D0502080F31188BFF34F8F9A
:10501000BFF36F8FFEE74FF44070986001980870FF
:105020000C482030016841F470010160016841F0D2
:1050300070410160FFF7C0FE00205860FBF7DAF80E
:105040000848016841F040410160FBF7BFF80020CB
:105050001CBD000000ED00E071C20F4100E400E063
:10506000B000002034EF00E0F8B517460E4605000A
:1050700014D0DEB105FB06F04830FFF7F3FC040066
:105080000AD0002084F8460004F148023B4631462D
:1050900028460094FFF706FC2046F8BD502080F318
:1050A0001188BFF34F8FBFF36F8FFEE70020E3E758
:1050B00038B5049D18B153B1CAB181B120E0502078
:1050C00080F31188BFF34F8FBFF36F8FFEE750203F
:1050D00080F31188BFF34F8FBFF36F8FFEE750202F
:1050E00080F31188BFF34F8FBFF36F8FFEE739B1A5
:1050F000502080F31188BFF34F8FBFF36F8FFEE70F
:1051000048241C46012384F846302B460094FFF7C0
:10511000C9FB204638BD000070B50D46040025D0FF
:10512000FFF7E8FDD4E90F20216802FB0011616060
:105130000021A1632168A1600A46D4E90F01401E45
:1051400000FB0121E16021464FF0FF3001F8440FE0
:10515000487004F110008DB1FFF79AFD04F12400AE
:10516000FFF796FDFFF7E6FD012070BD502080F3AC
:105170001188BFF34F8FBFF36F8FFEE721690029BE
:10518000F0D000F063FB0028ECD004494FF08050D1
:105190000860BFF34F8FBFF36F8FE3E704ED00E0CC
:1051A0002DE9FF4782B01D468A464FF000080400F3
:1051B00003D0BAF1000F08D011E0502080F311881D
:1051C000BFF34F8FBFF36F8FFEE7206C38B15020D5
:1051D00080F31188BFF34F8FBFF36F8FFEE7022D6F
:1051E0000AD1E06B012807D0502080F31188BFF36B
:1051F0004F8FBFF36F8FFEE700F05CFA3F4F4FF029
:1052000000094FF0805648B9049838B1502080F317
:105210001188BFF34F8FBFF36F8FFEE7FFF76AFD73
:10522000A06BE16B884207D3022D05D00498D0B162
:10523000B8F1000F1AD01EE02A4651462046FFF76B
:105240008AFA616A19B104F1240000F0FFFA20B172
:105250003E60BFF34F8FBFF36F8FFFF76BFD0120F1
:1052600006B0BDE8F087FFF765FD22E06846FFF76E
:10527000DFFD4FF00108FFF75DFDFFF735FEFFF79B
:1052800039FD94F94400401C01D184F8449094F90C
:105290004500401C01D184F84590FFF74BFD04A95F
:1052A000684600F075F930B12046FFF7A5FB00F025
:1052B00007FB0020D4E7FFF71DFDA06BE16B8842E0
:1052C00013D1FFF737FD04F110000499FFF7BEFD7D
:1052D0002046FFF791FB00F0F3FA00289ED13E60D4
:1052E000BFF34F8FBFF36F8F98E7FFF723FD204683
:1052F000FFF782FB00F0E4FA90E7000004ED00E025
:105300002DE9F0471F4690468946040003D0B9F1C5
:10531000000F08D011E0502080F31188BFF34F8FA9
:10532000BFF36F8FFEE7206C38B1502080F31188F7
:10533000BFF34F8FBFF36F8FFEE7022F0AD1E06BF1
:10534000012807D0502080F31188BFF34F8FBFF39F
:105350006F8FFEE7FFF742FD5020EFF3118680F3D9
:105360001188BFF34F8FBFF36F8FA06BE16B884243
:1053700006D3022F04D0002086F31188BDE8F08701
:1053800094F945503A4649462046FFF7E4F9681C2F
:1053900004D06D1C84F845500120EDE7606A0028B8
:1053A000FAD004F1240000F051FA0028F4D0B8F14A
:1053B000000FF1D00121C8F80010EDE72DE9F74703
:1053C000002683B08A46040003D0BAF1000F08D04B
:1053D00011E0502080F31188BFF34F8FBFF36F8F20
:1053E000FEE7206C38B1502080F31188BFF34F8F57
:1053F000BFF36F8FFEE700F05DF9DFF8F4804FF048
:1054000000094FF0805748B9059838B1502080F313
:105410001188BFF34F8FBFF36F8FFEE7FFF76AFC72
:10542000A56BC5B151462046FFF782F96D1EA563F5
:10543000206950B104F1100000F008FA28B1C8F852
:105440000070BFF34F8FBFF36F8FFFF773FC012026
:1054500006B0BDE8F087059808B11EB106E0FFF779
:1054600069FC27E06846FFF7E3FC0126FFF762FCD2
:10547000FFF73AFDFFF73EFC94F94400401C01D1D0
:1054800084F8449094F94500401C01D184F845907B
:10549000FFF750FC05A9684600F07AF8002820467E
:1054A0000AD0FFF7A9FA00F00BFA2046FFF772FACC
:1054B0000028B3D00020CBE7FFF76CFA90B104F1DD
:1054C00024000599FFF7C2FC2046FFF795FA00F08B
:1054D000F7F90028A2D1C8F80070BFF34F8FBFF3CF
:1054E0006F8F9BE72046FFF787FA00F0E9F995E711
:1054F00004ED00E02DE9F04790468946040003D012
:10550000B9F1000F08D011E0502080F31188BFF3EB
:105510004F8FBFF36F8FFEE7206C38B1502080F3C0
:105520001188BFF34F8FBFF36F8FFEE7FFF756FC75
:105530005020EFF3118680F31188BFF34F8FBFF334
:105540006F8FA76BF7B194F9445049462046FFF797
:10555000EFF87F1EA763681C04D06D1C84F84450CC
:10556000012010E020690028FAD004F1100000F0BA
:105570006DF90028F4D0B8F1000FF1D00121C8F87E
:105580000010EDE7002086F31188BDE8F0870000E9
:105590002DE9F0410C46050011D0C4B1FFF7AAFB7C
:1055A000174B5A696E682068911B471C17D02F68EB
:1055B0009B6A9F4219D0964217D8012410E05020D0
:1055C00080F31188BFF34F8FBFF36F8FFEE750203A
:1055D00080F31188BFF34F8FBFF36F8FFEE7002476
:1055E000FFF7A8FB2046BDE8F081884205D9401AA4
:1055F00020602846FFF71CFCF1E700202060DCE774
:105600005C0000202DE9FF5F8346DDE90E879946A7
:1056100016468A469000FFF725FA05001CD0542054
:10562000FFF720FA040014D00020256384F851000D
:10563000CDE90240CDE900874B46324651465846F7
:10564000FFF73BF92046FFF70BF8012004B0BDE857
:10565000F09F2846FFF782FB4FF0FF30F6E7F0B5EA
:1056600085B0DDE90B640A9DA6B1DCB15427009733
:105670002663022684F85160002604AFCDE9024675
:10568000CDE90057FFF719F92046FEF7E9FF049826
:1056900005B0F0BD502080F31188BFF34F8FBFF3EA
:1056A0006F8FFEE7502080F31188BFF34F8FBFF359
:1056B0006F8FFEE70548C16919B1806B18B10020F2
:1056C0007047012070470220704700005C000020F6
:1056D00001484069704700005C00002010B5FFF7EA
:1056E0007DFB0148406910BD5C0000202DE9F041C0
:1056F0002E4C0027A06B40B1206A401C2062606ADB
:1057000000B101273846BDE8F0816669761C666104
:1057100013D16068006838B1502080F31188BFF35E
:105720004F8FBFF36F8FFEE76068A1686160A06074
:10573000A06A401CA062FFF73BF9206BDFF8708085
:10574000864209D36068006880B16068C068C56837
:10575000686886420DD220632068C06A00EB800131
:1057600058F821000128CAD90127C8E74FF0FF30B7
:10577000F1E7281DFFF76EFAA86A18B105F11800C5
:10578000FFF768FAE86A0121A26981401143A1612B
:1057900000EB800108EB8100291DFFF79FFAE86A02
:1057A0002168C96A8842CDD30127CBE75C0000207D
:1057B0004409002070B504004FF0000140D0214D95
:1057C0002868844207D0502080F31188BFF34F8FA0
:1057D000BFF36F8FFEE7A06C38B1401EA064636C0E
:1057E000E26A9A422CD040B12AE0502080F311881E
:1057F000BFF34F8FBFF36F8FFEE7201DFFF72AFA2D
:10580000114A012150B9E06A00EB800352F82330BD
:1058100023B9AB6901FA00F08343AB61606CE062CD
:10582000C0F10700A061E06AAB6981401943A9613A
:1058300000EB800002EB8000211DFFF74FFA0121F1
:10584000084670BD5C000020440900202DE9F041AD
:10585000C068C468ACB104F118000746FFF7FAF954
:10586000154DA86B0126A0B139461448FFF736FA4A
:10587000E06A2968C96A88421CD901206E62BDE8C5
:10588000F081502080F31188BFF34F8FBFF36F8FEB
:10589000FEE7201DFFF7DEF9E16AAA6906FA01F0CA
:1058A0001043A86101EB81000449B43901EB800089
:1058B000211DDBE70020E2E75C000020F809002062
:1058C0002DE9F0472C4D00242746A86B38B1FFF78F
:1058D00011FAA86B401EA863A86B40B146E05020A7
:1058E00080F31188BFF34F8FBFF36F8FFEE72969F5
:1058F000224E0120D1B3A6F1B40980463068E8B148
:10590000F068C46804F11800FFF7A4F9201DFFF740
:10591000A1F9E06AAA6908FA00F11143A96100EB54
:10592000800109EB8100211DFFF7D8F9E06A2968A1
:10593000C96A8842E2D3C5F82480DFE70CB1FFF7DB
:1059400037F82C6A44B14646FFF7D0FE00B16E62CC
:10595000641EF9D100202862686A38B1084901271D
:1059600038070860BFF34F8FBFF36F8FFFF7E2F97F
:105970003846BDE8F08700005C000020F8090020F0
:1059800004ED00E0E4590008793B00080000000045
:105990000000000080000000000000000000000087
:1059A00081390008B93A0008193A0008BD3A0008E0
:1059B000C93900080A0000000200000000000000D1
:1059C000000000000006101600061016000000007F
:1059D000000000000102030406070809000000009F
:1059E0000102030464656661756C745461736B0035
:1059F000105A000800000020BC000000C24100084E
:105A0000CC5A0008BC0000207C850000D241000870
:105A1000000001060000000000000000000000007F
:105A20000000000000000000000000000000000076
:105A30000000000000000000000000000000000066
:105A40000000000000000000000000000100000055
:105A50000000000000000000000000000100000045
:105A600010000000000000000024F400000000000E
:105A70000000000000000000000000000000000026
:105A80000000000000000000000000000000000016
:105A90000000000000000000000000000000000006
:105AA00000000000000000000000000000000000F6
:105AB00000000000000000000000000000000000E6
:0C5AC00000000000AAAAAAAA0000000032
:040000050800019955
:00000001FF
