:020000040800F2
:1000000038A600206D020008872800082127000874
:100010008528000811060008953A00080000000035
:10002000000000000000000000000000AD0100081A
:10003000DD0600080000000009020008593600082B
:10004000870200088702000887020008870200086C
:10005000870200088702000887020008870200085C
:10006000870200088702000887020008870200084C
:10007000870200088702000887020008870200083C
:1000800087020008870200088702000800000000BD
:1000900000000000000000000000000087020008CF
:1000A000870200088702000887020008870200080C
:1000B000870200088702000821370008870200082D
:1000C00087020008870200088702000887020008EC
:1000D00087020008893A0008870200080000000033
:1000E000870200088702000887020008000000005D
:1000F000000000000000000000000000870200086F
:1001000000000000BD2800082D3700088702000805
:1001100000000000000000000000000000000000DF
:10012000150600088702000887020008210600085B
:10013000870200080000000000000000000000002E
:10014000000000000000000000000000870200081E
:10015000870200082D0600088702000887020008B1
:10016000870200088702000800000000000000006D
:10017000000000000000000000000000000000007F
:1001800000000000870200080000000000000000DE
:100190008702000887020008DFF80CD000F0ECF8B6
:1001A00000480047FD4C000838A600202C4B196879
:1001B0000868B0E8F04F80F30988BFF36F8F4FF005
:1001C000000080F3118870470000000008480068B4
:1001D000006880F308884FF0000080F3148862B64E
:1001E00061B6BFF34F8FBFF36F8F00DF00BF00BF5B
:1001F00008ED00E0DFF80C00016841F470010160D7
:10020000704700BF88ED00E0EFF30980BFF36F8F08
:10021000134B1A681EF0100F08BF20ED108A20E95A
:10022000F04F106009B44FF0500080F31188BFF315
:100230004F8FBFF36F8F05F0E5FD4FF0000080F3A7
:10024000118809BC19680868B0E8F04F1EF0100F5B
:1002500008BFB0EC108A80F30988BFF36F8F704736
:1002600044000020EFF305807047000006488047F7
:1002700006480047FEE7FEE7FEE7FEE7FEE7FEE78B
:10028000FEE7FEE7FEE7FEE70537000899010008F4
:100290002DE9F05F0546002092469B4688460646BB
:1002A000814640241BE0284641464746224600F04E
:1002B00053F853465A46C01A914110D31146184676
:1002C000224600F03AF82D1A67EB01084F46224605
:1002D0000120002100F031F817EB00094E41201EEB
:1002E000A4F10104DFDC484631462A464346BDE816
:1002F000F09F40EA01039B0703D009E008C9121FE1
:1003000008C0042AFAD203E011F8013B00F8013BCF
:10031000521EF9D27047D2B201E000F8012B491EFB
:10032000FBD270470022F6E710B513460A46044692
:100330001946FFF7F0FF204610BD202A04DB203AC3
:1003400000FA02F1002070479140C2F1200320FA28
:1003500003F3194390407047202A04DB203A21FA26
:1003600002F00021704721FA02F3D040C2F12002CE
:100370009140084319467047064C074D06E0E06877
:1003800040F0010394E8070098471034AC42F6D3DC
:10039000FFF706FF686C0008886C000810B501467E
:1003A000806B026C12F0500F05D0026CD20626D57D
:1003B00000F06EFA10BD016C41F400710164016837
:1003C0008A6812F0405F17D1027EAAB9CA6A12F495
:1003D000700F02D08A6852050ED44A6822F02002BB
:1003E0004A60016C21F480710164016CC90403D47A
:1003F000016C41F00101016400F048FA10BD806B0E
:10040000C26CBDE810400846104710B5806B402113
:100410000164416C41F00401416400F039FA10BDFF
:1004200010B5806B00F033FA10BD0000464910B5DE
:100430004A6822F440324A604A6843681A434A6074
:1004400001684A6822F480724A6001684A68036958
:1004500042EA03224A6001684A6822F040724A6018
:1004600001684A6883681A434A6001688A6822F40E
:1004700000628A6001688A68C3681A438A60816A78
:100480006FF07062D14201688A6822F070628A60FF
:1004900001688A680CD0836A1A438A6001688A6896
:1004A00022F040528A6001688A68C36A1A4301E0F8
:1004B00022F040528A6001688A6822F002028A6053
:1004C00001688A68037E42EA43028A6090F820103D
:1004D000002901684A680FD042F400624A6001684E
:1004E0004A6822F460424A6001684A68174C436ACD
:1004F00004EB43331A4301E022F400624A600168CE
:10050000CA6A22F47002CA620168CA6A838B104CFC
:1005100004EB03531A43CA6201688A6822F400722A
:100520008A6001688A6890F8303042EA43228A6023
:1005300001688A6822F480628A6001688A6840697A
:1005400042EA8020886010BD0023014000E0FFFFE8
:100550000000F0FF704700000146014801F0FCB9BF
:100560002801002010B5044801F008FA042801D041
:10057000012010BD002010BD2801002038B5012049
:100580008DF800009DF80000012801D0012038BD41
:10059000064801F00DFB040006D14FF4006103484A
:1005A00001F092F800B10124204638BD2801002056
:1005B000134610B50A4601460024034801F0F2FB39
:1005C00000B10124204610BD2801002003484FF04F
:1005D000FF320121406804F0DBBC00001C00002059
:1005E000134610B50A4601460024034801F07AFC80
:1005F00000B10124204610BD2801002003484FF01F
:10060000FF320221406804F0C3BC00001C0000203F
:10061000FEE70000014800F083BA0000BC020020A1
:10062000014800F07DBA00001C030020014800F0E2
:1006300077BA00007C03002001681823CAB2103A80
:10064000B2FBF3F2054B6FF30901032A9B5CC36510
:1006500000D9091D8165084670470000B86B000885
:1006600010B5014600208B698A6A4FF0C07453B1FF
:10067000B3F5005F15D072B1012A0CD0022A0AD05E
:10068000032A09D104E01AB1012A06D0022A03D1B3
:10069000C96AC90100D5012010BDC96AA142FAD0BA
:1006A00010BD002AF7D0012AF2D0022AF3D0032A83
:1006B000F3D010BD30B50468256825F48025256089
:1006C000046863608368402B036803D09960006806
:1006D000C26030BD9A600068C16030BD704770472D
:1006E000002200F001B8000030B50E4B0546012095
:1006F0005C7A002C14D1587A1C54587A03EB800091
:1007000045605D7A03F108002A54587A421C5A72F7
:10071000303008703A2048702F208870CC7000204C
:1007200030BD0000F828002078B50024009490F82F
:100730003C20012A19D0012280F83C200A680723B6
:100740000568092A13D9EE680A3A02EB420293407F
:100750009E43EE600B788A680A3B03EB43039A40A2
:100760000368DD682A43DA6010E0022078BD2E6954
:1007700002EB420293409E432E610B788A6803EBA2
:1007800043039A4003681D692A431A614A681F237C
:10079000072A13D205686E6B521E02EB8202934049
:1007A0009E436E630A8893B20A79521E02EB82025C
:1007B00093400268556B2B43536327E005680D2A6D
:1007C00012D22E6BD21F02EB820293409E432E6305
:1007D0000B790A88DB1F92B203EB83039A4003680C
:1007E0001D6B2A431A6311E0EE6A0D3A02EB820296
:1007F00093409E43EE620B790A880D3B92B203EB65
:1008000083039A400368DD6A2A43DA621B4B05685A
:10081000194A9D420AD10D68122D07D1556825F459
:1008200000055560556845F48005556005689D4292
:100830001DD1134D0B68AB4201D0112B17D153685A
:1008400023F480035360536843F400035360096842
:10085000A9420CD10B490C4A0968B1FBF2F101EB3A
:100860008101490000E0491E00910029FBD180F878
:100870003C40002078BD00000023014000200140E2
:10088000120000102C00002040420F0070477047FB
:10089000704770B504004FF0000503D0206C0026AF
:1008A00010B107E0012070BD204600F01DF866641D
:1008B00084F83C60206CC00610D4206C20F4885072
:1008C00040F0020020642046FFF7B0FD6664206C13
:1008D00020F0020040F00100206400E0012584F8CF
:1008E0003C60284670BD000070B586B006461421F5
:1008F0006846FFF717FD1D493068884234D11C480F
:100900000025016841F480710160006800F4807086
:10091000059017481438016841F001010160006832
:10092000694600F001000590B32000900320CDE956
:100930000105104800F078FA104C0F48C4E9000592
:100940000015A560C4E90350400060618000A0610B
:100950004011C4E907052046656200F0B1F908B10D
:10096000FFF7BDFEB463A66306B070BD0020014072
:10097000443802400000024010640240BC020020E3
:10098000F8B50E4600210446009190F83C0001287D
:1009900007D0012084F83C0020688368DB0702D080
:1009A00011E00220F8BD836843F0010383602D4805
:1009B0002D4B0068B0FBF3F000EB400000E0401E60
:1009C00000900028FBD120688368DB0748D0236CA7
:1009D00040F20165AB4343F48073236440684005F3
:1009E00005D5206C20F4005040F480502064206C29
:1009F000C00404D5606C20F00600606400E061640F
:100A000084F83C10A16B1A48184DC863A16B1948B3
:100A10000864A16B1848C86421686FF02200086060
:100A20002068416841F0806141602068816841F43C
:100A3000807181602168134632464C31A06B00F012
:100A4000A9F96868C006206802D00C49884207D11D
:100A5000816811F0405F03D1816841F0804181607D
:100A60000020F8BD2C00002040420F000023014070
:100A70009D030008210400080B0400080020014029
:100A800030B50223437103689C6844F001049C6004
:100A9000002304E0056851F823402C605B1C93425E
:100AA000F8D30168096801224271084630BD10B5CB
:100AB000040002D0607910B106E0012010BD0020D2
:100AC0002071204600F004F801206071002010BD64
:100AD00008B500680649884208D10648016841F413
:100AE00080510160006800F48050009008BD000053
:100AF000003002403038024090F83510022903D00F
:100B00008021416501207047052180F8351000687B
:100B1000016821F00101016000207047406D7047BD
:100B20002DE9F84304464FF00009CDF800906348E2
:100B30004FF41651A56D0068B0FBF1F72E6894F8DC
:100B40005C10082000FA01F131420FD021680A68D8
:100B500052070BD50A6822F004020A6094F85C1070
:100B60008840A860606D40F00100606594F85C10FA
:100B70004FF0010808FA01F0304208D021684969B5
:100B8000090604D5A860606D40F00200606594F825
:100B90005C1004208840304208D021680968890729
:100BA00004D5A860606D40F00400606594F85C10A6
:100BB00010208840304218D021680968090714D5F0
:100BC000A86020680168490304D50068000308D5BF
:100BD000A16C07E00168C90503D4016821F0080190
:100BE0000160216C09B12046884794F85C102020F0
:100BF0008840304231D021680968C9062DD5A860E7
:100C000094F8350005282068016806D0490347D5C7
:100C1000006800031DD4616C1CE021F01601016026
:100C20002068416921F080014161206C08B9A06C05
:100C300020B12068016821F00801016094F85C107F
:100C40003F208840A86084F8349084F83580216D76
:100C50001FE0E16B09B120468847606D00282BD06A
:100C6000606DC00714D0052084F835002068016845
:100C700021F0010101600098401C0090B84203D8A7
:100C800020680068C007F6D184F8349084F8358075
:100C9000E16C002910D001B02046BDE8F0430847C0
:100CA0000168C905D5D4016821F01001016084F8FC
:100CB000349084F83580CCE7BDE8F8832C00002020
:100CC0002DE9F041044600F085F906465CB10025A7
:100CD00084F83450022084F835002068016821F03F
:100CE000010101600DE00120BDE8F08100F072F922
:100CF000801B052805D920206065032084F8350075
:100D0000F2E720680068C007F0D122681168204827
:100D10000140D4E901031843D4E9033633431843AF
:100D200063691843A3691843E3691843236A1843A6
:100D30000843616A042903D1D4E90B13194308431A
:100D4000106020684069666A20F0070130460E4353
:100D5000012704280CD1A06A0643E06A40B120466E
:100D6000FFF77EFC20B14020606584F83570BAE75B
:100D7000206846612046FFF75FFC94F85C203F2125
:100D800091408160656584F835700020ACE7000013
:100D90003F8010F02DE9F0410446866D90F8340054
:100DA000002501280DD0012084F8340094F8357016
:100DB0000020012F07D084F8340002252846BDE822
:100DC000F0810220FBE7022784F835706065204639
:100DD000FFF770FC94F85C103F208840B0602068FA
:100DE000016841F016010160206C20B120680168A3
:100DF00041F0080101602068016841F001010160D3
:100E0000DCE7000070B5044600F0E4F80546601C1D
:100E100002D004480078044400F0DCF8401BA042F3
:100E2000FAD370BD300000202DE9F84F00224FF0BA
:100E3000010803254FF00F0E0B6808FA02F4234057
:100E4000A34271D14E68012E05D0022E03D0112E7F
:100E500001D0122E15D18668570005FA07FC26EA44
:100E60000C06D1F80CC00CFA07FC4CEA060CC0F8D2
:100E700008C04668A6430C79C4F300149440344378
:100E80004460C668570005FA07FC8C6826EA0C0621
:100E9000BC403443C4604C68022C01D0122C13D1E6
:100EA000D40800EB8404A346D4F8209054074FEAFA
:100EB000D46A0EFA0AF629EA06090E6906FA0AF653
:100EC00046EA0906CBF8206004680E7924EA0C048F
:100ED00006F00306BE40264306604C68E40056D583
:100EE0002E4C266846F480462660246822F00306CD
:100EF00004F4804400942A4C3444A446D4F80848AE
:100F00009607370F0EFA07F6B443264EB04201D1CA
:100F1000002615E0244EB04201D1012610E0234EF8
:100F2000B04202D102260BE031E0214EB04201D1A5
:100F3000032605E01F4EB04201D1042600E007263B
:100F4000BE402643CCF808681B4E34684F689C436B
:100F5000FF0300D51C433460174E361D34684F68BC
:100F60009C43BF0300D51C433460134E08363468DD
:100F70004F689C43FF0200D51C4334600E4E0C3674
:100F800034684F689C43BF0200D51C433460521C38
:100F9000102AFFF451AFBDE8F88F0000443802403A
:100FA00000300140000002400004024000080240FE
:100FB000000C024000100240003C0140426931EA4E
:100FC000020200D10904816170470AB18161704752
:100FD0000904FBE7014880687047000030000020EA
:100FE0000248816802781144816070473000002017
:100FF0000B4810B5016841F400710160016841F4CB
:1010000080610160016841F480710160032000F09B
:101010008DF8002000F006F800F03EF8002010BD2A
:10102000003C024010B5014688B00022322000F09A
:101030005DF8322000F04CF813480024016841F0BC
:1010400008010160006805A900F0080006906846E4
:1010500000F018F900F036F90C494000B0FBF1F14E
:101060000C480B4A491E026040F2E732C0E90324F3
:10107000C0E9011401F010F810B1012008B010BD52
:10108000044801F043F8F9E74038024040420F00BD
:10109000000C0040982800200C4882B0016841F400
:1010A00080410160006800F4804000900748001F04
:1010B000016841F0805101600068002200F080501A
:1010C00000900F21901E02B000F010B8443802408A
:1010D000002809DB00F01F02012191404009800037
:1010E00000F1E020C0F8001170470000F0B40E4B92
:1010F0001B680C46C3F30223C3F10705042D00D976
:101100000425191D072901D2002300E0DB1E01265A
:1011100006FA05F1491E214099409E40761E164070
:101120003143F0BC02F0B7BC0CED00E0064900F022
:10113000070208684FF6FF03184040EA0220034AFE
:1011400010430860704700000CED00E00000FA0555
:101150002DE9F0470E46050065D0DFF81481D8F878
:101160000000F7B200F00F00B04207D288F800701C
:10117000D8F8000000F00F00B04254D128683D4C70
:10118000810712D5400703D5206840F4E050206065
:101190002878000703D5206840F46040206020686C
:1011A000A96820F0F000084320602878C0072DD0FF
:1011B000304968680839012812D0022813D0032862
:1011C00011D00968890700292DDA216821F003016F
:1011D00001432160FFF7FEFE814641F2883A0EE0AE
:1011E00009688903EFE709688901ECE7FFF7F2FE78
:1011F000A0EB0901514502D90320BDE8F087206822
:10120000696800F00C00B0EB810FEFD1D8F8001046
:10121000404601F00F01B14207D90770006800F0A5
:101220000F00B04201D00120E7E72878400705D53C
:101230002068E96820F4E05008432060287800071F
:1012400006D52068296920F4604040EAC10020608A
:1012500000F058F82168084AC1F30311515CC840F6
:101260000649086006480068FFF7DCFE0020C4E776
:10127000003C024008380240A06B00082C0000200F
:10128000340000200F2202600C4A136803F00303AD
:101290004360136803F0F0038360136803F4E053C2
:1012A000C36012684FF4E05303EAD20202610448BB
:1012B000006800F00F000860704700000838024026
:1012C000003C02400448054900680968044AC1F32B
:1012D0008221515CC84070472C0000200838024031
:1012E000B06B00080448054900680968044AC1F366
:1012F0004231515CC84070472C0000200838024041
:10130000B06B0008154810B5006810F00C021448C6
:1013100013D04110042A0FD0082A0ED10F4C241FDD
:101320002268236802F03F025B0207D52068C0F301
:101330008810A0FB010106E0084610BD2168C1F33A
:101340008811A1FB00010023FEF7A2FF2168C1F371
:101350000141491C4900B0FBF1F010BD08380240C2
:101360000024F4002DE9F84F040076D02078DFF84F
:1013700038A3CE4DC00749D0DAF800105046C1F36B
:101380008101012908D00068C0F3810002280AD138
:10139000281D0068400206D52868800336D560689D
:1013A0000028E2D032E06068B0F5803F10D0B0F5A0
:1013B000A02F286810D020F480302860286820F4FE
:1013C000802028606068A0B1FFF704FE06460CE0AC
:1013D000286840F48030F4E740F480202860F7E784
:1013E000FFF7F8FD801B642873D828688003F7D5C1
:1013F0000CE0FFF7EFFD064605E000BFFFF7EAFD52
:10140000801B6428F0D828688003F7D42078DFF8A0
:10141000A08280074FF000093ED5DAF80010504650
:1014200011F00C0F09D00068C0F3810002280BD125
:101430009D48001F0068400206D42868800715D523
:10144000E068012809D111E0E068B8B10120C8F8CE
:101450000000FFF7BFFD064605E020E1FFF7BAFDFB
:10146000801B0228C0D828688007F7D52868216922
:1014700020F0F80040EAC10028600DE0C8F80090B4
:10148000FFF7A8FD064604E0FFF7A4FD801B022835
:101490001FD828688007F7D42078000722D5824E0D
:1014A000844861696C3671B101210160FFF792FDDA
:1014B000074604E0FFF78EFDC01B022809D83068FC
:1014C0008007F7D50EE0C0F80090FFF783FD0746D0
:1014D00005E082E0FFF77EFDC01B02287DD8306862
:1014E0008007F7D42078400768D5DFF8BCB1002723
:1014F0000BF1380BDBF80000C0000BD4DBF8001058
:1015000041F08051CBF80010DBF80000012700F01B
:1015100080500090684E3068C00510D4306840F4A8
:1015200080703060FFF756FD009005E0FFF752FD38
:101530000099401A022850D83068C005F6D55A4E96
:10154000A068683601280FD00528306810D020F038
:1015500001003060306820F004003060A068B8B14D
:10156000FFF738FD00900FE0306840F00100F4E72D
:1015700040F004003060F7E7FFF72CFD0099411AB6
:1015800041F28830814266D830688007F4D50EE099
:10159000FFF720FD009007E0FFF71CFD0099411ABE
:1015A00041F28830814256D830688007F4D42FB198
:1015B000DBF8001021F08051CBF80010A069D0B307
:1015C000DAF800205146C2F38102022A4AD00228EA
:1015D000484607D0C8F8600000E03CE0FFF7FAFC9E
:1015E00004463BE04746C8F86000FFF7F3FC0646B8
:1015F00005E000BFFFF7EEFC801B02282BD828680F
:101600008001F7D4D4E907010843A16A2B4A4908AD
:1016100002EB0141626A41EA8211084394F82C10FE
:1016200040EA01612048001F016001203866FFF791
:10163000D1FC044605E034E0FFF7CCFC001B022897
:1016400009D828688001F7D52BE000BFFFF7C2FC5E
:10165000001B022802D90320BDE8F88F286880010A
:10166000F4D41EE00128F7D00868E26900F4800194
:10167000914214D1226A00F03F0191420FD147F606
:10168000C071626A0140914209D1A26A00F44031FE
:10169000914204D1E16A00F07060884201D00120DB
:1016A000DAE70020D8E7000008380240003802409E
:1016B00000004742800E4742007000400000FFFFDC
:1016C00010B5FEF747FF10BD2DE9FE430446032089
:1016D0000F4684F83400606C03285AD0B7F5805F59
:1016E00057D04FF4006600254FF08068B7421CD1F8
:1016F000009501950021206801F0DCF8800121D4DB
:101700006946204601F0C4FC98BB0198400332D5DD
:10171000B4F850000104206801F008F948BB022128
:10172000206822E0A06B284327E01FB1A06B40F0A7
:10173000006022E0009501950021206801F0BAF8D0
:10174000800101D53546EDE76946204601F0A0FC51
:1017500078B90198C0030ED5B4F850000104206890
:1017600001F0E4F828B90021206801F02CF90028E4
:10177000D8D00546D6E74546D4E7A063A06B01253F
:1017800058B121680C48886384F834500120BDE8C2
:10179000FE83A06B40F08050EFE7211DD4E90506E1
:1017A0000EC90097CDE90106206801F08DF884F894
:1017B00034500020EBE70000FF05400070470000B8
:1017C000F0B5426E920F0A70426EC2F383624A70A5
:1017D000426EC2F301628A70426E120CCA70B0F897
:1017E0006420120A0A7190F864204A71826E120D08
:1017F000CA80826EC2F303420A72B0F86820C2F354
:10180000C0324A72B0F86820C2F380328A72B0F8EF
:101810006820C2F34032CA72B0F86820C2F30032C6
:101820000A7300264E73426C4FF40075012462B1B6
:10183000012A3AD0026847499163816B41F0805197
:10184000816380F834400120F0BDB0F86820C36E99
:101850009205120D42EA93720A61C26EC2F3C2622D
:101860000A75C26EC2F302624A75C26EC2F3425278
:101870008A75C26EC2F38242CA75C26EC2F3C232A8
:101880000A760A69521C42650B7E03F007039B1C13
:101890009A4042650B7A03F00F0704FA07F3836559
:1018A0005B0A5A43C0E917250EE090F86820C36E22
:1018B0009206920A42EA13420A610A69521C920293
:1018C0004265C0E91652056630F86C2FC2F38032CB
:1018D00001F8192F0288C2F3C6124A70027802F08A
:1018E0007F028A704268D20FCA704268C2F34172A6
:1018F0000A714268C2F382624A714268C2F383523B
:101900008A714268C2F34052CA710E724268C2F3D1
:1019100000424A728288C2F3C0328A728288C2F35D
:101920008032CA728288C2F340320A738288C2F35C
:1019300000324A738288C2F381228A738288C2F39A
:101940000122CA730079C0F3460008744C74002069
:10195000F0BD0000FF054000426C0A60826C4A60E6
:10196000C26C8A60026DCA60426D0A61826D4A6112
:10197000C26D8A61006EC8610020704770B5044670
:10198000B0F8500000250104206801F026F918B1D4
:10199000A16B0143A16304E00021206800F08AFFED
:1019A0000546C5F3432070BDF8B5056B04460068D5
:1019B000416B09041BD5290719D5D4E90A56002E15
:1019C00014D00027206800F099FF05F8010B010AE8
:1019D00005F8011B010C05F8021B000E361F7F1CC9
:1019E00005F8010C082FEDD3C4E90A56F8BD416B88
:1019F0004FF00006C9054FF0010744D53902816355
:101A00002068C16B4CF23A329143C1632068C16ACD
:101A100021F00101C16228071DD515F0220F09D060
:101A2000206801F00BF928B1A16B0143A1632046A6
:101A3000FFF7C4FE216840F23A50886384F834709E
:101A40002663A80703D0204600F044FAF8BD2046DC
:101A500000F044FAF8BD2806FCD5A80609D5206890
:101A600001F0ECF828B1A16B0143A1632046FFF718
:101A7000A5FEA807EED12068C16A21F00801C16265
:101A800084F83470E3E7416B490424D5290722D553
:101A9000D4E90856002EDDD05FF0000715F8010BE1
:101AA000009015F8011B361F40EA0120009015F840
:101AB000021B40EA0140009015F8011C40EA016059
:101AC00000906946206800F02CFF7F1C082FE5D3AA
:101AD000C4E90856F8BD416B40F23A221142F9D0F0
:101AE000416B890703D5A16B41F00201A163416BF2
:101AF000090703D5A16B41F00801A163416B890679
:101B000003D5A16B41F02001A163416BC90603D548
:101B1000A16B41F01001A163416B890503D5A16B55
:101B200041F00801A16340F23A7181632068C16B02
:101B300040F23A329143C163206801F07FF8A16B13
:101B40000843A063280706D584F83470266320462E
:101B5000FFF734FEF8BD2806FCD515F0300F0CD089
:101B6000E16B11480865E06BFEF7C6FF0028F1D075
:101B7000E06BBDE8F84001F069BAA8070CD0216C11
:101B80000A480865206CFEF7B7FF0028E2D0206CF9
:101B9000BDE8F84001F031BAA66384F834702663DA
:101BA0002046FFF78DFDF8BD4D300008FB2F0008E3
:101BB00070B504000ED094F83400002518B92577CC
:101BC000204600F03BF8032084F83400204600F063
:101BD0000BF808B1012070BDA5632563012084F8CE
:101BE0003400002070BD0000FEB5002504467620BC
:101BF0000095CDE9015029460B460A46206800F0C1
:101C000063FE08B10120FEBD0B4E46F8A05F2068C0
:101C100000F06CFE01253560204601F01BFB20B969
:101C2000204601F09FFA0028EDD084F83450A16BD3
:101C30000143A163E6E70000008025422DE9F04F53
:101C400087B0054614216846FEF76CFB4E492868AC
:101C500088427DD14D4800684C4940F400600860DE
:101C6000086800F400600590484814380068474947
:101C700040F0010014390860086800F00100059088
:101C8000086840F0020008600868012700F00200C0
:101C900005904FF4507000900220CDE90107032613
:101CA0000C24CDE9036469463948FFF7BDF8F80311
:101CB0000090022001900020CDE90206DFF8D480D8
:101CC000694604944046FFF7AFF8302000900220A8
:101CD000CDE90107CDE9036469464046FFF7A4F862
:101CE0002E4C2D484FF00068C4E90008002004F194
:101CF0000C014FF480694FF4805AA06081E801061E
:101D0000B803A0612020E061002020624FF0040BA6
:101D1000C4E909B6FE05B7102046C4E90B67FEF713
:101D2000CFFF08B1FEF7DBFC2C64A5631A481C4CFE
:101D300048304FF48041C4E900084020A060C4E965
:101D400005A10020C4E903092021C4F824B000E063
:101D500016E0C4E9071004F12801032081E8C1005E
:101D60002046FEF7ADFF08B1FEF7B9FCEC63002298
:101D700005213120A563FFF7B9F93120FFF7A8F954
:101D800007B0BDE8F08F0000002C0140443802404D
:101D90000000024000040240586402401C0300207E
:101DA0007C0300202DE9F04786B01F460446154607
:101DB00039B194F83400012807D0022006B0BDE8FC
:101DC000F087A06B40F0006008E00020A063E36DA6
:101DD000EA199A4204D9A06B40F00070A0636FE04A
:101DE000032284F8342022688246D0622268D36BB2
:101DF00040F22A363343D363236C324A4FEA4729F1
:101E0000DA63236C304ADA64226C4FEA9903106576
:101E100020680A46266C00F180013046FEF7BAFFC2
:101E2000DFF8A880012660B12068C16B21F49571AC
:101E3000C1632168C1F83880A06B40F08040A06386
:101E400011E023480660606C012800D06D024FF459
:101E50000071206800F09EFD40B12268C2F8388011
:101E6000A16B0143A16384F8346029E04FF0FF3097
:101E7000CDE900099020029002200596CDE9030AE1
:101E8000D1466946206800F0FFFC012F06D9822068
:101E900020632946206800F011FE05E081202063C0
:101EA0002946206800F023FE002887D02268C2F867
:101EB0003880A16B0143A16384F83460C4F830908A
:101EC00001207BE7B92F0008552F0008FF054000CF
:101ED0008C85254210B5FEF779FB10BD10B5FEF7D5
:101EE0008DFB10BD2DE9FF4F87B0044608981F46B3
:101EF000164638B194F83400012807D002200BB000
:101F0000BDE8F08FA06B40F0006008E00025A563FD
:101F1000E16DF019884204D9A06B40F00070A06315
:101F200061E0032084F834002068C5622068C16B3A
:101F300040F21A2A41EA0A01C163E16B3248C863E0
:101F4000E16B3248C864E06B0565606C012800D025
:101F500076024FF40071206800F01CFDDFF8B090AD
:101F60004FF0010840B12268C2F83890A16B0143DC
:101F7000A16384F8348036E04FF0900B012F06D92E
:101F8000A02020633146206800F072FE05E0C4F80E
:101F900030B03146206800F084FE40B12268C2F8BB
:101FA0003890A16B0143A16384F834801AE019488A
:101FB0004646C0F8008022687F02BB08E06B803292
:101FC0000899FEF7E7FE80B12068C16B21EA0A019B
:101FD000C1632168C1F83890A06B40F08040A063D5
:101FE00084F834602563012089E74FF0FF30CDE9A4
:101FF0000007CDE902B5CDE904566946206800F036
:1020000043FC00207BE700003F300008552F00080C
:10201000FF0540008C8525427047704770B590F8E9
:102020003C20012A2CD0012480F83C40022280F878
:102030003D2003685A689D6822F070060A683243A2
:102040005A60104B02689A420ED0B2F1804F0BD00A
:102050000D4B9A4208D00D4B9A4205D00C4B9A4238
:1020600002D00C4B9A4204D1496825F080031943F1
:10207000916080F83D40002180F83C10084670BD1A
:10208000022070BD00000140000400400008004034
:10209000000C00400040014010B5040003D094F84B
:1020A0003D0010B107E0012010BD002084F83C0085
:1020B000204600F00DF8022084F83D00211D206824
:1020C00001F03AFB012084F83D00002010BD000023
:1020D00008B500680B49884212D10B48016841F0ED
:1020E000040101600068002200F004000090052156
:1020F0001E20FEF7FBFFBDE808401E20FEF7E8BFEC
:1021000008BD000000080040403802400168CA686D
:1021100042F00102CA600068816801F007010629E7
:1021200003D0016841F0010101600020704770B5E3
:10213000044690F83C00012817D0012584F83C5053
:10214000022084F83D002068826822F0770222F4A1
:102150007F4282600868502830D00DDC20284DD0A6
:1021600005DC98B310283BD148E0022070BD302830
:1021700044D0402834D139E0602828D0702806D0D7
:10218000B0F5805F2CD0B0F5005F29D10AE0CB68B4
:10219000D1E90121206801F01BFB2068816841F032
:1021A000770109E0CB68D1E90121206801F010FB3B
:1021B0002068816841F48041816011E0CA68496803
:1021C000206801F017FB5021206807E016E0CA687C
:1021D0004968206801F01FFB6021206801F002FBC4
:1021E00084F83D50002084F83C0070BDCA684968FE
:1021F000206801F0FFFA40212068EFE722680146DD
:102200001046EBE7704770B50446006801694FF06F
:102210000005C943890715D4C168C943890711D48A
:10222000E91E01610120207720688069800720462F
:1022300002D0FFF7E7FF04E000F098F8204600F036
:1022400096F8257720680169C943490717D4C16802
:10225000C943490713D46FF00401016102202077BC
:102260002068806910F4407F204602D0FFF7CAFF43
:1022700004E000F07BF8204600F079F8257720682C
:102280000169C943090716D4C168C943090712D4B3
:102290006FF008010161042020772068C069800781
:1022A000204602D0FFF7AEFF04E000F05FF82046C2
:1022B00000F05DF8257720680169C943C90617D485
:1022C000C168C943C90613D46FF010010161082029
:1022D00020772068C06910F4407F204602D0FFF7C5
:1022E00091FF04E000F042F8204600F040F8257726
:1022F00020680169C943C90708D1C168C943C90732
:1023000004D1891E0161204600F032F8206801697D
:10231000C943090609D4C168C943090605D46FF049
:10232000800101612046FFF777FE20680169C943FB
:10233000490609D4C168C943490605D46FF0400174
:102340000161204600F054F820680169C9438906FC
:102350000BD4C168C943890607D46FF0200101611D
:102360002046BDE87040FFF758BE70BD704770470B
:1023700070B5044600681B49884201D1FEF730FE63
:102380001949206888422CD118480189491C89B212
:1023900001814289521C94B244818289521C93B2B9
:1023A0000522B1FBF2F502FB151500218381012204
:1023B00025B985786D1C8570027001814FF47A759E
:1023C000B4FBF5F605FB16440CB90271418142F2EB
:1023D0001074B3FBF4F504FB1533002B01D14270EC
:1023E000818170BD000C004000080040000000200A
:1023F0007047704770B5026804461068D168536929
:1024000010F00F0F52D003F0010501F490762E4327
:102410005FD0C20705D0CA0503D5E26B42F00102C6
:10242000E263420705D5DA0703D0E26B42F002020D
:10243000E263820705D5DA0703D0E26B42F00402BB
:10244000E263020707D501F020022A4303D0E26BC2
:1024500042F00802E263E26B002A33D0800604D522
:10246000880602D5204601F0FEF920684069E16B3C
:10247000C0F38010090700D428B3204601F0E5F925
:102480002068416949061AD5416921F0400141613E
:10249000606BA0B11B490165606BFEF72DFB002846
:1024A00010D0606B016DBDE870400847830610D501
:1024B0008B060ED52046BDE8704001F0D4B9204609
:1024C000FFF797FF70BD2046FFF793FF0020E06302
:1024D00070BD030606D50B0604D52046BDE8704046
:1024E00001F0A0BA4006F3D54806F1D5D1682046E0
:1024F00021F04001D160202184F8391000F004F966
:1025000070BD00003B38000870B5040004D094F89A
:102510003900002510B106E0012070BD84F8385064
:10252000204600F023F8242084F839002068C16890
:1025300021F40051C160204601F0E0F920680169F2
:1025400021F4904101612068416921F02A01416133
:102550002068C16841F40051C160E563202084F81F
:10256000390084F83A00002070BD0000F0B587B053
:10257000044614216846FDF7D5FE3349DFF8C4C090
:102580002768314A143902230124032507262F48DE
:10259000674520D1176847F010071760126802F0EE
:1025A000100205920A6842F001020A60096801F00F
:1025B000010105914FF404418DE87A006946FEF768
:1025C00033FC002205212520FEF790FD2520FEF793
:1025D0007FFD07B0F0BDDFF878C0674515D11A4A16
:1025E000121F176847F400371760126802F40032B0
:1025F00005920A6842F001020A60096801F00101CF
:1026000005910C218DE87A0018E0124EB742E0D116
:10261000166846F020061660126802F02002059245
:102620000A6842F001020A60096801F0010105919F
:102630004FF4C0518DE83A00082104916946FEF735
:10264000F3FBC6E70010014044380240000002409E
:10265000004400400014014090F83A30202B22D171
:10266000F9B1F2B190F83830012B1CD0816282852B
:10267000C2850021C163222280F83A2080F83810F8
:102680000168CA6842F48072CA6001684A6942F00F
:1026900001024A610068C16841F02001C160002068
:1026A00070470120704702207047000000B50068A5
:1026B000044989B0884203D120216846FDF732FEE3
:1026C00009B000BD0010014090F83930202B18D11E
:1026D000A9B1A2B190F83830012B12D001628284E6
:1026E000C2840021C163212280F8392080F838108B
:1026F0000068C16841F08001C1600020704701207E
:10270000704702207047000000680349884202D1E8
:1027100002490120C87070470010014000000020ED
:10272000FEE700007FB50025204800950195029541
:102730001D49039501604FF4803141600124090275
:1027400004618160047680F820501949C0E90A15B7
:102750000526C661C56080F830404461FEF799F8EF
:10276000CDE90054694611480296FDF7DDFF0220CD
:10277000CDE9004069460D48FDF7D6FF042403204B
:10278000CDE9004069460948FDF7CEFFCDE9006478
:1027900069460648FDF7C8FF0720CDE900066946EF
:1027A0000248FDF7C1FF7FBD00200140E00000208E
:1027B0000100000F10B504490448FDF791FF0249DC
:1027C000491E087010BD0000250000207C6B000829
:1027D00070B586B014216846FDF7A4FD12480024A8
:1027E000016841F001010160016801F001010591FA
:1027F000016841F00201016000680C4E00F0020027
:102800004FF4E0450590224629463046FEF7DDFBB1
:1028100001200095CDE90104694630460394FEF796
:1028200003FB06B070BD00003038024000040240D7
:1028300010B586B0002412480094019402940394C9
:1028400004940E490594016042F20F71C0E901142D
:102850000921C0E903148461FFF71EFC4FF4805086
:10286000009069460648FFF762FC2020CDE9040489
:1028700004A90348FFF7D2FB06B010BD00080040D2
:10288000AC010020FEE770470A6842624A68826233
:10289000D1E902231A43D1E904310B43C16A1A4337
:1028A00021F0F7011143C16200207047006800F079
:1028B0000300704708444069704700000148FFF773
:1028C00073B800002801002070B50DF1100C114301
:1028D0009CE870002343194329434268314347F67B
:1028E000FF639A430A434260002070BD10B5032184
:1028F00001600220FEF786FA002010BDD0F88000AB
:1029000070470A688260D1E901231A43D1E9033193
:102910000B43C1681A436FF30B011143C1600020E0
:1029200070470968C0F880100020704710B586B065
:1029300004463720CDE9001040200290002003908B
:102940004FF48060049069462046FFF7DAFF41F2B9
:1029500088323721204600F0BDF906B010BD0000D6
:1029600010B504460A4886B001432920CDE900107D
:1029700040200290002003904FF48060049069464C
:102980002046FFF7BEFF204600F05CFA06B010BDFF
:102990000000108010B586B004461020CDE900106C
:1029A00040200290002003904FF48060049069461C
:1029B0002046FFF7A6FF41F288321021204600F0A2
:1029C00089F906B010BD10B586B004460620CDE9E1
:1029D000001040200290002003904FF4806004908B
:1029E00069462046FFF78DFF41F2883206212046D6
:1029F00000F070F906B010BD30B585B00024054672
:102A0000009401944FF480600294CDE9034069463C
:102A10002846FFF776FF0B484FF4FA510068B0FBE9
:102A2000F1F041F288314843401E03D24FF000409C
:102A300005B030BD696B0906F6D5C520A8632046F0
:102A4000F6E700002C00002070B585B004464FF476
:102A5000D570009001A908204025002681E861007A
:102A6000C001049069462046FFF74BFF12484FF41F
:102A7000FA510068B0FBF1F041F288314843401E42
:102A800003D24FF0004005B070BD616B11F0450FEF
:102A9000F5D00905F3D4606B400701D5042003E0AD
:102AA000606BC00702D00120A063ECE7606B4006BA
:102AB00000D5A5633046E6E72C00002010B586B0AF
:102AC00004461220CDE9001040200290002003901F
:102AD0004FF48060049069462046FFF712FF41F2F0
:102AE00088321221204600F0F5F806B010BD10B56E
:102AF00086B004461120CDE900104020029000204D
:102B000003904FF48060049069462046FFF7F9FE79
:102B100041F288321121204600F0DCF806B010BDE9
:102B200010B586B004460720CDE900204020029071
:102B3000002003904FF48060049069462046FFF720
:102B4000E0FE41F288320721204600F0C3F806B0CB
:102B500010BD10B586B0044600210220CDE900105A
:102B6000C020CDE902014FF4806004906946204600
:102B7000FFF7C7FE204600F03DF906B010BD10B5C6
:102B800086B004460920CDE90010C0200290002044
:102B900003904FF48060049069462046FFF7B1FE31
:102BA000204600F027F906B010BD10B586B00446E7
:102BB00000213320CDE900104020CDE902010001C1
:102BC000049069462046FFF79CFE41F2883233218B
:102BD000204600F07FF806B010BD10B586B0044660
:102BE0000D20CDE9001040200290002003904FF40A
:102BF0008060049069462046FFF783FE41F28832E8
:102C00000D21204600F066F806B010BD30B585B045
:102C10000C46054600210320CDE900104020CDE9F7
:102C200002010001049069462846FFF76AFE224629
:102C30000321284600F028F905B030BD10B586B054
:102C4000044600210C20CDE900104020CDE902010E
:102C50000001049069462046FFF753FE034A0C2109
:102C6000204600F037F806B010BD000000E1F50581
:102C700010B586B004461920CDE90010402002901E
:102C8000002003904FF48060049069462046FFF7CF
:102C900038FE41F288321921204600F01BF806B0B8
:102CA00010BD10B586B004461820CDE900104020B4
:102CB0000290002003904FF4806004906946204603
:102CC000FFF71FFE41F288321821204600F002F87B
:102CD00006B010BD454B10B51B684FF4FA54B3FB5A
:102CE000F4F353435B1E02D24FF0004010BD426B21
:102CF00012F0450FF6D01205F4D4426B520703D5FB
:102D000004218163084610BD426BD20702D0012125
:102D1000816305E0C52282630269D2B28A4201D092
:102D2000012010BD0021FFF7C5FD3149084201D146
:102D3000002010BD002802DA4FF0007010BD4100E5
:102D400001D5402010BD810001D5802010BDC100FB
:102D500002D54FF4807010BD010102D54FF4007010
:102D600010BD410102D54FF4806010BDC10102D5F4
:102D70004FF4006010BD010202D54FF4805010BD29
:102D8000410202D54FF4005010BD810202D54FF42C
:102D9000804010BDC10202D54FF4004010BD410378
:102DA00002D54FF4003010BD810302D54FF48020CE
:102DB00010BDC10302D54FF4002010BD010402D59F
:102DC0004FF4801010BD410402D54FF4001010BD27
:102DD000810402D54FF4800010BD000702D54FF4E6
:102DE000000010BD4FF4803010BD00002C0000200A
:102DF00008E0FFFD12494FF4FA520968B1FBF2F105
:102E000041F288325143491E02D24FF000407047D0
:102E1000426B12F0450FF6D01205F4D4416B49070E
:102E200003D50421816308467047416BC90703D06D
:102E30000121816308467047C521816300207047E6
:102E40002C0000200F494FF4FA520968B1FBF2F14F
:102E500041F288325143491E02D24FF00040704780
:102E6000426B12F0450FF6D01205F4D4416B4907BE
:102E700003D50421816308467047C5218163002082
:102E8000704700002C00002030B5204B4FF4FA545E
:102E90001B68B3FBF4F341F2883463435B1E02D238
:102EA0004FF0004030BD446B14F0450FF6D02405C0
:102EB000F4D4436B5B0703D504218163084630BD1E
:102EC000436BDB0702D00121816303E00369DBB2BE
:102ED0008B4201D0012030BDC52181630021FFF765
:102EE000E9FC10F4604F04D0410406D54FF40050C3
:102EF00030BD000C1080002030BD000402D54FF41E
:102F0000805030BD4FF4803030BD00002C000020D8
:102F100010B5064C01202070FDF724FB18B920786D
:102F200020F001002070207810BD00001C0000205F
:102F300070B5054601F0C3FF044603E0FDF712FB40
:102F4000002806D001F0BBFF001BA842F6D34FF0CB
:102F5000FF3070BD10B5846BFDF7E0FD022828D06E
:102F6000206C416DE06B406D012901D001281DD11D
:102F70002168104888632068C16B21F49D71C1638A
:102F8000A06B40F08040A0632046FEF7F7FC0628C7
:102F900001D0052805D12068FFF750FEA16B08433A
:102FA000A063012084F83400002020632046FEF74F
:102FB00005FC10BDFF05400010B5846B206B822816
:102FC00009D12068FFF73AFE28B1A16B0143A16344
:102FD0002046FEF7F3FB2068C16A21F00801C162B8
:102FE000216840F23A508863012084F834000020C0
:102FF00020632046FEF76EFF10BD10B5846B40F2D3
:103000003A50216888632046FEF7B8FC012184F815
:10301000341000212163062801D0052805D120683D
:10302000FFF70CFEA16B0843A063A06B00282046AD
:1030300002D0FEF7C3FB10BDFEF742FB10BD806B54
:103040000068C16B41F48071C163704710B5846B37
:1030500040F23A50216888632046FEF78FFC012138
:1030600084F8341000212163062801D0052805D1F9
:103070002068FFF7E3FDA16B0843A063A06B002865
:10308000204602D0FEF79AFB10BDFEF719FB10BDDB
:103090002DE9F04F89B00D460446FDF79BFF002651
:1030A000834600960196374608212068FFF772FC98
:1030B000002834D1B4F8500001042068FFF736FC32
:1030C00000282CD1401E4FF00808CDE9020830201E
:1030D0004FF00209CDE904090120CDE9067002A9EB
:1030E0002068FFF7D1FB2068FFF75FFD002816D1AD
:1030F000EA4640F22A472068416B394212D1416BBF
:10310000890204D5FFF7FAFB4AF82600761CFDF782
:1031100061FFA0EB0B00401CEDD14FF0004009B067
:10312000BDE8F08F416B090703D5C0F8388008204F
:10313000F5E7416B890703D5C0F838900220EEE728
:10314000416B890603D5202181630846E7E740F2F9
:103150003A518163019800BA2860009800BA68600B
:103160000020DCE710B590B004460120ADF838002F
:103170002068FFF79BFB002854D0606C032842D0E6
:103180002068FFF7E6FC00284AD100212068FFF7FD
:1031900091FB606704212068FFF78CFBA067082182
:1031A0002068FFF787FBE0670C212068FFF782FBB0
:1031B000C4F88000606C032825D00EA92068FFF7B2
:1031C00025FD00282CD1606C03281CD0BDF83800E8
:1031D000206501042068FFF7D2FC002820D10021DF
:1031E0002068FFF767FB606604212068FFF762FB39
:1031F000A06608212068FFF75DFBE0660C212068CF
:10320000FFF758FB206704212068FFF753FB000DF0
:10321000E06403A92046FEF7D3FA30B14FF08050A6
:1032200010B010BD4FF08060FAE7B4F850000023F2
:1032300002042068FFF774FC0028F1D104F11000AB
:1032400007C88DE8070094E80F00FFF73DFB00205A
:10325000E6E700002DE9F84F0026044600963546C3
:10326000B0460068FFF7C8FB002827D12068FFF7A9
:10327000EBFB4FF0805B4FF001094FF6FF7748B151
:10328000A6642068FFF7B8FB002817D1A06C0128BE
:1032900002D020E0C4F8489000212068FFF746FBE8
:1032A00058B918E000212068FFF740FB002805D13D
:1032B00051462068FFF754FB10B15846BDE8F88F1F
:1032C00000212068FFF7F6FA05464FEAD07800980B
:1032D000401C009002E0DFF82CA00098B84202D217
:1032E000B8F1000FDED00098B84202D34FF08070E2
:1032F000E4E7680002D5C4F8449000E0666400206A
:10330000DCE70000000010C17FB50F4C054601202E
:10331000207001F0C6FDA0B1FDF730F918B92846BC
:10332000FFF7F6FD2070207801280AD0606840B9C8
:10333000064B0FCB8DE80F000021684601F0CBFD56
:103340006060207804B070BD1C000020906B000805
:1033500010B5124888B014460078C00702D0032088
:1033600008B010BDC1B1012905D0022908D0032938
:103370000CD00420F4E76846FDF7EEF806980AE062
:103380006846FDF7E9F80798208005E06846FDF7F4
:10339000E3F80798400A20600020E1E71C000020C5
:1033A0002DE9FE4F47F23059984617468A460125C7
:1033B0004846FFF7BDFD00283BDB1F4E5FEA8A70E1
:1033C00003D0CB460024B1462DE042463946504654
:1033D000FDF7EEF868BB4A466846716801F08EFD5D
:1033E000DDE90001102824D1012921D021E039464E
:1033F0007F1C01221148FDF7DBF8060015D15A4663
:103400006846D9F8041001F079FDDDE900101029B3
:1034100008D1012806D1420208495046FCF769FF4D
:103420000AF5007A641C4445E1D3444501D106B94C
:1034300000252846BDE8FE8F1C000020DC0300208C
:10344000FFF766BD2DE9FE4F47F230569846174606
:103450008A4601253046FFF76BFD002848DBDFF880
:1034600098905FEA8A7002D00024B3463AE0424660
:1034700039465046FDF7B4F8D0BB32466846D9F815
:10348000041001F03BFDDDE90010102930D10228C5
:103490002ED101F014FD841903E000BFFDF762F89E
:1034A00028B301F00CFDA042F8D321E039467F1C7F
:1034B00001221248FDF794F8060015D15A466846D5
:1034C000D9F8041001F01AFDDDE90001102808D137
:1034D000022906D1420109495046FCF70AFF0AF5C4
:1034E000007A641C4445E1D3444501D106B9002566
:1034F0002846BDE8FE8F00001C000020DC030020F1
:10350000FFF758F901224749474800F0D3FD0A2246
:1035100046A1494800F00CFEDFF820814FF48044BA
:10352000002821464546404663D0FDF747FD4FF44D
:10353000FA66304601F0AEFC21462846FDF73EFD16
:10354000304601F0A7FC21462846FDF737FD3046FE
:1035500001F0A0FC21462846FDF730FD384C394DDE
:103560004FF0FF09002728780028FCD02F7084F83E
:103570000090354B4E4684F80190002041060A0E1B
:1035800033F8101022444FEA112C82F802C0401C7C
:10359000D1700528F2DB2C4828210A30FCF7C2FE46
:1035A00029480A3800F5007151F80A2F42614A682B
:1035B00082610989818300F11401224803221430B9
:1035C000FDF75EFAE880010A21736073A673FE209E
:1035D000E073687890B100261CA1A25D164800F047
:1035E000B9FE761C102EF7DB1AA1134800F0B2FECC
:1035F00007E0FDF7E3FC4FF4FA769AE70E4800F097
:1036000041FD0F491022A1F1C000FFF75DF82879B4
:103610000028A8D02F714FF400514046FDF7CEFC92
:10362000A1E7000025000020DC050020746573740C
:103630002E7478740000000014160020000402406C
:10364000AC02002000000020AE00002025303278BF
:10365000000000000A00000010B5502080F311881F
:10366000BFF34F8FBFF36F8F03F0E4F818B1044935
:103670004FF080500860002080F3118810BD0000DA
:1036800004ED00E030B593B030216846FCF74AFE07
:1036900014210CA8FCF746FE18480025016841F0EB
:1036A00080510160006800F080501190144801685A
:1036B00041F4404101600068022400F44040119050
:1036C0000120039010200490009406940820CDE976
:1036D00007506420CDE9090405200B906846FDF7EA
:1036E00041FE0CA90F2081E83100E002CDE90F0571
:1036F00003210CA8FDF72CFD13B030BD403802406B
:10370000007000400548016841F470010160034900
:103710004FF00060803908607047000088ED00E0DD
:103720000148FEF770BD0000AC0100200148FEF723
:103730006ABD000098280020F0B502681D4B1E4CA1
:103740009F031E4D1E4E984207D0B84205D0A0429E
:1037500003D0A84201D0B04204D122F0700C4A68D4
:1037600042EA0C02984210D0B8420ED0A0420CD0CF
:10377000A8420AD0B04208D0124CA04205D0124C48
:10378000A04202D0114CA04203D122F44074CA6876
:1037900022434C6922F08002224302608A68C2629E
:1037A0000A688262984201D109690163012141617D
:1037B000F0BD00000000014000040040000800408F
:1037C000000C00400040014000440140004801401E
:1037D00010B5846842EA032224F47F440A4322435A
:1037E000826010BD826822F070020A4342F0070135
:1037F0008160704710B5036A046A24F00104046212
:10380000846924F0F00444EA021423F00A020A4313
:103810008461026210BD10B5036A23F010030362D5
:103820008369046A23F4704343EA023224F0A0035C
:1038300043EA01118261016210BD10B5806B002165
:10384000C185C184FEF7D5FD10BD0168CA6822F4A8
:103850009072CA6001684A6922F001024A6120211F
:1038600080F83A10704710B590F83A10222901D02C
:10387000022010BD8168B1F5805F11D00169002977
:1038800001681FD0496801F07F03816A4A1C826287
:103890000B70C18D491E0904090CC18518D02BE09D
:1038A0000269816A002A0268526805D0D2B20A8091
:1038B000816A491C8162ECE7C2F308020A80816ACE
:1038C000891CF7E74A68816A4B1C83620A70E0E74B
:1038D0000168CA6822F02002CA600168CA6822F43E
:1038E0008072CA6001684A6922F001024A6120219F
:1038F00080F83A10FEF7DAFE002010BD2DE9F04105
:10390000044600680169E26821F4405111430161F5
:103910002169A068E269084361691143084321688D
:10392000CA6849F20C639A430243CA60206841693D
:10393000A26921F4407111434161E06919276425AE
:103940003226B0F5004F354A354920684FF000085F
:1039500006D0884201D0904236D1FDF7C3FC35E055
:10396000884201D0904202D1FDF7BCFC01E0FDF796
:10397000A9FC61684A18A0FB070148EB0803FCF7A3
:1039800087FC0146B0FBF5F00201B1FBF5F06FF0EA
:103990001803584301EB800006EBC000B0FBF5F0C4
:1039A00000F0F80002EB4002B1FBF5F0584301EBE8
:1039B000800006EBC000B0FBF5F000F007002168C6
:1039C00010448860BDE8F081FDF77CFC61688B0FD6
:1039D0008A00A0FB0701FCF75BFC0146B0FBF5F099
:1039E0006FF01802504301EB800006EB0010B0FBB3
:1039F000F5F000F0F002B1FBF5F002EB0012B1FBC4
:103A0000F5F06FF01803584301EB800006EB00104F
:103A1000B0FBF5F000F00F00D1E70000001401400A
:103A20000010014090F83910212901D00220704780
:103A30008168B1F5805F016A0BD04A1C026202689E
:103A400009785160C18C491E0904090CC1840ED04B
:103A500017E009880268C1F3080151600169002973
:103A6000016A02D0491C0162ECE7891CFBE701688E
:103A7000CA6822F08002CA600068C16841F0400153
:103A8000C1600020704700000148FEF7B3BC000091
:103A9000EC010020FEE70907090E002804DB00F115
:103AA000E02080F80014704700F00F0000F1E020E3
:103AB00080F8141D704702E008C8121F08C1002AD0
:103AC000FAD170477047002001E001C1121F002A9F
:103AD000FBD1704710B504460020E070401E6063C3
:103AE000204601F0BEF908B1042010BD04F23620D2
:103AF00001F0F4F8A0F52A41553901D0032010BD9A
:103B000094F83800E92805D0EB2814D194F83A004D
:103B1000902810D104F16E0001F0D5F80749B1EBFF
:103B2000002F06D004F18A0001F0CDF80449884244
:103B300001D1002010BD022010BD000000464154FC
:103B400046415433F0B50022144D134605EB0214E0
:103B500026685EB10768BE4209D166688768BE42C2
:103B600005D1A4684669B44204D000E00123521C88
:103B7000022AEBD3022A01D069B904E04BB9022929
:103B800007D01220F0BD05EB02108089B0F5807FD0
:103B900001D00020F0BD1020F0BD0000D82800208A
:103BA00030B50021054B0C4603EB01121568854228
:103BB00000D11460491C0229F6D330BDD82800205A
:103BC0000268C06A938952895343B1FBF3F1001D27
:103BD00004C81AB1914203D3891AF8E7002070474C
:103BE000006808447047C269891E921E8A4201D843
:103BF00000207047026B408901FB002070472DE9CF
:103C0000F04105680F00804606D000F06EFF0228E4
:103C100009D20120BDE8F0816E6916B1E869B042B1
:103C200007D8012605E0411CF4D0E9698142F1D8AA
:103C30003E463446E869641CA04202D80224022EA3
:103C40000AD32146404600F050FF38B10128E1D0A8
:103C5000411CDFD0B442EDD10020DBE74FF0FF364E
:103C600032462146284601F0AAFC30B957B1224617
:103C70003946284601F0A3FC20B101280FD00124C9
:103C80002046C7E76C61D5E90601891E884201D844
:103C9000401EA861287940F001002871F0E7344601
:103CA000EEE700002DE9F0410E4624300D68044691
:103CB0000B22202101F0CEF80020014608272A5CC3
:103CC000401C202A12D92F2A0BD05C2A09D02E2A78
:103CD00001D0B94214D30B2F22D02E2A20D10CE0D0
:103CE000401C2B5C2F2BFBD05C2BF9D02844306080
:103CF000B1B12078E5281FD020E008210B27DEE7AE
:103D0000802A03D3114B1A4412F8802C10A300E030
:103D10005B1C93F800C0BCF1000F04D09445F7D1B0
:103D20000620BDE8F081A2F16103192B01D8203AE9
:103D3000D2B26254491CC2E705202070202A01D863
:103D4000042000E00020E0720020EAE7C06B0008D9
:103D5000222A2B2C3A3B3C3D3E3F5B5D7C7F0000A2
:103D6000401E022812D20A4901EB00118889B0F5E1
:103D7000807F05D008B1401E80B2888110B103E079
:103D80000020FAE7002008600020704702207047FA
:103D9000D82800202DE9F04104460021056800F0F4
:103DA000DFF8002826D12846E16901F05AF8020020
:103DB0001FD1206A017899B1C17A01F03F01A17148
:103DC000C17A09070FD404F124010B2610F8013B36
:103DD00011F8017BDB1B761E04D0002BF6D002E02D
:103DE000042206E02BB10021204600F005F8020075
:103DF000D9D01046BDE8F0812DE9F0470546476966
:103E00000468C0698946203710B1B7F5001F02D396
:103E10000420BDE8F087A189B7FBF1F201FB127124
:103E200000295FD1401CE861A9694FF0000819B36F
:103E3000A0896289B7FBF0F0521E104252D1284689
:103E400000F053FE064601281FD9701C36D0E069E9
:103E5000B04241D8B9F1000F12D02846A969FFF746
:103E6000CEFE06000FD0012E0FD0701C26D02046AB
:103E700001F09CFD10BB0AE02089B0EB571F31D840
:103E8000C5F81C80C4E70720C3E70220C1E7A28968
:103E9000002104F1380000F0DDFF4FF0000831464A
:103EA0002046FFF7A0FE4FF0010960630DE000BF60
:103EB00084F80390204601F079FD08B10120A8E7BD
:103EC000606B08F10108401C606361894145EFD8CF
:103ED000616BA1EB0800606331462046AE61FFF7DD
:103EE00082FEE8616F61A089B7FBF0F100FB117001
:103EF00020443830286200208BE770B5044600214A
:103F0000066800F02DF80DE03046E16900F0A9FFE9
:103F100050B9206A0078E52809D040B10121204637
:103F2000FFF76AFF0028EFD0042807D007E03046EB
:103F3000E16900F096FF050003D00FE00720054679
:103F40000CE020220021206A00F084FF0B2204F103
:103F50002401206A00F074FF0120F070284670BD33
:103F60002DE9F04104680F460646B1F5001F3CD22A
:103F7000F8063AD17761B56825B92078032806D3C9
:103F8000E56A25B16089A18900FB01F812E020896A
:103F9000B0EB571F29D9E06A12E0304600F0A5FDCA
:103FA0000546401C1FD0022D1FD3E069A8421CD932
:103FB000A7EB080747452946EFD22046FFF713FE37
:103FC000C6E9065088B1A189B7FBF1F10844F06158
:103FD000A089B7FBF0F100FB11702044383030624B
:103FE0000020BDE8F0810120FBE70220F9E7000096
:103FF000084910B50B5C002253B901220A540A1873
:1040000001EB8000127A406801681046884702463A
:10401000104610BDF828002030B4054C231804EBDE
:1040200080001B7A406804691846A44630BC60478B
:10403000F828002030B4054D2C1805EB8000247AB8
:10404000406885682046AC4630BC6047F8280020B0
:10405000044A111802EB8000097A40684268084659
:1040600010470000F828002030B4054D2C1805EB4F
:104070008000247A4068C5682046AC4630BC604762
:10408000F828002038B5054600F04AFA04000FD1A0
:104090006946284601F0E4FE040009D12869FFF7CB
:1040A0005FFE040000D128600021009801F0A7FC09
:1040B000204638BD2DE9F74181B090460298009026
:1040C000684600F088FD040003D50B2004B0BDE86D
:1040D000F081164E002756F824503DB12846FFF7D0
:1040E0005FFD286900F069FB88B12F70019929B143
:1040F00001F8107BE0B200F052FB40B1019846F8A5
:10410000240010B1B8F1010F03D00020DEE7022037
:10411000DCE7002201A902A800F060FB044601468A
:10412000019801F06CFC2046D0E700004000002020
:104130002DE9F74394B005000BD002F03F0632465C
:10414000694615A800F04AFB04004FF0000804D0AF
:10415000F3E0092017B0BDE8F0830098049004A8AC
:10416000159900F085FC04000ED19DF83F00000673
:1041700001D5062408E0700801D0012100E00021EB
:1041800004A8FFF7DFFC044616F01C0F5DD04FF0CB
:104190000109C4B1042C10D100206D4902E0401C7B
:1041A000022804D201EB00121268002AF7D102287B
:1041B00007D004A8FFF7A1FE044646F008065CB14C
:1041C000BBE01224B9E09DF8160010F0110F47D1A2
:1041D000700701D50824B0E0300747D500F0F9FC9E
:1041E00007460C9839460E3001F090FB0C98394682
:1041F000163001F08BFB0C982021C1720C990098AD
:1042000000F04EFD074600220C99009801F06AFB71
:104210000C9800211C3001F079FB009981F8039083
:1042200017B3D1F834900022394604A801F020FBDE
:10423000040009D14946009800F013FE04000098DC
:10424000A7F1010747610DD077E0ECBB9DF81600A0
:10425000C10601D5042470E0B10703D5C00701D021
:1042600007246AE0300701D546F040060098406B0D
:1042700068620C98A862700801D0012100E000215A
:1042800004A800F0CDFC2861C0B30C99009800F0A0
:1042900007FDA8600C981C3000F015FDC5F82C80B7
:1042A000E86000992960009905F130004FF48052D0
:1042B000C988A9802E7585F81580C5F82080002151
:1042C0008146C5F8188000E037E000F0C3FDB00675
:1042D00035D5EE689EB3AE610098A968478980899C
:1042E00047430FE0284600F000FC0146012800D8B3
:1042F0000224481C03D0F61B24B105E025E001246C
:10430000F61B01E0BE42EDD8E961B4B9009882899C
:10431000B6FBF2F302FB13628AB1FFF764FCA0B1B3
:10432000009901238A89B6FBF2F202442A62487896
:104330004946FFF77FFE10B10124C5F800802146F1
:10434000009801F05CFB204604E70224F5E700003A
:10435000D82800200FB42DE9F0479CB00DF1980942
:104360000090002001900DF14C080290259810F863
:10437000011B2590002976D0252903D0684601F03D
:10438000B0F9F3E7002510F8011B2E4625903029DF
:1043900002D02D2902D010E0012500E0022510F8FE
:1043A000011B259009E000BF06EB860001EB4006EB
:1043B0002598303E10F8011B2590A1F13000092806
:1043C000F2D96C2901D04C2905D1259845F0040576
:1043D00010F8011B2590002945D0A1F161000A4683
:1043E000192801D8203AD2B24F2A42D006DC422AFC
:1043F0003DD0432A38D0442AC0D13CE0532A0DD0C6
:10440000552A38D0582AB9D11023680701D4442A34
:1044100033D059F8040B442A31D035E059F8047BE5
:10442000002400E0641C385D0028FBD1A80704D5F7
:104430000CE02021684601F054F92046641CB0428B
:10444000F7D303E068467F1C01F04BF93978002967
:10445000F8D103E02021684601F043F92046641CAE
:10446000B04283D2F6E753E019F8041B86E7022333
:10447000CBE70823C9E70A23C7E759F8040B00284C
:1044800002DA404245F0080500244746B0FBF3F24B
:1044900003FB1202B0FBF3F0D2B2092A05D9782946
:1044A00014D04FF0070C6244D2B230323A55641C3B
:1044B00008B1202CEAD3280703D52D2008F80400E2
:1044C000641C2746E80704D0302003E04FF0270C97
:1044D000E9E72020824603E05146684601F001F9F1
:1044E000A80703D438467F1CB042F5D34546641E66
:1044F0006846295D01F0F5F8002CF8D103E051463B
:10450000684601F0EEF838467F1CB042A9D2F6E7C3
:10451000684601F009F91CB0BDE8F0075DF814FB2E
:10452000F8B50446694601F09BFC050043D1207DA7
:10453000410640D5000612D50098226A0123407832
:1045400004F13001FFF790FD28B10121009801F03E
:1045500056FA0120F8BD207D00F07F00207500F0A4
:1045600038FB0646616A009800F07BFC050022D10A
:10457000A56A2946E87A40F02000E872A26820681F
:1045800001F0B0F905F11C00E16801F0BFF9314616
:1045900005F1160001F0BAF9002105F1120001F051
:1045A000BDF900980121C17001F0BCF90546207DDC
:1045B00000F0BF0020752946009801F020FA284637
:1045C000F8BD2DE9F04F884689B000211960994661
:1045D00015460446694601F043FC060001D1667D9C
:1045E0003EB13146009801F00AFA304609B0BDE804
:1045F000F08F207D800705D40721009801F0FFF996
:104600000720F3E7A069012742194FF0020A04F1DD
:10461000300B824200D2C543B4E0009AA169908970
:10462000B1FBF0F300FB1313002B68D1B1FBF0F6E4
:104630005089401E064018D129B1E06A38B12046A1
:10464000FFF7BEFA07E0A06838B9002100E0E16991
:104650002046FFF7D4FA00287DD001282FD0411C36
:104660005DD0E061A16801B9A060207D00060BD596
:104670000098226A012340785946FFF7F5FCE0BB19
:10468000207D00F07F002075E1690098FFF7ABFA0C
:10469000A8B13044019000988189B5FBF1F10391F4
:1046A00061B3721841898A4201D9891B039140780C
:1046B0004146039B019AFFF7D7FCF0B907E084F865
:1046C00015A00221009801F09AF902208EE7216AD4
:1046D0000198081A039988420AD200998A8900FB36
:1046E0000281584600F0ACFB207D00F07F00207571
:1046F000009886890398464335E010E000E017E013
:10470000226A01998A4211D0E268A16991420DD2D0
:10471000407801235946019AFFF78CFC30B1677548
:104720000121009801F06BF901205FE701982062F8
:104730000098A1698089B1FBF0F200FB1212861A81
:10474000AE4200D92E46B1FBF0F200FB121020441D
:104750003246414600E018E0303000F071FB207D29
:1047600040F080002075A069B0443044A061E16849
:10477000884200D80846E060D9F800008119AD1BD6
:10478000C9F80010002D7FF448AF207D002140F0D3
:1047900040002075009801F032F9002026E71CB592
:1047A00000200C46009001900121684600F01EFC9C
:1047B0002060002800D001201CBD10B500F035FCA1
:1047C000012010BD00F03EBC10B500244FF47A71FA
:1047D00000F060FC00B90124204610BD2DE9FF4126
:1047E000002790460E460F6000F0F5F9050003D54E
:1047F0000B2004B0BDE8F0819A4850F82540BCB1C8
:10480000204600F070FAA8B13460207808F0FE0667
:1048100020B16078FFF71CFCC1070DD02770E8B20B
:10482000B8466070FFF7E4FBC1070AD00320E0E759
:104830000C20DEE70F20DCE70EB1400704D4002097
:10484000D7E71EB1400701D50A20D2E7607804F10E
:104850000C020221FFF7E0FBF0BBA089A0F500717C
:10486000B1F5606F3FD8411E08423CD10026314669
:104870002046FFF72FF9022822D100254FEA0D0725
:1048800004EB051090F8FA1100F5FB7019B108302F
:1048900000F019FA00E0002047F825006D1C042DF7
:1048A000EED3002557F8256036B131462046FFF794
:1048B00011F9022801D203E003206D1C042DF1D36D
:1048C000042810D0022878D204F1430000F006FA40
:1048D000A189884271D100E005E004F14E0000F0AA
:1048E000FDF910B105E0012083E704F15C0000F060
:1048F000EAF9206294F84850A570012D01D0022DEC
:104900005BD1454394F845006081E8B3411E0842FD
:1049100053D104F1490000F0E1F92081A18949094E
:10492000B0FBF1F201FB120070BB04F14B0000F090
:10493000D5F9070004D104F1580000F0C4F9074686
:1049400004F1460000F0CAF9010036D0A08923899D
:104950004009B3FBF0F04A19024497422DD3B81A2C
:104960006789B0FBF7F078B103274FF6F57C604517
:1049700000D8022740F6F57C604500D80127324474
:10498000801C3144226300E017E0E061C4E9096162
:10499000032F14D08BB12944E162022F20D000F004
:1049A000010100EB400001EB5000A189401E0844CA
:1049B000B0FBF1F0216A884214D90D2019E704F107
:1049C000620000F08BF90028F7D120890028F4D18B
:1049D00004F1640000F077F9E062E0698000E4E748
:1049E0004000E2E74FF0FF30A0616061802020715D
:1049F000032F2CD104F1680000F070F9012826D1B2
:104A0000711C204600F02DFA08BB84F8048004F2E3
:104A1000362000F063F9A0F52A41553917D104F189
:104A2000380000F050F91049884210D104F50770A1
:104A300000F049F90D49884209D104F5087000F0E9
:104A400042F9A06104F5097000F03DF96061054983
:104A50002770091F0888401C0880E0802046FFF767
:104A60009FF8ECE6400000205252614172724161B1
:104A700073B504460568019801E0401C0190017877
:104A80002F29FAD05C29F8D00021A1600198007884
:104A9000202806D2802084F82F002046FFF760FAF5
:104AA0007CBD01A92046FFF7FDF80028F8D120467B
:104AB000FFF770F994F82F1028B10428F0D14907B6
:104AC000EED405207CBD4907FCD4A079C006F8D5FA
:104AD000A9896069B0FBF1F201FB12004119284677
:104AE000383100F0DDF8A060DBE72DE9F041046823
:104AF0000D4602290BD3E069A84208D920784FF06F
:104B0000FF36012807D0022834D0032849D00126D7
:104B10003046BDE8F081A08905EB5507B7FBF0F002
:104B2000A16A0144204600F09CF90028F0D1A08938
:104B3000B7FBF0F100FB11717F1CB7FBF0F02144D3
:104B400091F83880A16A0144204600F08AF90028D3
:104B5000DED1A089B7FBF0F100FB1170204490F882
:104B6000381048EA0120E90701D00609D0E7C0F370
:104B70000B06CDE7A089A16A4008B5FBF0F001441F
:104B8000204600F06EF90028C2D1A1896800B0FB70
:104B9000F1F201FB12002044383000F09FF8064685
:104BA000B6E7A089A16A8008B5FBF0F00144204671
:104BB00000F057F90028ABD1A189A800B0FBF1F2B1
:104BC00001FB12002044383000F07DF820F07046E0
:104BD0009EE70020704710B504464FF0FF30226872
:104BE000002A13D0114600E0491C0B78212B0ED36C
:104BF0003A2BF9D112F8013B303B0A2B06D28A42FC
:104C000004D1002B02D1491C1846216010BD0020A0
:104C100010BDEFF30580002800D001207047000090
:104C2000F0B502461D4BD2F80050002003EB0014F3
:104C30002668AE4207D166689768BE4203D1A46871
:104C40005669B44202D0401C0228EFD3022814D186
:104C5000002002E0401C022804D203EB0014246868
:104C6000002CF7D102280ED003EB001425609568C4
:104C700065605269A2600022A281002903EB001145
:104C8000898902D019B10020F0BD491C01E04FF420
:104C9000807103EB0012401C9181F0BDD8280020E8
:104CA00070B506460D4601F11A0000F017F80446EB
:104CB0003078032805D105F1140000F00FF844EA1C
:104CC0000044204670BDC178827842EA01214278D2
:104CD000007842EA012140EA0120704741780078DB
:104CE00040EA0120704710B528B10069FFF76CFD5C
:104CF00008B1012010BD002010BD000088B0FCF7F5
:104D000077F9FEF7BFFCFDF763FD4048002401681A
:104D100041F4800101600068224600F480000790A1
:104D200005213820FCF7E2F93820FCF7D1F9002200
:104D300005213B20FCF7DAF93B20FCF7C9F90022FA
:104D400005214520FCF7D2F94520FCF7C1F9FDF714
:104D5000E9FC30482E494FF4E1350160C0E90154C7
:104D60000C26C460C0E904468461C461FDF7CCFB35
:104D70002848294940300160C0E90154C460C0E9B5
:104D800004468461C461FDF7BFFB22482349C4384F
:104D9000C0E900148460C46003210461C0E90541D6
:104DA000FDF746FD1B481E4980300160C0E90154F3
:104DB000C460C0E904468461C461FDF7A5FB1A49DB
:104DC000184808600846FBF772FE1849052201F1F1
:104DD0003200FBF7D5FD0F484038FDF797F913492E
:104DE0000A220A3901F5C470FDF736FC1C2210496D
:104DF0006846FBF77EFA0021684600F07DF90A4913
:104E00001439086100F056F8FEE70000303802401F
:104E100000100140EC01002000440040002C014043
:104E2000001401400030024014000020AE000020B9
:104E3000606B000801460020842900D0C81C704720
:104E4000002A05D011F8013B00F8013B521EF9D1B0
:104E5000704700005FFA81F100F8011B521EFBD180
:104E6000704770B50446406B0D460026A8420FD02F
:104E7000204600F09BFD06000AD1607801232A46F7
:104E800004F13801FFF7D6F808B1751E01266563F5
:104E9000304670BD10B500B9012000F0D5FE0020ED
:104EA00010BD10B501F0AAFC012801D0012010BDF1
:104EB000002010BD10B500F067FF002010BD10B538
:104EC000FFF7A7FE18B1BDE8104001F0ABBCBDE88C
:104ED000104001F0A1BC38B5D0E9011204683AB124
:104EE000C3682BB100200090204601F07BF838BD4C
:104EF0002046BDE83840002201F050B82DE9FF41BE
:104F00000D004FF00006CDE9016507461ED00024D4
:104F10000396501C1FD002B11446FFF77AFE694673
:104F20004FF01008E8B103AA2846091D01F0CAFA9B
:104F3000012813D000960398E8B114494FF080502F
:104F40000860BFF34F8FBFF36F8F14E080203146AE
:104F50002A46009011E04FF0FF34DEE7CDF80080E4
:104F6000E9E722462846091D01F010FA012808D079
:104F700054B1402000909DE8070087E80700BDE895
:104F8000FF81CDF80080F6E70020F3E704ED00E0B4
:104F900037B5054682B000200090140000D10124EE
:104FA000FFF737FE4FF0000388B16A4603A9284691
:104FB00001F040F9012811D1009890B10A494FF051
:104FC00080500860BFF34F8FBFF36F8F09E0224618
:104FD00003A9284601F07EF8012802D0FF2005B081
:104FE00030BD0020FBE7000004ED00E038B5436869
:104FF0004BB1012909D10320002200901146012064
:1050000000F0F0FF38BD012901D0002038BD032297
:105010000021012000F0C2FF040004D000231A4642
:10502000194601F057F8204638BD10B50446FFF781
:10503000F0FD08B1822010BD204600F0D9FD00200F
:1050400010BD000038B5002405460094FFF7E1FDCF
:1050500090B16946284601F04BF9012801D0FF20A4
:1050600038BD009888B10A494FF080500860BFF3FE
:105070004F8FBFF36F8F08E000231A46194628466A
:1050800001F028F8012800D0FF24204638BD000098
:1050900004ED00E038B505004FF0000000900FD09F
:1050A0000024481C0ED001B10C46FFF7B2FDB8B188
:1050B0006A460021284601F005FA012816D104E0CD
:1050C000802038BD4FF0FF34EFE7009880B10949E8
:1050D0004FF080500860BFF34F8FBFF36F8F07E032
:1050E0002146284601F03CFA012801D0FF2038BDB6
:1050F000002038BD04ED00E07FB50D46044641694F
:10510000B0F9080081B1A16971B1FFF793FED4E94C
:1051100005128DE80700D4E900102B46226901F042
:1051200042FB039004B070BDFFF784FE03A9CDE9F4
:105130000001208A2B4682B2D4E9001001F006FB60
:10514000012801D00020EDE70398EBE72DE9F041BD
:10515000184C0F46054666692068001D00F05BFC90
:1051600038B9206890F82C1001208840A16981434B
:10517000A161681C07D137B12168BDE8F0410E4834
:10518000091D00F08BBC20683544B542456021689C
:1051900005D2A068BDE8F041091D00F067BC606859
:1051A000091D00F063FC206B854200D22563BDE839
:1051B000F081000044000020202A00202DE9F04169
:1051C000054600F077FC2E4C2069401C20612068C9
:1051D0002C4F10B1E06940B32DE025602069012813
:1051E00029D1002606EB860007EB800000F030FC9A
:1051F000761C072EF6D323488C3000F029FC21487A
:10520000A03000F025FC1F48B43000F021FC1D4800
:10521000C83000F01DFC1B48DC3000F019FC1948B8
:105220008C3060601430A06005E02068E96AC06AD4
:10523000884200D82560E06A401CE062E96A0120EB
:10524000A26988401043A06101EB810007EB800058
:10525000291D00F023FC00F04DFCE06900280CD073
:105260002068E96AC06A884207D207494FF0805037
:105270000860BFF34F8FBFF36F8FBDE8F081000070
:10528000440000204429002004ED00E030B4026C0A
:105290000B46002A0BD0C1681144C1604468A1428A
:1052A00001D30168C16030BC1846FBF722B830BC9E
:1052B00070472DE9F041856B174604460026026CC5
:1052C00082B1C7B1E068FBF714F8E168206C091AF5
:1052D000E1602268914202D26168081AE060022F00
:1052E00016D017E02068A8B9606801F007FB0646F1
:1052F000002060600EE0A068FAF7FBFF216CA06858
:105300000844A0606168884204D32068A06001E07E
:1053100005B16D1E6D1CA5633046BDE8F08110B56A
:10532000044690F8510058B101280CD002280FD043
:10533000502080F31188BFF34F8FBFF36F8FFEE7CC
:10534000206B00F0EBFB2046BDE8104000F0E6BB10
:1053500010BD000010484FF47051420706D0C01D28
:105360000D4920F00700411AC1F570510B4A002386
:105370000144C2E900030839103A21F00701116025
:105380004B600B600B1AC0E9001393604FF00040B4
:105390005360D06070470000342A00209000002045
:1053A000144E154CA6F1C8074FF08058DFF84C900A
:1053B00012E000BF00F07EFBF068C568281D00F019
:1053C0002AFB2069401E2061E068401EE06000F07A
:1053D00091FB2846FFF7A3FFE0680028EAD1386870
:1053E0000128F9D9C9F80080BFF34F8FBFF36F8F41
:1053F000F2E700000C2A00204400002004ED00E049
:105400000346009829B10260C0E90F31012100F084
:105410001DBE0060F8E72DE9F0479A46DDE90984F2
:1054200081466FF00303206B03EB82021044089D5A
:1054300020F00706700707D0502080F31188BFF3D3
:105440004F8FBFF36F8FFEE723180A5C83F8342079
:105450000A5C12B1401C1028F6D3002784F8437070
:10546000072D00D30625E562C4E91157201D00F081
:10547000FAFA04F1180000F0F6FA2461C5F1070009
:105480006462A061E76484F8507052464946304631
:1054900000F0D8F92060B8F1000F01D0C8F8004042
:1054A000BDE8F08730B5114900E011460A68824234
:1054B000FBD34B685C18844203D1406818444860B1
:1054C000084643681C18944209D1084C103C2468D3
:1054D000A24209D052681A4442600A681268026007
:1054E000814200D0086030BD0460F9E790000020E0
:1054F00010B5044600F0DEFAA06B28B15FF000049E
:1055000000F0F8FA204610BD0124F9E7064841688A
:10551000096829B14168C968C96849680163704769
:105520004FF0FF31FAE700004400002008484068CF
:10553000401C4FF0500080F3118804D0BFF34F8F10
:10554000BFF36F8FFEE7BFF34F8FBFF36F8FFEE7A1
:10555000980000202DE9F041044600F0ABFA94F9E0
:10556000455004F1240609E0606A48B1304601F074
:105570005BFA08B100F096FB6D1E6DB2002DF3DCF6
:105580004FF0FF3684F8456000F0B4FA00F092FA6C
:1055900094F9445004F1100709E0206948B13846F5
:1055A00001F042FA08B100F07DFB6D1E6DB2002DD6
:1055B000F3DC84F84460BDE8F04100F09BBA2DE9CB
:1055C000F047022617460D46044602297DD3E069BE
:1055D000A8427AD920784FF00109012804D0022886
:1055E00040D003287AD154E0A18905EB5508B8FBD7
:1055F000F1F0A16A01442046FFF733FC06006DD1AB
:10560000A189B8FBF1F201FB12802044383008F187
:105610000108E90704D00178FAB262F31F1100E033
:105620003946017084F80390A189B8FBF1F0A16AB2
:1056300001442046FFF715FC06004FD1A189B8FBB5
:10564000F1F201FB128020443830E90702D0C7F3A1
:10565000071105E00178C7F3032201F0F0011143BF
:10566000017039E0A089A16A4008B5FBF0F001445F
:105670002046FFF7F6FB060030D1A1896800B0FB99
:10568000F1F201FB12002044B9B2383000F046F9C3
:1056900022E0A089A16A8008B5FBF0F00144204611
:1056A000FFF7DFFB060019D1A089AD00B5FBF0F1D3
:1056B00000FB115020443830FFF705FB67F31B0057
:1056C0000146A089B5FBF0F200E007E000FB1250B4
:1056D0002044383000F01AF984F803903046BDE8D1
:1056E000F087F8B50E4604460A2902D10D21FFF7CE
:1056F000F8FF6568002D16DB60196D1C06733D2DE3
:105700000DDB6B462A4604F10C012068FEF759FFB9
:105710000098A84201D1002501E04FF0FF356560F7
:10572000A068401CA060F8BD38B542680446002A55
:105730000CDB6B4604F10C012068FEF742FF28B930
:1057400060680099884201D1A06838BD4FF0FF30F1
:1057500038BD00002DE9F0410546002700F04AFB66
:10576000314E306808B9FFF7F5FDF06805424BD1BE
:10577000C5B3083568070ED005F00700C0F1080072
:105780000544680707D0502080F31188BFF34F8F7E
:10579000BFF36F8FFEE72DB37068854234D822487F
:1057A000103001460C6801E020460C466168A942B1
:1057B00002D221680029F7D131688C4224D00768D1
:1057C0002168016060680837411B10290FD96019F2
:1057D000420708D0502080F31188BFF34F8FBFF3EA
:1057E0006F8FFEE710E041606560FFF75BFE616868
:1057F0007068401A7060B268904200D2B060F06881
:1058000001430020C4E9000101F048F9780707D0FE
:10581000502080F31188BFF34F8FBFF36F8FFEE7E7
:105820003846BDE8F0810000800000200449086887
:1058300018B10868826C521C8264086870470000C6
:105840004400002010B5031F4FF080741C601B1F24
:1058500021F001011960191F044B0B6014390A6013
:10586000091F6FF0020244380A6010BD2D55000870
:105870002DE9F041056813460E46074602292DD34F
:10588000E869B0422AD93BB14FF0FF3219462846A9
:10589000FFF795FE00281FD131463846FFF725F95E
:1058A000040018D0012C19D0601C19D000223146F8
:1058B0002846FFF784FE00280ED1D5E90610821E87
:1058C000914205D2491CA961297941F00101297150
:1058D0002646B042E0D80020BDE8F0810220FBE778
:1058E0000120F9E770B50C460646154691B204F161
:1058F0001A0000F013F83078032806D1290C04F1BF
:105900001400BDE8704000F009B870BD0170090ACC
:105910004170090A8170090AC17070470170090A53
:105920004170704770B5044600F040F8050036D16C
:10593000207803282CD12079012829D104F13800BE
:10594000A28900210646FFF785FA4AF6552104F29E
:105950003620FFF7E3FF13493046FFF7D7FF124920
:1059600004F50770FFF7D2FF04F50870A169FFF78F
:10597000CDFF04F509706169FFF7C8FF626A012372
:10598000521C626360783146FEF76EFB0020207186
:10599000002260781146FEF73FFB00B10125284642
:1059A00070BD000052526141727241612DE9F041B7
:1059B0000446C0780027F8B1656B04F138016078BF
:1059C00001232A468846FEF74FFB08B1012713E062
:1059D0000020E070A06A216A281A88420CD2A678BA
:1059E00008E0206A0123054460782A464146FEF714
:1059F0003BFB761E022EF4D23846BDE8F08100282B
:105A000008D00C2906D00B2904D00F2902D0006938
:105A1000FEF7D8BE7047D0E9013201699A60D0E93B
:105A200001235A604A68824201D182684A6000229A
:105A300002610868401E086008687047034B0360F5
:105A400003F1540008608020106070474426002055
:105A500000F108014FF0FF32C0E90112C16001619D
:105A600000210160704700210161704730B50B686B
:105A70005A1C02D000F1080202E0026904E022464A
:105A8000546825689D42FAD953684B6099608A60D2
:105A9000516008610168491C016030BD42684A607C
:105AA00093688B6093685960916008610168491C34
:105AB00001607047502080F31188BFF34F8FBFF310
:105AC0006F8F0A494868401C486001280CD108487B
:105AD000006810F0FF0F07D0502080F31188BFF34B
